:020000040800F2
:1000000000000120694600082D0C0008310C000892
:10001000350C0008390C00083D0C000800000000F9
:10002000000000000000000000000000410C00087B
:10003000450C000800000000490C00084D0C0008A9
:10004000AD460008AD460008AD460008AD460008C4
:10005000AD460008AD460008AD460008AD460008B4
:10006000AD460008AD460008AD460008AD460008A4
:10007000AD460008AD460008AD460008AD46000894
:10008000AD460008AD460008AD4600085D0C00080E
:10009000690C0008750C0008810C0008AD460008CA
:1000A000AD460008AD460008AD460008AD46000864
:1000B000AD460008AD460008AD4600088D0C0008AE
:1000C000AD460008AD460008AD460008AD46000844
:1000D000AD460008AD460008AD460008AD46000834
:1000E000AD460008AD460008AD460008000000001F
:1000F0000000000000000000000000000000000000
:100100000000000000000000AD460008AD460008F9
:10011000AD460008AD460008AD460008AD460008F3
:10012000AD460008AD460008AD460008AD460008E3
:10013000AD4600080000000000000000AD460008C9
:10014000AD460008AD460008AD460008AD460008C3
:10015000000000000000000000000000000000009F
:10016000000000000000000000000000000000008F
:10017000000000000000000000000000000000007F
:10018000000000000000000000000000000000006F
:10019000000000000000000000000000000000005F
:1001A000000000000000000000000000000000004F
:1001B000000000000000000000000000000000003F
:1001C000000000000000000000000000000000002F
:1001D000000000000000000000000000000000001F
:0401E0005FF8E0F1F3
:1001E400044B05481B1A062B02D9044B03B11847CC
:1001F400704700BF6F0000206C000020000000006A
:1002040005490648091A891001EBD171491002D039
:10021400034B03B1184770476C0000206C000020AA
:100224000000000010B5064C237843B9FFF7D8FF4F
:10023400044B13B10448AFF300800123237010BDB5
:100244006C00002000000000B455000808B5084BFD
:100254001BB108480849AFF300800848036813B984
:10026400BDE80840CCE7064B002BF9D09847F7E7E8
:1002740000000000B4550008700000206C0000204D
:100284000000000081F0004102E000BF83F0004361
:1002940030B54FEA41044FEA430594EA050F08BF1D
:1002A40090EA020F1FBF54EA000C55EA020C7FEAE1
:1002B400645C7FEA655C00F0E2804FEA5454D4EB5E
:1002C4005555B8BF6D420CDD2C4480EA020281EA28
:1002D400030382EA000083EA010180EA020281EA60
:1002E4000303362D88BF30BD11F0004F4FEA0131B2
:1002F4004FF4801C4CEA113102D0404261EB4101C1
:1003040013F0004F4FEA03334CEA133302D0524246
:1003140063EB430394EA050F00F0A780A4F1010402
:10032400D5F1200E0DDB02FA0EFC22FA05F280183C
:1003340041F1000103FA0EF2801843FA05F3594122
:100344000EE0A5F120050EF1200E012A03FA0EFCA1
:1003540028BF4CF0020C43FA05F3C01851EBE371CB
:1003640001F0004507D54FF0000EDCF1000C7EEBE8
:1003740000006EEB0101B1F5801F1BD3B1F5001F26
:100384000CD349085FEA30004FEA3C0C04F1010445
:100394004FEA445212F5800F80F09A80BCF1004F6E
:1003A40008BF5FEA500C50F1000041EB045141EAF0
:1003B400050130BD5FEA4C0C404141EB010111F4F1
:1003C400801FA4F10104E9D191F0000F04BF01469C
:1003D4000020B1FA81F308BF2033A3F10B03B3F17A
:1003E40020020CDA0C3208DD02F1140CC2F10C020A
:1003F40001FA0CF021FA02F10CE002F11402D8BF68
:10040400C2F1200C01FA02F120FA0CFCDCBF41EA33
:100414000C019040E41AA2BF01EB0451294330BD02
:100424006FEA04041F3C1CDA0C340EDC04F11404DF
:10043400C4F1200220FA04F001FA02F340EA0300B6
:1004440021FA04F345EA030130BDC4F10C04C4F1FC
:10045400200220FA02F001FA04F340EA03002946DC
:1004640030BD21FA04F0294630BD94F0000F83F426
:10047400801306BF81F480110134013D4EE77FEA09
:10048400645C18BF7FEA655C29D094EA050F08BF55
:1004940090EA020F05D054EA000C04BF1946104636
:1004A40030BD91EA030F1EBF0021002030BD5FEA7A
:1004B400545C05D14000494128BF41F0004130BDA2
:1004C40014F580043CBF01F5801130BD01F00045F6
:1004D40045F0FE4141F470014FF0000030BD7FEA69
:1004E400645C1ABF194610467FEA655C1CBF0B4664
:1004F400024650EA013406BF52EA033591EA030F7B
:1005040041F4002130BD00BF90F0000F04BF002172
:10051400704730B54FF4806404F132044FF00005A5
:100524004FF0000150E700BF90F0000F04BF00211E
:10053400704730B54FF4806404F1320410F0004584
:1005440048BF40424FF000013EE700BF42004FEA7F
:10055400E2014FEA31014FEA02701FBF12F07F43FC
:1005640093F07F4F81F06051704792F0000F14BFF9
:1005740093F07F4F704730B54FF4607401F000453D
:1005840021F0004120E700BF50EA010208BF704794
:1005940030B54FF000050AE050EA010208BF704789
:1005A40030B511F0004502D5404261EB41014FF4F2
:1005B400806404F132045FEA915C3FF4DCAE4FF0F6
:1005C40003025FEADC0C18BF03325FEADC0C18BFDD
:1005D400033202EBDC02C2F1200300FA03FC20FA2E
:1005E40002F001FA03FE40EA0E0021FA02F114447B
:1005F400C1E600BF70B54FF0FF0C4CF4E06C1CEA90
:1006040011541DBF1CEA135594EA0C0F95EA0C0F04
:1006140000F0DEF82C4481EA030621EA4C5123EA77
:100624004C5350EA013518BF52EA033541F48011A6
:1006340043F4801338D0A0FB02CE4FF00005E1FB59
:1006440002E506F00042E0FB03E54FF00006E1FBA3
:1006540003569CF0000F18BF4EF0010EA4F1FF04E6
:10066400B6F5007F64F5407404D25FEA4E0E6D4126
:1006740046EB060642EAC62141EA55514FEAC52037
:1006840040EA5E504FEACE2EB4F1FD0C88BFBCF5B3
:10069400E06F1ED8BEF1004F08BF5FEA500E50F164
:1006A400000041EB045170BD06F0004646EA01012A
:1006B40040EA020081EA0301B4EB5C04C2BFD4EB5C
:1006C4000C0541EA045170BD41F480114FF0000E55
:1006D400013C00F3AB8014F1360FDEBF002001F0C3
:1006E400004170BDC4F10004203C35DA0C341BDC3D
:1006F40004F11404C4F1200500FA05F320FA04F00F
:1007040001FA05F240EA020001F0004221F0004142
:1007140010EBD37021FA04F642EB06015EEA430EB5
:1007240008BF20EAD37070BDC4F10C04C4F12005E5
:1007340000FA04F320FA05F001FA04F240EA020098
:1007440001F0004110EBD37041F100015EEA430E69
:1007540008BF20EAD37070BDC4F1200500FA05F289
:100764004EEA020E20FA04F301FA05F243EA020308
:1007740021FA04F001F0004121FA04F220EA020017
:1007840000EBD3705EEA430E08BF20EAD37070BD5D
:1007940094F0000F0FD101F00046400041EB01013D
:1007A40011F4801F08BF013CF7D041EA060195F01F
:1007B400000F18BF704703F00046520043EB0303D9
:1007C40013F4801F08BF013DF7D043EA06037047C6
:1007D40094EA0C0F0CEA135518BF95EA0C0F0CD0D1
:1007E40050EA410618BF52EA4306D1D181EA030117
:1007F40001F000414FF0000070BD50EA410606BF11
:100804001046194652EA430619D094EA0C0F02D155
:1008140050EA013613D195EA0C0F05D152EA03369A
:100824001CBF104619460AD181EA030101F00041B8
:1008340041F0FE4141F470014FF0000070BD41F001
:10084400FE4141F4780170BD70B54FF0FF0C4CF4DB
:10085400E06C1CEA11541DBF1CEA135594EA0C0FFA
:1008640095EA0C0F00F0A7F8A4EB050481EA030E47
:1008740052EA03354FEA013100F088804FEA03332E
:100884004FF0805545EA131343EA12634FEA0222FC
:1008940045EA111545EA10654FEA00260EF00041BD
:1008A4009D4208BF964244F1FD0404F5407402D20F
:1008B4005B084FEA3202B61A65EB03055B084FEAA0
:1008C40032024FF480104FF4002CB6EB020E75EB9D
:1008D400030E22BFB61A754640EA0C005B084FEAC5
:1008E4003202B6EB020E75EB030E22BFB61A754642
:1008F40040EA5C005B084FEA3202B6EB020E75EB8D
:10090400030E22BFB61A754640EA9C005B084FEA04
:100914003202B6EB020E75EB030E22BFB61A754611
:1009240040EADC0055EA060E18D04FEA051545EA00
:1009340016754FEA06164FEAC30343EA52734FEAA9
:10094400C2025FEA1C1CC0D111F4801F0BD141EA22
:1009540000014FF000004FF0004CB6E711F4801F87
:1009640004BF01430020B4F1FD0C88BFBCF5E06F67
:100974003FF6AFAEB5EB030C04BFB6EB020C5FEA77
:10098400500C50F1000041EB045170BD0EF0004ECC
:100994004EEA113114EB5C04C2BFD4EB0C0541EAFE
:1009A400045170BD41F480114FF0000E013C90E6FB
:1009B40045EA060E8DE60CEA135594EA0C0F08BFBF
:1009C40095EA0C0F3FF43BAF94EA0C0F0AD150EABE
:1009D40001347FF434AF95EA0C0F7FF425AF104651
:1009E40019462CE795EA0C0F06D152EA03353FF479
:1009F400FDAE1046194622E750EA410618BF52EAF6
:100A040043067FF4C5AE50EA41047FF40DAF52EAC9
:100A140043057FF4EBAE12E74FEA410212F50012F0
:100A240015D211D56FF47873B3EB625212D94FEA31
:100A3400C12343F0004343EA505311F0004F23FA1B
:100A440002F018BF404270474FF00000704750EA70
:100A5400013005D111F0004008BF6FF0004070472D
:100A64004FF00000704700BF70B594B000234FF4FE
:100A7400803201244FF4E011022506A8099307935C
:100A8400119306940B9408920F920E95109102F014
:100A9400B1F8034600B1FEE729464FF480620F2601
:100AA40001A80295039305930196049202F058FB62
:100AB400054600B1FEE702F0F7FB094BA3FB00304B
:100AC400800902F0D7FD042002F0ECFD054B4FF045
:100AD400FF301C6029462A4602F07EFD14B070BD2A
:100AE400D34D62107000424280B588B002F050F8D5
:100AF400FFF7BAFF3F4B40489A694FF4E07142F068
:100B040020029A619C69002204F020040094009C55
:100B14009D693A4C45F010059D619D69384E05F07C
:100B240010050195019D9D6945F004059D619D6930
:100B340005F004050295029D9D6945F008059D6137
:100B44009B694FF4E07503F008030393039B02F0E1
:100B5400BDFC01220223284804A9049505920793A9
:100B6400092502F0C7FB00234FF440214FF4801203
:100B74002046A360E360A361E36123626362A3622E
:100B8400E362266065602161626100F0E7F9034673
:100B940000B1FEE71B4E1C4D4FF4E1310C223046F0
:100BA400B360F3603361B361F361356071607261A6
:100BB40001F046FF034600B1FEE7144D144F1549FA
:100BC4004FF480422846AB60EB606B61AB61EB6134
:100BD4002B622F6069602A6100F022FF00B1FEE7FA
:100BE4000D490E4A0E4B0C6016601D6003F028F987
:100BF400FEE700BF00100240001001400004002086
:100C040000640040BC03002000380140640300205D
:100C140000540040801A060054040020FC03002005
:100C2400B8030020FEE700BF704700BFFEE700BF27
:100C3400FEE700BFFEE700BFFEE700BF704700BF4E
:100C4400704700BF704700BF08B501F0B3FFBDE8AF
:100C5400084002F035BD00BF014800F0FDBB00BFF5
:100C640000040020014800F0F7BB00BF000400208E
:100C7400014800F0F1BB00BF00040020014800F06F
:100C8400EBBB00BF00040020014801F0D9B900BF4C
:100C940064030020224B00B59A6983B042F001023C
:100CA4009A619B69032003F001030193019B02F005
:100CB40081FC00210A466FF00B0002F08DFC00213C
:100CC4000A466FF00A0002F087FC00210A466FF022
:100CD400090002F081FC00210A466FF0040002F0D2
:100CE4007BFC00210A466FF0030002F075FC002132
:100CF4000A466FF0010002F06FFC00210A464FF033
:100D0400FF3002F069FC074B5A6822F0E0625A6037
:100D14005A6842F000725A6003B05DF804FB00BFE9
:100D240000100240000001400268244B9A4200D0A7
:100D3400704703F5D633DA6930B542F00072DA61F0
:100D4400DB6987B003F00073002402A94FF400624A
:100D540001931B48019B0292039404944FF4805521
:100D640002F0C8FA032302A902221548059303924C
:100D7400029502F0BFFA21462246132002F02CFC11
:100D8400132002F05FFC21462246142002F024FCCA
:100D9400142002F057FC21462246152002F01CFCC8
:100DA400152002F04FFC21462246162002F014FCC6
:100DB400162002F047FC07B030BD00BF00640040BD
:100DC400000801400268124B9A4200D0704710B5E7
:100DD40086B01222032302A9C0240E48039205936D
:100DE400029402F087FA0C4B0021D8690A4640F4B9
:100DF4000010D861DB691F2003F400130193019BE9
:100E040002F0EAFB1F2002F01DFC06B010BD00BF7B
:100E140000540040000C0140001002400268144BD2
:100E24009A4200D0704703F558439A6930B542F4AA
:100E340080429A619B6987B003F48043019302A9BD
:100E4400022203234FF400740A4803920593019D80
:100E5400029402F04FFA00234FF4806202A905487D
:100E640002920393049302F045FA07B030BD00BF29
:100E740000380140000801402DE9F0414D6901248A
:100E8400AC40E6430368486AD3F80022CF6922F4F1
:100E94007C5242EA002242F00102C3F80022D3F855
:100EA4001C223240C3F81C22002F3FD1D3F80C027D
:100EB400B1F804E00A888F6803EBC50806EA000568
:100EC400C86842EA07424EEA0040C3F80C52C8F828
:100ED4004002C8F844228A6912BBD3F80422324083
:100EE400C3F804220A69AAB9D3F814221640C3F835
:100EF40014620A6A012A04D1D3F81C221443C3F8E9
:100F04001C42D3F80022002022F00102C3F8002280
:100F1400BDE8F081D3F814222243C3F81422E8E791
:100F2400D3F804222243C3F80422DBE7012FD2D1F1
:100F3400D3F80C22B1F804E008688F8944EA020C63
:100F44008A6803EBC5054EEA004047EA0242C3F84B
:100F54000CC2C5F84002C5F84422BCE7002800F0E2
:100F64009180F8B590F83C30054603F0FF02002B61
:100F74007CD02B68022285F83C201A6822F00202F9
:100F84001A601A6842F001021A6001F01BFE06465C
:100F940004E001F017FE801B0A285CD82A68536815
:100FA40013F00104F5D05368D9075AD5AB69E96940
:100FB400012B0CBF802300230129296A0CBF43F0B5
:100FC400400323F040030129696A0CBF43F0200366
:100FD40023F020030129A96A0CBF43F0100323F076
:100FE40010030129E96AEF680CBF43F0080323F0FA
:100FF40008030129A9682E6910686C6947EA01078A
:10100400696846EA07060CBF43F0040323F00403AF
:10101400344320F0FC000139214303431360D161C0
:10102400136823F00103136001F0CCFD044604E0CF
:1010340001F0C8FD001B0A281DD82B685A68D20786
:10104400F6D45B6813F001030BD101222B6418461C
:1010540085F83C20F8BD032085F83D4085F83C0028
:10106400F8BD042385F83C300120F8BD80F83D200C
:10107400FFF75AFE7DE70320002385F83C0085F83E
:101084003D30F8BD0120704702689368590102D4CD
:1010940093681B0171D590F83D30012B6BD0936898
:1010A40001215B01F0B580F83D1077D4936813F00B
:1010B400006F14BF0C46022424011119D1F8805189
:1010C400036B05F00105C1F880519D68D1F880716A
:1010D400002D5AD1DD681E683D4345EA4655C1F8E6
:1010E40080511D69144405F00F051D61D1F8847108
:1010F40004F5C47627F00F07C1F88471D1F8847120
:101104003D43C1F884519D7D93F817E01F7D2D0464
:1011140045EA0E6593F815E03D4345EA0E25C4F80B
:1011240088519D7EDF7E1C7E2D0445EA07655F7E27
:1011340045EA040343EA0723736090F83C30DBB2CA
:10114400322B31D0622B33D0222B29D0122380F8BA
:101154003C3000230364D1F8804180F83D3044F0F2
:101164000100C1F880015169184641F40F4343F06E
:1011740001035361F0BD022070479368D9008AD4FB
:10118400042380F83C3001207047DE683D435F68EB
:10119400354345EAC705C1F88051A2E700248BE72F
:1011A400422380F83C30D4E7522380F83C30D0E727
:1011B400722380F83C30CCE710B40346A9BB90F806
:1011C4003C20222A43D090F83C20422A3FD090F879
:1011D4003C20622A3BD090F83C20722A37D090F809
:1011E4003D20012A33D093F83C200121D2B2322A87
:1011F40083F83D1061D0522A5BD0122A55D02222A6
:1012040083F83C20196800241C644A69204642F48F
:101214000F4242F001024A614A6983F83D4042F0BC
:101224000A034B615DF8044B7047012913D190F810
:101234003C20322A0BD090F83C20522A07D090F858
:101244003C20622A03D090F83C20722A03D1022069
:101254005DF8044B704793F83D20012AF7D093F8CA
:101264003C200121D2B2222A83F83D1007D0422A21
:1012740027D0122A29D0322283F83C2002E06222AD
:1012840083F83C20196800241C644A69204642F40F
:101294000F4242F001024A614A6983F83D4042F03C
:1012A40050034B615DF8044B7047422283F83C20A5
:1012B400A8E7722283F83C20A4E7622283F83C204A
:1012C400A0E7722283F83C20DCE7522283F83C201A
:1012D400D8E700BF426B836B70B5002908BF134683
:1012E40005680A01AC18D4F8B06106F004069E60E3
:1012F400002E7DD1D4F8B061760D1E60D4F8B061B3
:10130400154406F00206DE60D4F8B461196206F0F2
:101314000F061E61D4F8B441D5F8B861C4F30725AB
:101324001E750468DD611444D4F8B841240A5C7560
:1013340004681444D4F8B841240C9C75046814441B
:10134400D4F8B841240EDC750468144404F5DC7444
:1013540064681C760468144404F5DC746468240A24
:101364005C760468144404F5DC746468240C9C768C
:101374000468224402F5DC725268120EDA760368BD
:101384002022D1B9DA605A6922F00A025A6190F82F
:101394003C2002F0EF02222A39D090F83C30DBB234
:1013A400622B3DD0722B49D0422B1AD0012380F8F6
:1013B4003C3002F0B9F9002070BD1A615A6922F07C
:1013C40050025A6190F83C2002F0EF02222A14D015
:1013D40090F83C30DBB2622B29D0722B35D0522BE3
:1013E400E4D1122380F83C3002F09EF9002070BD55
:1013F400D4F8B061F6085E6080E75A6922F40F42BF
:101404005A6190F83C30DBB2622BE6D10FE05A69A6
:1014140022F40F425A6190F83C30DBB2622BC1D106
:10142400322380F83C3002F07FF9002070BD222383
:1014340080F83C3002F078F9002070BD522380F827
:101444003C3002F071F9002070BD422380F83C303A
:1014540002F06AF9002070BD036870B5DA680446CA
:1014640012F01005596902D011F008057DD11A69EE
:101474005969D00601D5490672D45A69D20711D5E3
:10148400754A9868114602408A4298689E687FD0DF
:10149400724A114602408A427AD0714A1146324059
:1014A4008A4275D0DA685969900702D0890700F139
:1014B40098801A695969920702D0CE0600F1978084
:1014C400226C154325649A695969D507586901D571
:1014D400CA0556D49A6959699507586901D5890589
:1014E40048D49A6959695607586901D54D0530D4CD
:1014F4009A69596912F0700F586901D0090510D41E
:10150400226C6AB101220421596084F83C205A6992
:10151400204622F40F4222F05B025A6102F044F9A1
:1015240070BD0204ECD59A6902F07002302A00F012
:10153400888078D9502A71D0602A7DD0402A03D17E
:10154400226C42F0400222649A6922F070029A618D
:10155400D6E70004CCD5226C42F004022264C7E72B
:10156400102245F480651A6187E71022DA604FF48F
:1015740000757CE70204B4D5226C42F002022264B6
:10158400AFE70604A6D5226C42F001022264A1E76B
:101594009A6899689607986806D48A0504D4C60799
:1015A40002D445F4006517E05A6922F001025A6139
:1015B40094F83C20122A20D094F83C30DBB2522B11
:1015C40020D0722B26D0422B20D0012384F83C302B
:1015D400204602F0A7F823689968224A0A439A60D1
:1015E40060E720460021FFF775FE236861E7204687
:1015F4000121FFF76FFE236862E75A6922F40F4264
:101604005A61D9E7322384F83C30E1E7222384F895
:101614003C30DDE7622384F83C30D9E7226C42F0A9
:101624008002226490E7102A10D0202A8CD1226CE8
:1016340042F01002226487E7226C42F48072226432
:1016440082E7226C42F0200222647DE7226C42F0A1
:101654000802226478E700BF0100000400010008CA
:1016640000000110090501002DE9F8430D46064666
:1016740090469946C1F30747346805E0606943051D
:1016840010D4B8F1FF3F20D1012F0CBF6069A069CD
:10169400C04380B2284214BF012000200028EDD1AD
:1016A400BDE8F883236800226FF4806743F4007375
:1016B40004252021236001206761356486F83C20DD
:1016C400326386F83D10BDE8F883B8F1000F05D009
:1016D40001F078FAC9EB00008045CDD20023202226
:1016E400336386F83C3086F83D200320BDE8F88358
:1016F4002DE9F0410C46064617461D46C1F307483E
:10170400336801E06A1C0FD1B8F1010F0CBF5869AE
:101714009869C04380B220420CBF01200020B84227
:10172400F0D00020BDE8F0812DB101F04BFA069B0A
:10173400C01A8542E4D200232022336386F83C3069
:1017440086F83D20032086F83E30BDE8F08100BFD6
:10175400F8B504460E4617462068436913F0800323
:1017640024D145696A050CD56FF4806504212022D3
:10177400456121640120236384F83C3084F83D20D2
:10178400F8BD731CE9D026B101F01CFAC01B8642D7
:10179400E2D2236C002243F020032021236484F846
:1017A4003C202263032084F83D10F8BD0020F8BDDE
:1017B4002DE9F047056884B02C680D9E44F48074CC
:1017C400884691469A462C600C9B00964FF0011176
:1017D40000220746FFF78CFF18B1032004B0BDE8D0
:1017E400F0873A6808F0FE03136138461D490C9AE5
:1017F4003346FFF739FF38B13B6C042B0CBF012093
:10180400032004B0BDE8F0873B6803905A6938466A
:1018140003929B690C9903933246039BFFF798FF4D
:1018240088B9BAF1010F18D039684FEA19230B614E
:10183400324638460C99FFF78BFF20B93A685FFAB5
:1018440089F31361CAE73B6C042BC6D13A680120C3
:10185400136843F400731360C0E73B685FFA89F2CE
:101864001A61BBE7020001002DE9F047046884B067
:1018740025680D9E45F4806525602568884645F4F5
:10188400807591469A4625600C9B00964FF0011195
:1018940000220746FFF72CFF18B1032004B0BDE86F
:1018A400F0873B685FFA88F808F0FE021A61384650
:1018B4002C490C9A3346FFF7D7FE20B13B6C042B1E
:1018C400EBD10120EAE73B6803905A69384603925A
:1018D4009B690C9903933246039BFFF739FF60B968
:1018E400BAF1010F3B6812D15FFA89F21A613846E6
:1018F4000C993246FFF72CFFC0B13B6C042BCCD1C2
:101904003A680120136843F400731360C6E74FEA92
:1019140019221A6138460C993246FFF719FF00283C
:10192400EBD13A685FFA89F31361E0E7396802465C
:101934000B68384643F480730B604FF00111009636
:101944000C9BFFF7D5FE0028A7D1396848F00102A7
:101954000A613346384603490C9AFFF785FE00288E
:10196400ACD19BE702000100F8B504460E461746C9
:101974002068436913F0040324D145696A050CD532
:101984006FF48065042120224561216401202363D2
:1019940084F83C3084F83D20F8BD731CE9D026B1AE
:1019A40001F010F9C01B8642E2D2236C002243F0FE
:1019B40020032021236484F83C202263032084F83C
:1019C4003D10F8BD0020F8BD70B505460C4616461E
:1019D40008E05169C90617D45CB101F0F3F8801B23
:1019E400844206D32A68536913F04003F1D00020DF
:1019F40070BD2B6C2022134300212B6485F83C100E
:101A040085F83D20032070BD6FF010002021506147
:101A14002B6401202B6385F83C3085F83D1070BDA4
:101A240000286AD0F8B590F83D30044603F0FF0270
:101A3400002B4DD02268242384F83D30136823F012
:101A44000103136001F036FC2D4B2E49A3FB002348
:101A5400626826689B0C8A42736024D85200B0FBEB
:101A6400F2F0C0F30B020133032A336298BF04205F
:101A7400276AE16904F110023943E7682CCA3A4342
:101A84002B43F0613160B260F3603268002342F0AE
:101A94000102202132601846236484F83D10236338
:101AA40084F83E30F8BD4FF4967101FB03F3164DF4
:101AB400A168A5FB03539B090133336269B902EBA7
:101AC4004202B0FBF2F0C0F30B039BB90120CFE755
:101AD40080F83C20FFF776F9ACE702EB820202EBD8
:101AE4008202B0FBF2F0C0F30B03002BEED040F403
:101AF4004040BDE740F40040BAE70120704700BF12
:101B040083DE1B43A0860100D34D62102DE9F0470C
:101B1400044682B01E4688461746BDF82C9001F054
:101B240051F894F83D30202B03D0022002B0BDE8D8
:101B3400F087054600904249204601221923FFF709
:101B4400D7FD0028F1D194F83C30012BEDD0236867
:101B540001211A6884F83C10D20702D41A680A4397
:101B64001A601A68374922F400621A6040204FF064
:101B7400210E4FF0000A33460A9E84F83DE084F8B3
:101B84003E00C4F840A0A4F82A90E162608D666229
:101B94000C9E01950096414620853A462046FFF763
:101BA40007FE002839D1268DC6B120460C992A4655
:101BB400FFF7CEFD002837D1626A2168531C6362A7
:101BC4001378208D0B61638D461E013B9BB26385A8
:101BD4004B69B6B25B072685E6D596B92A462046F8
:101BE4000C99FFF7C1FEF8B922682021136843F469
:101BF4000073136084F83D1084F83C6084F83E6000
:101C040094E7931C63625378861E0B61638DB6B2AE
:101C1400013B9BB226856385C6E7236C84F83CA010
:101C2400042B0BD0032081E7236C042BFAD1226808
:101C34000120136843F40073136077E7012075E70C
:101C4400020010000000FFFF2DE9F047044686B0B3
:101C54001D4688461746BDF83C9000F0B3FF94F843
:101C64003D30202B04D00225284606B0BDE8F0877D
:101C7400064600909549204601221923FFF738FDB6
:101C84000028F0D194F83C30012BECD022680121DB
:101C9400136884F83C10D80702D413680B4313600C
:101CA40013688B4923F4006313604FF0220E402025
:101CB4002B464FF0000A0E9D84F83DE084F83E0068
:101CC400C4F840A0A4F82A90E162608D6562109D7A
:101CD40041468DE860003A4620852046FFF7C4FD62
:101CE400054638B1236C84F83CA0042B00F0C68070
:101CF4000325B9E7238D2268002B40F0A4800293CA
:101D040051690291916902910299116841F400713B
:101D14001160002B00F0A680032B4BD8012B00F0A0
:101D24008880022B009620466A494FF00002109BDF
:101D340067D0FFF7DDFC0028DAD121680B6823F4B3
:101D440080630B6072B62268636A1269591C61620F
:101D54001A70638D218D013B01399BB200960246B6
:101D6400218563852046109B5A49FFF7C1FC002852
:101D7400BED12368616A1A68481C42F400721A6072
:101D84001B6960620B70638D228D013B9BB2013A2B
:101D94006385228562B62268636A1269591C61628E
:101DA4001A70628D238D013A013B92B29BB2628517
:101DB4002385AEE7204610993246FFF705FE00283A
:101DC40058D12268636A1269591C61621A70628D63
:101DD4002168013A92B2238D62854A69013B9BB224
:101DE4005207238595D5636A0A69591C61621A7082
:101DF400238D628D013B013A9BB292B223856285A9
:101E040087E7FFF775FC00287FF472AF72B623688A
:101E1400616A1A68481C42F400721A601B696062A5
:101E24000B70638D228D013B013A9BB22285638541
:101E3400B0E7204610993246FFF7C6FDD0B92268B4
:101E4400636A1269D1E7012B1AD0022B2BD01168D7
:101E540041F4806111600590516905919269059280
:101E6400059A56E7202284F83D2084F83C3084F813
:101E74003E30F9E6236C202B3FF43AAF0125F3E61C
:101E8400136823F48063136072B6236803905A695D
:101E940003929A690392039A1A6842F400721A60D0
:101EA40062B6238D35E7136843F40063136072B69A
:101EB400236804905A6904929A690492049A1A68ED
:101EC40022F480621A6062B6238D22E702001000B9
:101ED4000000FFFF04000100704700BF704700BF0F
:101EE400704700BF704700BF704700BF704700BF16
:101EF400704700BF704700BF704700BF704700BF06
:101F040090F83D3010B5293B012B04464ED990F88A
:101F14003D30602B036805D05A6812055CBF20224F
:101F240080F83D200022226384F83E201A6822F4BF
:101F340000621A605A6812F4006214D0616B5A6825
:101F440091F8210022F4006201285A6035D03A4BFE
:101F540008464B6301F0BEFA002860D194F83D3086
:101F6400282B13D010BD94F83D10602942D05A6933
:101F7400520604D5626A1B69511C616213702046C3
:101F8400FFF7BAFF94F83D30282BEBD1236C5B07A5
:101F9400E8D52A4900232022E1622046236384F8FD
:101FA4003D2084F83E30FFF7A1FF10BD0023282216
:101FB4000363036880F83D20B8E7A36B1E4A184604
:101FC4005A6301F087FA0028C8D023685A6950067A
:101FD40005D5626A1B69511C6162137023681A6813
:101FE400A06B22F0010220211A60436B84F83D109B
:101FF4009847B3E7202184F83D1022645A695106BA
:1020040005D5626A1B69511C6162137023681A68E2
:10201400204622F001021A60FFF770FF9EE7226853
:10202400606B1368202123F001031360436B84F871
:102034003D10984792E700BF052800080000FFFF05
:10204400F0B5044603688DB09D695A69586894F8E0
:102054003E10C9B2102900F08F80402900F08C8016
:102064008449114019B3810500F105828249294050
:10207400002900F0E68081491140002940F0B68132
:102084007F491140002900F08B80800540F1888051
:10209400628D92B2002A00F08380626A511C6162F0
:1020A40012781A61638D013B9BB2638578E0754EAB
:1020B4001640002EDAD08605D8D594F83D2058680D
:1020C4001F4620F4E06058600B915969D2B20B911D
:1020D400196841F0010119600B99196821F48061B4
:1020E4001960596808050ED594F83D10222900F0AE
:1020F400448294F83D102A2900F03F82616B0968FC
:10210400496889B26185618D89B2E1B1596949072C
:1021140009D5616A1B69481C60620B70638D27686E
:10212400013B9BB263857B695E0608D5636A3969A6
:10213400581C60621970638D013B9BB26385236CEC
:1021440043F004032364236C002B40F02982A2F1A2
:102154002801022940F2DC81236B222B01D0222AA0
:102164001ED1002320222363204684F83D2084F8D6
:102174003E30FFF7B7FE13E012F0011F12D08605C0
:1021840000F162813C492940C9B13C491140002910
:1021940040F0C7803A49114011B1860500F18581AC
:1021A4000DB0F0BD38491140002931D08105E9D581
:1021B400616CC9B21961304929400029E5D133491C
:1021C4001140002964D0450562D52D4911400029EC
:1021D40062D194F83D20222AE2D1628D92B2032A80
:1021E4003ED8023A012AE26A40F21082022A1A68B0
:1021F400616A14BF22F4806242F480621A605A68F1
:1022040022F4E0625A601B694A1C62620B7074E03B
:10221400184E1640002EB5D08705B3D594F83E600D
:10222400D4F82CE0D4F830C094F83D70F6B2222FE4
:1022340000F086810A9159690A9199690A910A996B
:10224400A0E712491140002940F0A1800C49114037
:102254000029A5D08205A3D5628D92B2002A9FD011
:10226400626A1B69511C61621370638D013B9BB2EE
:10227400638595E70200010004001000800001005E
:1022840004000100100001000800010040000100EA
:10229400A9491140002983D0800581D5E16A628D66
:1022A40092B2032A00F06F81628D92B2022AD7D1D2
:1022B400042900F08381082900F0808111F5803F12
:1022C40000F07C811A68022914BF22F4806242F46F
:1022D40080621A605A6822F440725A60626A1B690A
:1022E400511C61621370638D2268013B9BB263854C
:1022F400636A1269591C61621A70638D0022013B82
:102304009BB22021638584F83D10226394F83E300B
:102314002046402B84F83E2000F07581FFF7DEFD57
:102324003EE747057FF536AF8349114000297FF426
:1023340034AF94F83D20258D94F83E10D2B2C9B242
:10234400E06A002D40F03681212A00F06F81402997
:102354007FF426AF222A7FF423AF628D92B2002A43
:1023640000F05F8194F83E20402A7FF496AE226DFF
:10237400002A40F0E581E26C012AA26C00F02D8273
:10238400C2F307221A61236D0133236508E741056F
:102394007FF55CAF6849114000297FF45BAF94F886
:1023A4003D10628DC9B292B2002A3FF4F9AE626A5E
:1023B4001B69501C60621370638D013B9BB2638583
:1023C400638D9BB2002B7FF4EBAE2A297FF4E8AE39
:1023D400226822255368282123F480635360204611
:1023E400256384F83D10FFF77DFDD9E645057FF5AB
:1023F40047AE5149114000297FF447AE94F83D108F
:10240400628DC9B292B2002A3FF4CAAE626A501C0D
:10241400606212781A61628D013A92B26285628DAD
:1024240092B2002A7FF4BCAE29297FF4B9AE5A686F
:10243400212522F4806228215A602046256384F8ED
:102444003D10FFF74DFDABE694F83E10402957D000
:102454002169B1F5804F1CD0216D002964D0216D14
:1024640001297FF48FAE616C01F44071C91141F010
:10247400F101196186E699699B6981F004011F06DF
:10248400C1F3800154BFA289228B2046FFF72CFDA3
:1024940086E694F83D102129616C16BF41F00101D4
:1024A40001F0FE01C9B219616CE6E16A94F83D20BD
:1024B400212A7FF475AE628D92B2002A7FF4EDADCD
:1024C400042905D0082903D011F5803F40F0CE80BF
:1024D4005A68002122F4E0625A601A68202042F40B
:1024E40000721A60216384F83D0094F83E3020465F
:1024F400402B84F83E1000F0B680FFF7EDFC4FE669
:10250400216D002950D1616C01F0FE01196139E699
:102514000A492022E1622046236384F83D2084F89E
:102524003E30FFF7E3FC3BE6616C01F44071C911F6
:1025340041F0F001196125E6040001000000FFFFED
:10254400216D11B9402E00F0BB80266D26B921699A
:10255400B1F5404F00F0BB80618D89B2002936D1BE
:10256400029159690291996902910299196841F499
:10257400007119600021216504E6A16B09684968AE
:1025840089B26185BFE5042905D0082903D011F576
:10259400803F7FF465AE1A6822F480621A605FE6B9
:1025A4002046FFF7ADFCFBE5616C41F00101C9B2C7
:1025B4001961E7E5212A7FF4CAAECEE65A6822F40F
:1025C40040725A601A6842F400721A6086E6618D9D
:1025D40089B2012957D0618D89B2022900F0858022
:1025E400196841F4806119605968090503D559686F
:1025F40041F48051596000210991596909919969FF
:1026040009910999B6E7FFF775FCC9E5022A1A682A
:1026140000F0D48022F480621A601A6842F40062E6
:102624001A605A6822F480625A60B9E5042805D019
:10263400082803D010F5803F40F0938059680022A9
:1026440021F4E06159601968202041F40071196097
:10265400226384F83D0094F83E302046402B84F8F1
:102664003E207FF44AAFFFF743FC99E559681126F1
:1026740021F4E061202559602046266384F83E2039
:1026840084F83D5039E71EF5803F79D0BEF1040F40
:1026940046D0BEF1080F43D0BCF1120F40D0E16A1E
:1026A4000229196814BF21F4806141F48061196022
:1026B400002105915969059199690591059959E791
:1026C4000091596900919969009100995AE5019620
:1026D40059690191996901910199196841F48071CD
:1026E4001960216D013121654CE5E16A002602295A
:1026F400196859D041F40061196007965969079126
:10270400996907910799196821F4806119605968DA
:102714000E057FF52FAF596841F48051596029E7C0
:102724001968002621F4806119600696596906919A
:10273400996906910699196841F40071196019E7BD
:10274400226D012A4FD0226D022A7FF429AD94F81C
:102754003D20222A4ED094F83D20212A7FF420AD3A
:102764009BE45A68112622F4E06220215A60204634
:10277400266384F83E5084F83D10FFF7ADFB0FE567
:10278400196821F480611960596811F4006119D045
:102794001968002621F48061196003965969039130
:1027A400996903910399E5E641F4806119600896FB
:1027B40059690891996908910899A8E742F48062D7
:1027C4001A602EE704915969049199690491049956
:1027D400196841F400711960CCE6D2B21A61236D14
:1027E40002332365DCE4A26CD2B21A61236D013397
:1027F4002365D5E41A6842F480721A60D0E400BFFD
:10280400406A38B5026800231168456B21F4806181
:10281400846B1160438590F83D106B6360294FF021
:102824002001636380F83D1080F83E3006D01368C1
:1028340023F001031360FFF75FFB38BD03641368E3
:1028440023F001031360FFF759FB38BD2DE9F0476E
:1028540081460568C0682C69D9F8106024F4405496
:1028640020432861EB68D9F80810D9F814203143C3
:1028740023F4B0530A4323F00C031343EB606A6957
:10288400D9F81830584922F4407213438D426B61D1
:1028940059D000F00FFDD9F8044000EB800000EBA4
:1028A4008000A400B0FBF4F400F004FDDFF83C81E8
:1028B400D9F8042000EB8000A8FB043400EB80006E
:1028C4009300B0FBF3F600F0F5FCD9F8042000EB1C
:1028D4008000920000EB8000B0FBF2F0A8FB003017
:1028E4006427400907FB10631B013233A8FB032351
:1028F4005B0903F0F00600F0DDFCD9F8043000EBCE
:1029040080009A0000EB8000B0FBF2FA00F0D2FCE9
:10291400D9F8042000EB8000920000EB8000B0FBAB
:10292400F2F0A8FB0030400907FB10A2640924015F
:1029340012013232A8FB0232C2F34312B318234409
:10294400AB60BDE8F08700F0C5FCD9F8044000EBAB
:10295400800000EB8000A400B0FBF4F400F0BAFCAB
:10296400DFF88880D9F8042000EB8000A8FB043449
:1029740000EB80009300B0FBF3F600F0ABFCD9F859
:10298400042000EB8000920000EB8000B0FBF2F02A
:10299400A8FB00306427430907FB13631B01323390
:1029A400A8FB03235B0903F0F00600F093FCD9F8BD
:1029B400043000EB80009A0000EB8000B0FBF2FAD8
:1029C40000F088FCD9F8041000EB800000EB8000D4
:1029D4008900B0FBF1F1A8FB013164094909240124
:1029E40007FB11A2A4E700BF003801401F85EB518B
:1029F400F8B506460C4617461D46316801E06B1CC7
:102A040005D1086820408442F9D10020F8BD2DB1D9
:102A140000F0D8F8C01B8542EFD23168CB68202281
:102A240023F4D073CB604B69002423F001034B6182
:102A3400032086F8392086F8384086F83A20F8BD15
:102A440060B338B590F83930044603F0FF0203B39D
:102A54002268242384F83930D368204623F40053B1
:102A6400D360FFF7F3FE236800251A69202122F4BE
:102A740090421A615A69284622F02A025A61DA6899
:102A840042F40052DA60E56384F8391084F83A10AD
:102A940038BD80F83820FEF7C1F9D9E70120704726
:102AA400F0B5044690F8390083B0202802D0022003
:102AB40003B0F0BD0D46002939D0002A37D01F4697
:102AC40094F83830012BF2D0002001212123E06357
:102AD40084F8381084F83930019200F073F806460F
:102AE400019AA284E284E38C80219BB2B3B1E38C8B
:102AF400A268013B9BB2B2F5805FE384204618D004
:102B040032463B46FFF774FF78B923682A78802160
:102B14005A60E38C01359BB2002BE8D132463B4628
:102B240020464021FFF764FFA8B10320C0E701203D
:102B3400BEE7802132463B46FFF75AFF0028F4D116
:102B44002B8821682269C3F308034B600AB9023554
:102B5400C9E70135C7E7202384F8380084F8393001
:102B6400A6E700BF10B50446074B08481B68A0FB46
:102B74000330800900F07EFD21464FF0FF30002233
:102B840000F02AFD002010BD00000020D34D62108B
:102B9400074A08B51368032043F01003136000F0DC
:102BA40009FD0020FFF7DEFFFEF774F8002008BDE2
:102BB40000200240024A136801331360704700BFCB
:102BC40044040020014B1868704700BF44040020EF
:102BD40030B583B00190FFF7F5FF0546019C631CF7
:102BE40018BF0134FFF7EEFF401BA042FAD303B035
:102BF40030BD00BF2DE9F041036882B0DD07044613
:102C040030D5AC494A6802F00C02042A00F03C8139
:102C14004A6802F00C02082A00F03281A368B3F576
:102C2400803F00F0A381002B00F06081B3F5A02F5A
:102C340000F00E829F4B1A6822F480321A601A68E0
:102C440022F480221A60FFF7BDFF9A4D064605E084
:102C5400FFF7B8FF801B642800F273812B689A0386
:102C6400F6D523689F0729D5924A516811F00C0FB5
:102C740000F0EB80516801F00C01082900F0E180BC
:102C84006369002B00F061818B4B01221A60FFF70E
:102C940099FF884D064605E0FFF794FF801B022844
:102CA40000F24F812B68834A9807F5D51368A16910
:102CB40023F0F80343EAC103136023681A0700F101
:102CC4009D805E0730D57B4BDA69D50040F1E68004
:102CD40000257A4B1A68D00540F122812369012B23
:102CE40000F07E81002B40F05C8103F1804303F50A
:102CF40004331A6A1E4622F001021A621A6A41F269
:102D0400883822F004021A62FFF75CFF074605E0E8
:102D1400FFF758FFC01B404500F21381336A9B073D
:102D2400F6D4002D40F06281E36A002B45D0614A5D
:102D34005168C80305D5516801F00C01082900F059
:102D44009481022B40F018815A4B1A68D20005D5A1
:102D5400DB6A626B03F0F00393427DD1584B00228F
:102D64001A60FFF72FFF534D064605E0FFF72AFFD1
:102D7400801B642800F2E5802B684E4A1B01F5D4C1
:102D8400D16A636B21F0F0010B43D362D16A236BE8
:102D940021F470614A480B430121D3620160154656
:102DA400FFF710FF064605E0FFF70CFF801B6428C1
:102DB40000F2C7802B681F01F6D5226AD2B13D4BC1
:102DC400596801F00C01082946D0022A3D4A4FF007
:102DD4000001116000F010811C46FFF7F3FE054668
:102DE40005E0FFF7EFFE401B022800F2AA802368EB
:102DF4009B01F6D4002002B0BDE8F081E369002B0A
:102E04002ED0314B01221A60FFF7DCFE294D064615
:102E140005E0FFF7D7FE801B022800F292806B6A60
:102E24009B07F6D5294B2A4A1B68A2FB03235B0A9E
:102E3400019300BF019B5A1E0192002BF9D1236814
:102E44003FE75268D6033FF51BAF1A4A126895074D
:102E540040D56269012A3DD0012002B0BDE8F0816D
:102E6400194A144D1360FFF7ADFE064604E0FFF760
:102E7400A9FE801B022864D86B6A9F07F7D4DEE79B
:102E84004A68D0037FF5CAAE0A4A126891037FF5F7
:102E9400E9AEA268002A7FF4E5AEDDE7DA69012530
:102EA40042F08052DA61DB6903F080530093009BA7
:102EB4000FE700BF001002400000424200700040D3
:102EC4006800424260004242800442420000002006
:102ED400D34D62107149A0690A6822F0F80242EAEF
:102EE400C0020A601A077FF5ECAE87E703F180435E
:102EF40003F504331A681D4622F480321A601A68F6
:102F040022F480221A60FFF75DFE064604E0FFF714
:102F140059FE801B642814D82B689B03F7D4A0E6C1
:102F24001A681E4642F480721A60FFF74BFE074689
:102F34003368D9053FF5D2AEFFF744FEC01B6428C1
:102F4400F6D9032002B0BDE8F081554A534D136011
:102F5400FFF738FE064604E0FFF734FE801B022824
:102F6400EFD82B689907F7D42368A7E64B4A136870
:102F740043F48033136066E6484D4A4AEB6A002105
:102F840023F48033EB621160FFF71CFE064604E075
:102F9400FFF718FE801B6428D3D82B681801F7D4D8
:102FA4000BE7052B3D4B1A6A64D022F001021A622A
:102FB4001A6A22F004021A62FFF704FE374E8046B2
:102FC40041F2883705E0FFF7FDFDC8EB0000B84289
:102FD400B7D8336A9A07F6D5002D3FF4A5AE05E0BD
:102FE4002E4A136A43F001031362E5E72B4AD369BF
:102FF40023F08053D36197E61D46FFF7E3FD0646B1
:1030040004E0FFF7DFFD801B02289AD82B68234ACF
:103014009901F6D4606AB0F5803F33D01F4BA16AA2
:103024005A68014322F474121F480A4301215A606A
:1030340001601C46FFF7C6FD054605E0FFF7C2FD2B
:10304400401B02283FF67DAF23689A01F6D5D1E6EE
:1030540003F18043A3F53C331A6842F480221A60DA
:103064001A6842F480321A60EDE5D26AD1033FF562
:10307400F3AE66E642F004021A621A6A42F00102F2
:103084001A6299E7D16A63680B43D362D16AE36831
:1030940021F00F010B43D362C0E700BF00100240D0
:1030A400000042426800424260004242F0B4284EAE
:1030B40088B033466C4630687168B26804AD07C4A2
:1030C40053F8100FB7899A685968DB68214E0FC509
:1030D4002780736803F00C02082A28D108A9C3F3D7
:1030E40083420A44D90312F8202C24D5F36A08A891
:1030F400F16A03F00F03034413F8100CCB0320D53B
:10310400F36A1549C3F303130133B1FBF3F1F36A13
:10311400C3F30323023303FB01F3B3FBF0F002FB1D
:1031240000F09DF80D30934202D1400800E00A48B7
:1031340008B0F0BC7047094800FB02F008B0F0BCCE
:103144007047054BB3FBF0F002FB00F0E9E700BF6A
:10315400CC5500080010024000127A0000093D001E
:103164004D4A2DE9F041136803F007038B420CD25A
:10317400136823F007030B431360136803F007037A
:103184008B4202D00120BDE8F08103689A0706D57E
:10319400424D82686C6824F0F00422436A60DF07C1
:1031A40006460C4622D543683C4A012B12686FD070
:1031B400022B67D09107E5D5384D41F288386A680B
:1031C40022F0030213436B60FFF7FCFC73680746AD
:1031D400012B46D0022B05D14EE0FFF7F3FCC01BB8
:1031E400404552D86B6813F00C0FF6D12A4A136885
:1031F40003F007039C4209D2136823F00703234317
:103204001360136803F00703A342BBD133685A0762
:1032140006D52248F268416821F4E0610A4342601D
:103224001B0707D51D4A3169536823F4605343EAE9
:10323400C1035360FFF73AFF184B19495B68194AF9
:10324400C3F30313CB5C20FA03F300201360FFF7EE
:1032540089FC0020BDE8F081FFF7B4FCC01B4045A9
:1032640013D86B6803F00C03042BF5D1BEE7FFF70A
:10327400A9FCC01B404508D86B6803F00C03082B5D
:10328400F5D1B3E7900197D47CE70320BDE8F08142
:10329400950391D476E700BF00200240001002405D
:1032A400EC55000800000020014B1868704700BF6F
:1032B40000000020044B05495B68054AC3F3022360
:1032C400CB5C1068D840704700100240FC550008E1
:1032D40000000020044B05495B68054AC3F3C22380
:1032E400CB5C1068D840704700100240FC550008C1
:1032F400000000202DE9F04F4FF0000883B0434652
:10330400DFF8C0E1694EDFF8C0C102E00133102BE1
:103314007CD001220C689A4014409442F6D14A6849
:10332400122A00F0998000F28280022A00F09B8029
:1033340077D9032A00F09480112A02D1CA6802F1D5
:103344000408FF2C65D8824602684FEA830B4FF0CD
:103354000F0909FA0BF522EA050508FA0BF22A43CC
:10336400CAF800204D68EA00D0D5514A504FD2F82F
:1033740018A023F003024AF0010AC7F818A0D7F8EE
:1033840018A002F180420AF0010ACDF804A002F567
:10339400803203F0030ADDF804B04FEA8A0AD2F857
:1033A40008B009FA0AF970452BEA090B70D0604598
:1033B40071D0404FB84273D03F4FB8420CBF4FF06A
:1033C40003094FF0040909FA0AF949EA0B09C2F89A
:1033D40008903268EF034CBF2243A2433260726804
:1033E400AF034CBF2243A2437260B268EF024CBFEA
:1033F4002243A243B260F268AD0203F101034CBF61
:10340400144322EA0404102BF46082D103B0BDE813
:10341400F08FA3F1080B42684FEA8B0B00F1040A0A
:1034240095E7A2B1012A8CD1D1F80C8089E7234D0C
:10343400AA420CD01BD9224DAA4208D005F58035EA
:10344400AA4204D0A5F58015AA427FF47AAF8A680F
:10345400BAB94FF0040874E7CA6802F10C0870E7BF
:103464004FF000086DE7CA6802F1080869E7A5F59E
:103474008015AA42EBD005F58035AA427FF461AFEE
:10348400E5E7012A0CBF046144614FF0080858E7DE
:103494004FF0000999E74FF0010909FA0AF994E796
:1034A4004FF0020909FA0AF98FE700BF000401404E
:1034B40000100240001001400014014000002110DF
:1034C4000000311000080140000C014002B9090459
:1034D4000161704790F82130022B03D004238363E9
:1034E40001207047036810B51A682D4922F00E02B6
:1034F4001A601A688B4222F001021A6012D9294A12
:10350400934246D01432934245D01432934244D06D
:10351400143293420CBF4FF480534FF48033224A49
:1035240053601BE0214A934215D01432934225D0B4
:103534001432934224D01432934224D0143293424E
:1035440019D01432934221D08B420CBF4FF08073B8
:103554004FF4803300E00123154A5360436B01228A
:10356400002480F8212080F8204013B19847204699
:1035740010BD184610BD4FF48033EDE71023EBE780
:103584004FF48073E8E74FF48053E5E74FF480137A
:10359400E2E70123C3E71023C1E74FF48073BEE7DA
:1035A4008000024008040240000402400800024077
:1035B400000002404FF6FF02064900F00700CB6806
:1035C4001A4042F0BF6343F4003343EA0023CB6064
:1035D400704700BF00ED00E0184B30B4DB68C3F364
:1035E4000223C3F10705042D03F1040428BF0425B5
:1035F400062C17D9033B01249C40013C22400124A2
:10360400AC40013C21409940002842EA01020CDB15
:10361400120100F16040D2B200F5614080F800234D
:1036240030BC704700221346E9E7054B00F00F0059
:103634001201D2B203441A7630BC704700ED00E0A8
:10364400FCEC00E000F01F010123034A40098B4019
:1036540042F82030704700BF00E100E04309012236
:1036640000F01F0002492033824041F823207047B4
:1036740000E100E00138B0F1807F0DD230B4074B97
:10368400074CF0255860002284F823500721104687
:1036940030BC9A60196070470120704710E000E068
:1036A40000ED00E0044A042813680CBF43F004034F
:1036B40023F004031360704710E000E0704700BF7C
:1036C40008B5FFF7FBFF08BD134B30B41968134A64
:1036D40041F001011960596811480A405A601A689A
:1036E4004FF47F0522F0847222F480321A601A6843
:1036F400002422F480221A605A684FF0006122F4F8
:10370400FE025A601A6822F0A0521A609D60DC62C0
:10371400816030BC704700BF001002400000FFF021
:1037240000ED00E0704700BF38B51C4B1C491C6815
:103734001C4B426BA0420CBF0C461C46637811889C
:1037440003EB430304EB830359806378157C03EB99
:10375400430304EB83031D71002265B16378416B5D
:1037640003EB4303114402EB8303097D0132234439
:10377400AA425971F2D1637800210133DBB263703C
:10378400637803F00F036370FDF716FD00B938BDCD
:1037940002200121BDE8384000F000BB54040020A1
:1037A40014010020D801002008B5026C064B00214A
:1037B4001A60FDF701FD00B908BD03200121BDE831
:1037C400084000F0EBBA00BF10010020024A034B8E
:1037D40010701960704700BF0C0100200801002020
:1037E400F0B5634A634C002323708BB0637013708D
:1037F4005370D8B1604E614C3368614A1C635A639C
:10380400B1B9022804460D461CD001285BD0012D15
:1038140057D0002C39D135B15A4B00211868FDF727
:10382400CBFC00283FD100200BB0F0BD0029FAD01A
:10383400544B554C1B68554A02281C635A63044672
:103844000D46E2D1524E3368002B00F08B80514F6D
:103854003A78042A7DD8002A4DD1474E012D15D13E
:1038640000230E27012230686946059709970693BD
:103874000093019302930393049307920892FDF734
:10388400FBFAB8B9002CC7D000E03B4E30680021E9
:10389400FDF792FC0028BED03F48AB21FDF7C2F9EA
:1038A400002DB9D1BFE73C48AE21FDF7BBF900209C
:1038B4000BB0F0BD38488421FDF7B4F9002CABD02F
:1038C400E4E72D4ECCE72C4E00230E2230686946E7
:1038D400079408940593069300930193029303932A
:1038E40004930992FDF7C8FA0028B7D02A48712139
:1038F400FDF798F9B2E730680126038800215B01DF
:103904009BB20E27B242009305910791049106964B
:103914000896099723D94388022A4FEA43139BB296
:1039240001931DD08388032A4FEA43139BB2029369
:1039340002D0C3885B019BB20F4E69463068039383
:10394400FDF79AFA002889D013486021FDF76AF937
:1039540084E711484321FDF765F93A787BE7019341
:103964000293E9E70C48A121FDF75CF96FE700BF7A
:10397400D80100201401002054040020D0000020AD
:103984008800002050040020EC000020AC0000203F
:10399400080100200C0100200456000870B5026BD9
:1039A4000646088800231060D3609360887810610D
:1039B400887850B18C1C00E0326B14F8015F1A4413
:1039C40015758A7801339A42F6DC0B4C20688642DE
:1039D4000CBF14204020FFF741FE00BF3046FDF726
:1039E40053FB0546206886420CBF14204020FFF795
:1039F40029FE284670BD00BF540400200E4B10B4AD
:103A04000E4A1C680E490F4B84420CBF10460846F0
:103A1400427801781032521A1340002B03DB184607
:103A24005DF8044B7047013B63F00F030133184604
:103A34005DF8044B704700BF5404002014010020BB
:103A4400D80100200F000080F8B5274E3368984253
:103A540034D0264C264B627824781032121B134043
:103A6400002B26DB002B3CDD204C40230746184668
:103A74000D46FFF7F3FD00BF2378306803EB4303E3
:103A840004EB830353F8021F87420CBF1420402029
:103A94005A689B682960AB606A60FFF7D3FD23789E
:103AA40000200133DBB22370237803F00F0323706B
:103AB400F8BD013B63F00F030133D3E70D4C0C4B0E
:103AC400627824781032121B1340002B04DB002B85
:103AD40007DD084C1423C9E7013B63F00F030133EE
:103AE400F5E74FF0FF30F8BD54040020D801002062
:103AF4000F000080140100202DE9F0010C460A4F4C
:103B0400DFF83080094E0A4D3A60DFF82CC01146C8
:103B1400059AA8F800008CF80040204632602B700B
:103B2400BDE8F001FFF752BE4C030020480300201B
:103B340051030020A002002050030020024B00206B
:103B440018705870704700BFA4020020C378072B78
:103B540020D810B5104A8478118884B05A1C41F4D6
:103B64008061ADF804108DF807408DF8062053B13C
:103B7400033303440DF10702033010F8011F984288
:103B840002F8011FF9D1054B01A91868FFF706FFD8
:103B940004B010BD01207047A0020020540400208E
:103BA4002DE9F04784B0FFF70DF8524D04462B6819
:103BB400C31AB3F57A7F63D84F4C504E2546B046AE
:103BC40000272068FFF71AFF002855D001A92868AC
:103BD400FFF73AFF0028F4D19DF806E0BEF1000F8C
:103BE400EFD0474BBDF804C019789DF80790002921
:103BF400E7D0444B1B6803EB410133F8022B944597
:103C040008BF01208B42F8D10028DAD03E4B197846
:103C14000029D6D03D4B00221B6803EB010A13F8A0
:103C2400011B894508BF02465345F8D1002AC8D074
:103C340071780EF1FF3301EB81025200B018DBB250
:103C4400A0F802C080F8049043715BB101A805326A
:103C540004330344424402A810F8017B984202F85A
:103C6400017FF9D1013101F00F0120687170012742
:103C7400FFF7C4FE0028A9D1384604B0BDE8F08798
:103C8400234B244EA3FB0023234972793779B0795F
:103C94000988D2009B0942EA871296F807800243FA
:103CA4004FEAD10C4FEA134AC3F3072949014FF0F5
:103CB4000E0E072701A82C608DF80D2033608DF8B7
:103CC4000C308DF80E808DF80AA08DF80B908DF8CD
:103CD40008C08DF809108DF806E08DF80770FFF71D
:103CE40035FF00283FF468AF0220012100F056F8A8
:103CF40062E700BF9C02002054040020A4020020BC
:103D0400500300204C0300205103002048030020EE
:103D1400D34D621048040020A0020020074A08483E
:103D24005378127810339B1A1840002800DB704730
:103D3400013860F00F000130704700BFA40200207A
:103D44000F00008030B4134C134A6178237810318B
:103D5400C91A0A40002A014614DB002A17DD03EBC6
:103D6400830304EB430353F8022F00205D680A60C9
:103D740022784D601D89531C03F00F030D812370BD
:103D840030BC7047013A62F00F020132E5E74FF0B0
:103D9400FF30F5E7A40200200F00008001280CD0BA
:103DA400022811D0032800D07047B1FA81F20A48E2
:103DB40052094FF48071FFF789BBB1FA81F20648CA
:103DC40052094021FFF782BBB1FA81F2024852093D
:103DD4008021FFF77BBB00BF0010014030B50D46CA
:103DE400064C85B04100206864248DE80C000294E0
:103DF4002A460123FDF78AFE05B030BDB803002032
:103E040030B50D46064C85B04100206864248DE829
:103E14000C0002942A460123FDF716FF05B030BDBD
:103E2400B8030020FEF7D4BE08B5044B92B218685C
:103E34004FF47A73FEF734FE002008BDFC03002023
:103E44002DE9F041012092B00021FFF7A7FF0220E5
:103E54000021FFF7A3FF03200021FFF79FFF4FF48A
:103E6400FA70FEF7B5FE0124E0B201210C44FFF71D
:103E740095FF6420FEF7ACFE042CF5D10324E0B2D8
:103E84000021FFF78BFF6420FEF7A2FE013CF6D170
:103E9400DFF818820125642605AF774800F09EFC00
:103EA400D8F800002B46009701950296502122462F
:103EB4008DF814408DF815408DF816408DF8174094
:103EC4008DF81840FDF7C0FE0DF11501D8F800007B
:103ED4002A462B460195029600915021FDF7B4FE27
:103EE4000DF11602D8F800002B46019502960092B7
:103EF40050210222FDF7A8FE9DF814109DF815200C
:103F04009DF816305D4800F0D9FB0322D8F8000074
:103F14002B4600970296019250212246584E8DF866
:103F240014408DF815408DF81640FDF78DFE9DF870
:103F340014109DF815209DF81630524800F0BEFB71
:103F4400514F524A52492823304672617372F760C6
:103F5400316100F0ADF831784E4800F0AFFB2046F7
:103F640000F034FB072000F01FFA4FF4FA70FEF75C
:103F74002FFE07A800F040F9BDF91C10BDF91E2062
:103F8400BDF92030444800F099FB0C2000F00CFAF5
:103F9400424A2B46294600924FF4C870404AFFF724
:103FA400ABFD21460220FFF71BFCFFF7C7FDFEF720
:103FB40009FE3C4E05464FF06A08062706E0FEF768
:103FC40001FE3368421B9A42044614D8FFF7E8FD09
:103FD400FFF7A4FE0028F2D009A8FFF7B3FE9DF86E
:103FE4002630642BEBD19DF828209DF8293043EA34
:103FF40002233360E3E70CA800F0A2FADDE9100124
:104004000022294B8DF826808DF82770FCF7F2FAF0
:10401400FCF702FD85B245F3072E0022224BDDE9B1
:104024000E018DF828E08DF82950FCF7E3FAFCF72F
:10403400F3FC85B245F3072E00221B4BDDE90C018E
:104044008DF82AE08DF82B50FCF7D4FAFCF7E4FC49
:1040540083B243F3072209A88DF82D308DF82C2064
:10406400FFF774FD08B92546B0E702200121FFF7E8
:1040740095FE2546AAE700BF2C56000834560008D2
:10408400580400204C560008E13D0008293E000871
:10409400053E000864560008745600088856000857
:1040A400105600080400002000002440B80300203B
:1040B400F0B5044683B03A4D0026C7688DF8026017
:1040C4008DF803608DF804608DF805600DF103022E
:1040D40007210123407A2C60B8472B6831460DF143
:1040E40002021E690446587A0123B0472B689DF8E2
:1040F400022001211A701E690DF102020444587A4B
:104104000B46B0472B689DF80220E4B25A711E6931
:104114000DF1020204440221587A0123B0472B68AE
:104124009DF80220E4B29A711E690DF10202044462
:104134000321587A0123B0472B689DF80220E4B28A
:10414400DA711E690DF1020204440621587A012332
:10415400B0472B689DF802200421E4B21A721E694C
:104164000DEB01020444587A0223B0479DF8051070
:104174009DF804202B6842EA0121E4B20DF1020209
:1041840059801E6904440721587A0123B047E4B2D8
:104194002B689DF80220204440B21A7103B0F0BD90
:1041A4005403002070B5134C82B0236800228DF8AC
:1041B4000720EBB106461D69587A0DF10702072165
:1041C4000123A84718B1FF2040B202B070BD236894
:1041D4008DF80760DD68587A0DF107020721012385
:1041E400A8470028F0D1236840B21E7102B070BD08
:1041F4008120E9E754030020F0B51F4D83B02A68FD
:1042040000238DF800308DF801308DF802308DF8E0
:1042140003308DF804308DF805305AB31179044613
:10422400E9B91569507A08216A460623A8479DF919
:1042340001709DF800109DF903609DF802209DF91E
:1042440005509DF8043041EA072142EA062243EA78
:10425400052321806280A38040B203B0F0BD1846DC
:10426400FFF7A0FF2A680028DBD01379FF20002B7A
:10427400F2D1D6E78120EFE754030020F0B51F4DBB
:1042840083B02A6800238DF800308DF801308DF852
:1042940002308DF803308DF804308DF805305AB3B0
:1042A40011790446E9B91569507A1A216A46062338
:1042B400A8479DF901709DF800109DF903609DF8D1
:1042C40002209DF905509DF8043041EA072142EA95
:1042D400062243EA052321806280A38040B203B012
:1042E400F0BD1846FFF75EFF2A680028DBD013797B
:1042F400FF20002BF2D1D6E78120EFE75403002002
:1043040030B5134C83B0236800228DF80720E3B145
:104314001979054671B91C69587A3B2101230DF1BD
:104324000702A0479DF80730C3F380032B7040B207
:1043340003B030BD1046FFF735FF23680028EAD0EC
:104344001A79FF20002AF2D1E5E78120EFE700BFC8
:104354005403002030B5134C83B0236800228DF839
:104364000720E3B11979054671B91C69587A3D21D2
:1043740001230DF10702A0479DF8073003F00F0356
:104384002B7040B203B030BD1046FFF70BFF23681B
:104394000028EAD01A79FF20002AF2D1E5E781202B
:1043A400EFE700BF5403002070B53E4E82B0326880
:1043B40000238DF806308DF80730002A6FD00546AB
:1043C4000DF10700FFF7C6FF80B99DF807308BB9E0
:1043D40033680DF106021C69587A3D210123A04778
:1043E400002842D0044660B202B070BDFF2460B21F
:1043F40002B070BD33680DF106021C69587A3D2184
:104404000123A0470446A0B99DF80620336822F092
:104414000F028DF80620002B3FD0DC68587A3D212E
:1044240001230DF10602A047044633685B6914209A
:104434009847002DDBD033683D211C69587A0DF173
:1044440006020123A047174E0028CBD19DF8063061
:1044540005F00F0023F00F05336828438DF806009C
:104464000DF10602DC68587A0DE09DF806303168DB
:1044740005F00F0023F00F0318438DF80600CC68F5
:10448400487A0DF106023D210123A0473368044612
:104494005B694FF416709847A9E78124C6E7812425
:1044A400A5E700BF5403002030B5244C83B0226834
:1044B40000238DF806308DF80730002A3CD00546DD
:1044C4000DF10700FFF746FF38B1FF249DF8070000
:1044D40030BB204640B203B030BD9DF8073033BB3B
:1044E40023680DF106021C69587A3B210123A04779
:1044F400124B04460028E9D19DF80620A80019684B
:1045040000F0040022F004031843CC688DF8060080
:104514000DF10602487A01233B21A0470446D5E762
:10452400FFF742FF2044C0B240B203B030BDFFF7F2
:104534003BFF0028C9D1D3E78120CBE754030020F7
:1045440070B584B004AB002403F8094D0646184640
:10455400ADF80840ADF80A40ADF80C40FFF7D0FEC6
:104564009DF8073005462BBB55BB02A8FFF786FE16
:1045740030BBBDF90800FBF7D7FF0022124BFCF754
:1045840039F8C6E90001BDF90C00FBF7CDFF0022A4
:104594000D4BFCF72FF8C6E90401BDF90A00FBF73F
:1045A400C3FF0022084BFCF725F8C6E9020168B2F4
:1045B40004B070BD2046FFF777FF2844C5B2D3E7A7
:1045C400FF2568B204B070BD0000B03F30B5244C84
:1045D40083B0226800238DF806308DF80730002A56
:1045E4003BD005460DF10700FFF7B4FE38B1FF24B8
:1045F4009DF8070028BB204640B203B030BD9DF8AB
:1046040007302BBB23680DF106021C69587A3E2142
:104614000123A047124B04460028E9D19DF8062047
:104624001B6805F0030022F003052843DC688DF8BD
:1046340006000DF10602587A3E210123A0470446E4
:10464400D6E7FFF7B1FE2044C0B240B203B030BD9C
:10465400FFF7AAFE0028CAD1D4E78120CCE700BF27
:1046640054030020002103E00A4B5B5843500431FB
:1046740009480A4B42189A42F6D3094A02E0002339
:1046840042F8043B074B9A42F9D3FFF71DF8FCF7B5
:104694002BFA70472C570008000000206C00002003
:1046A4006C00002074040020FEE703460244934299
:1046B40002D003F8011BFAE7704700000FB40A4B5D
:1046C40013B51C6824B1A36913B9204600F03CFA61
:1046D40005AB2046A168049A019300F0CBFB02B01D
:1046E400BDE8104004B070476800002070B50E4665
:1046F400054618B183690BB900F026FAAB69AC68BA
:1047040013B9284600F020FA314B9C4201D16C6861
:1047140008E0304B9C4201D1AC6803E02E4B9C4234
:1047240008BFEC68A389190701D5236983B9284612
:10473400214600F0AFF858B14FF0FF3070BD002BA8
:104744000EDB236816F8012C1A70236801332360EA
:10475400A36816F8012B013BA360002AEFD116E0F1
:10476400A269934209DB236816F8012C1A702368A6
:1047740019780A29EAD1284602E0284616F8011CCD
:10478400224600F033F8421C50425041D3E7002B3C
:1047940015DAA269934208DB23680A221A70236897
:1047A400197891420FD1284601E028460A21224671
:1047B40000F01CF8431C5842584130B1BCE7236850
:1047C4000A221A702368013323600A2070BD00BFD7
:1047D40090560008B0560008D0560008024B014617
:1047E4001868FFF783BF00BF6800002070B50D464E
:1047F4001446064618B183690BB900F0A5F9224B9B
:104804009C4201D1746808E0204B9C4201D1B468F9
:1048140003E01F4B9C4208BFF468A369A360A3890B
:104824001A0709D523693BB123682069EDB2181A28
:10483400636998420FDB08E03046214600F02AF80D
:104844000028F1D04FF0FF3070BD3046214600F013
:1048540011F90028F6D1A3680130013BA360236855
:104864005A1C22601D706369984204D0A389DB0737
:1048740007D50A2D05D13046214600F0FBF8002863
:10488400E0D1284670BD00BF90560008B05600081D
:10489400D0560008314B70B51D6806460C4625B14C
:1048A400AB6913B9284600F04FF92D4B9C4201D156
:1048B4006C6808E02B4B9C4201D1AC6803E02A4BA6
:1048C4009C4208BFEC68A3899AB211071DD4D5068F
:1048D40002D40922326038E0500712D5616B41B12D
:1048E40004F14403994202D0304600F001FA002357
:1048F4006363A38923F02403A381002363602369F2
:104904002360A38943F00803A38123694BB9A389D6
:1049140003F42073B3F5007F03D03046214600F042
:104924009BF9A38913F0010205D00022A2606269F9
:104934005242A26103E0990758BF6269A2602269EA
:104944004AB903F0800080B230B143F04003A38140
:104954004FF0FF3070BD002070BD00BF6800002024
:1049640090560008B0560008D05600088A892DE9F0
:10497400F041054610070C4657D44B68002B02DC67
:104984000B6C002B18DDE66AB6B102F480520023EA
:1049940092B22F682B600AB1626D10E0216A28463A
:1049A4000123B047411C024609D12B683BB11D2BA2
:1049B40001D0162B46D12F600020BDE8F081A389D9
:1049C4005B0705D56368D21A636B0BB1236CD21AEB
:1049D400E66A00232846216AB047461CA38905D10C
:1049E4002A681AB11D2A01D0162A19D10022626040
:1049F4002269D904226004D5421C01D12B6803B971
:104A04006065616B2F600029D6D004F1440399429C
:104A140002D0284600F06CF900206063BDE8F08104
:104A240043F04003A381BDE8F0810F69002FC3D098
:104A340093070E680CBF4B690023C7EB06080F6091
:104A44008B6012E0A3894FF0FF3043F04003A38151
:104A5400BDE8F0812846216A3A464346A66AB04733
:104A64000028EFDD0744C0EB0808B8F1000FF1DCC3
:104A7400A2E7000038B50B6905460C46DBB118B156
:104A840083690BB900F060F80C4B9C4201D16C684F
:104A940008E00B4B9C4201D1AC6803E0094B9C42FB
:104AA40008BFEC68B4F90C302BB128462146BDE8A8
:104AB4003840FFF75BBF002038BD00BF90560008A8
:104AC400B0560008D0560008014900F0A7B800BF4E
:104AD400794A000810B504460023036043608360EC
:104AE40081814366C28103614361836119465C30FD
:104AF4000822FFF7DAFD054B24626362044BA362CC
:104B0400044BE362044B236310BD00BFD55300087C
:104B1400F75300082F5400085354000870B5682355
:104B24004D1E5D430E4605F1740100F025F904465F
:104B340040B1002180E842000C30A06005F1680219
:104B4400FFF7B3FD204670BD836910B5044633BB3F
:104B54008364C3640365124B124A1B6882629842E1
:104B640004BF0123836100F01FF86060204600F059
:104B74001BF8A060204600F017F80421E060002232
:104B84006068FFF7A7FFA06809210122FFF7A2FFD1
:104B9400E06812210222FFF79DFF0123A36110BDEB
:104BA4008C560008CD4A0008F8B51B4B07461E6812
:104BB400B36913B93046FFF7C7FF4836B468736862
:104BC400013B04D4B4F90C5075B16834F8E7336888
:104BD4002BB938460421FFF7A1FF306008B13668CD
:104BE400ECE70C233B60F8BD4FF6FF73E381012330
:104BF400A38165662560A560656025616561A56121
:104C040004F15C0029460822FFF74FFD6563A563A4
:104C1400A564E5642046F8BD8C5600082DE9F843E8
:104C24008046894600F14804002694B1A568676867
:104C3400013F0CD4AB89012B07D9B5F90E300133F0
:104C440003D040462946C84706436835F0E7246840
:104C5400EBE73046BDE8F883F0B58B8991B09D074A
:104C640006460C4625D4B1F90E10002908DAA389AA
:104C7400002513F0800F14BF40274FF480670DE028
:104C840001AA00F00BFC0028F1DB029D4FF48067C1
:104C940005F47045A5F500514D424D413046394665
:104CA40000F06AF860B9A3899A051DD443F00203A1
:104CB400A38104F14703236023610123636113E0AB
:104CC4000A4BB362A389206043F08003A38120616F
:104CD40067614DB13046B4F90E1000F0F1FB18B124
:104CE400A38943F00103A38111B0F0BDCD4A0008AC
:104CF40030B500293CD051F8042C0B1F1D49002A63
:104D0400B8BF9B180A680C4612B95A600B6030BDD4
:104D140093420DD219685818904201BF5A5852183C
:104D24001A60426823605A6030BD994203D80A462B
:104D340051680029F9D1146815199D420AD11B68DC
:104D44002344D0188842136012D1086803441360C6
:104D54004B680CE002D90C23036030BD1C681819A1
:104D6400884201BF08684968001918605960536097
:104D740030BD00BF5C03002070B5CC1C24F00304DC
:104D840008340C2C38BF0C24002C064603DA0C2300
:104D94003360002070BD8C42F9D3204A136810465A
:104DA4001946A1B10A68121B0ED40B2A03D90A6052
:104DB4008B188C501FE08B420BBF5A684A68026004
:104DC4005A6018BF0B4616E00B464968E9E7144DD4
:104DD4002B681BB9304600F0EBFA286030462146B8
:104DE40000F0E6FA421C0346D1D0C51C25F00305A9
:104DF40085420AD11C6003F10B001A1D20F0070044
:104E0400821A0AD05142995070BD3046E91A00F016
:104E1400CFFA0130BBD02B46ECE770BD5C03002019
:104E240058030020936810B5013B002B936009DA06
:104E34009469A34202DBCBB20A2B03D1BDE8104034
:104E4400FFF7D4BC1368581C10601970C8B210BDA9
:104E5400F8B506460F461446D518AC4208D030467D
:104E640014F8011B3A46FFF7DDFF431CF5D100E0BF
:104E74000020F8BD2DE9F0439DB00D469046039304
:104E8400064618B183690BB9FFF75EFE754B9D4268
:104E940001D1756808E0744B9D4201D1B56803E007
:104EA400724B9D4208BFF568AB891C070AD52B6974
:104EB40043B10023099320238DF8293030238DF842
:104EC4002A3041E030462946FFF7E4FC0028F0D0C0
:104ED4004FF0FF30C2E0039A0134111D12680391B0
:104EE400002ABBBF524243F0020307920792B8BFA5
:104EF400049323782E2B7BD0DFF8808121784046E1
:104F0400032200F0FFFA38B1049AC8EB00004023F2
:104F1400834013430493013421785548062204F155
:104F240001088DF8281000F0EDFA002800F08580C3
:104F3400504B002B78D1039B073323F0070308332E
:104F44000393099B3B44099343461C4613F8012BE6
:104F54001AB9B4EB08090ED002E0252AF5D1F8E716
:104F64003046294642464B46FFF772FF013070D067
:104F7400099B4B4409932378002B6AD000234FF0FC
:104F8400FF3204930793059206938DF853301A93D6
:104F940004F101084446DFF8E890217848460522E8
:104FA40000F0B0FA08F10108049B30B1C9EB00002D
:104FB4000122824013430493ECE7D80644BF202225
:104FC4008DF85320190744BF2B228DF853202278E3
:104FD4002A2A80D0234607991C4622780133303A86
:104FE400092A03D80A2000FB0121F5E7079180E78D
:104FF40063782A2B0AD1039B02341A1D1B6803927F
:10500400002BB8BF4FF0FF33059375E7611C0022F6
:105014000C4623780131303B092B03D80A2000FBCE
:105024000232F5E7059267E703AB0093304604A923
:105034002A46114BAFF3008007E003AB00933046E0
:1050440004A92A460C4B00F093F8421C07467FF44F
:1050540078AFAB895B063FF53BAF09981DB0BDE85F
:10506400F08300BF90560008B0560008D0560008E0
:10507400FA56000800000000554E0008F6560008D5
:10508400F05600082DE9F84391461F468A680B69DB
:1050940006469342B8BF1346C9F8003091F843203E
:1050A4000C46DDF8208012B10133C9F800302368C2
:1050B400990642BFD9F800300233C9F80030256898
:1050C40015F006051CD094F843302268003318BF4D
:1050D400012392061FD5E118302081F843005A1CA1
:1050E40094F845102244023382F8431013E030460A
:1050F400394604F119020123C047013007D00135B4
:10510400E368D9F800209B1A9D42F0DBDBE74FF0FF
:10511400FF30BDE8F8833046394604F14302C04706
:105124000130F4D02268D9F80050E36802F0060296
:10513400042A08BF5D1B2269A3680CBF25EAE57534
:1051440000259342C4BF9B1AED184FF00009A945EE
:105154000ADA3046394604F11A020123C047013005
:10516400D5D009F10109F2E70020BDE8F883000079
:105174002DE9FF410C461746227E98466E2A0646C4
:105184000A9B01F1430100F0B08012D8632A23D0B6
:105194000AD8002A00F0BD80582A40F0CC8084F858
:1051A4004520DFF804E257E0642A1ED0692A1CD0A7
:1051B400C1E0732A00F0B18009D86F2A2ED0702A7A
:1051C40040F0B980226842F0200222603FE0752A54
:1051D40024D0782A3BD0AEE01A6804F14205111DB0
:1051E4001960136884F84230A9E020681A6810F046
:1051F400800F02D0101D186008E010F0400F02F17B
:105204000400186002D0B2F9003000E01368002BEB
:105214003EDA2D225B4284F8432039E020681A6884
:1052240010F0800F02D0101D186007E010F0400F3E
:1052340002F10400186001D0138800E01368227E94
:10524400DFF864E16F2A0CBF08220A221CE07822EE
:10525400DFF858E184F845202268186812F0800FBE
:1052640000F104051D6003D1550601D5038800E053
:105274000368D00744BF42F0200222601BB92268B1
:1052840022F0200222601022002084F8430002E071
:10529400DFF814E10A226568002DA8BF2068A56024
:1052A400A4BF20F00400206003B965B10D46B3FB30
:1052B400F2F002FB10331EF8033005F8013D0346FB
:1052C4000028F4D100E00D46082A0BD12368DA0740
:1052D40008D5236962689A42DEBF302305F8013C91
:1052E40005F1FF35491B21612EE025681A6815F088
:1052F400800F606903D0151D1D60136808E015F068
:10530400400F02F104051D60136801D0188000E00D
:105314001860002323610D4616E01A68111D1960F8
:10532400156800212846626800F0ECF808B1401BBB
:105334006060636804E004F1420584F842200123BC
:105344002361002384F84330CDF8008030462146A1
:1053540003AA3B46FFF796FE013002D14FF0FF301F
:105364001FE0304639462A462369C0470130F5D04C
:1053740023689B0705D4E068039B9842B8BF18468E
:105384000FE00025E368039A9B1A9D42F3DA304646
:10539400394604F119020123C0470130DED001353A
:1053A400F0E704B0BDE8F081015700081257000887
:1053B40038B5064C002305460846236000F0EAF899
:1053C400431C02D1236803B12B6038BD7004002054
:1053D40010B50C46B1F90E1000F0A2F80028ABBFCE
:1053E400636DA3891B1823F48053ACBF6365A38149
:1053F40010BD2DE9F0411D468B890746DB050C469F
:10540400164605D5B1F90E100022022300F068F803
:10541400A389384623F48053A381B4F90E1032468D
:105424002B46BDE8F04100F017B810B50C46B1F9B1
:105434000E1000F055F8431CA38915BF606523F4D2
:10544400805343F48053A38118BFA38110BDB1F9E5
:105454000E1000F013B8000038B5074C05460020C4
:105464002060084611461A46FEF7DEFC431C02D1B2
:10547400236803B12B6038BD7004002038B5064C96
:10548400002305460846236000F05CF8431C02D163
:10549400236803B12B6038BD7004002038B5074C75
:1054A4000023054608461146236000F053F8431CC8
:1054B40002D1236803B12B6038BD00BF7004002003
:1054C40038B5064C002305460846236000F04AF828
:1054D400431C02D1236803B12B6038BD7004002043
:1054E40038B5074C054600202060084611461A4688
:1054F40000F040F8431C02D1236803B12B6038BD8F
:105504007004002010B5C9B202449042034605D08D
:105514001C7801308C42F8D1184610BD002010BD13
:1055240038B5074C054600202060084611461A4647
:1055340000F028F8431C02D1236803B12B6038BD66
:1055440070040020024B58221A604FF0FF3070475D
:1055540070040020024B58221A604FF0FF3070474D
:1055640070040020024B58221A600020704700BFCC
:1055740070040020024B58221A604FF0FF3070472D
:1055840070040020024B58221A604FF0FF3070471D
:1055940070040020044A05491368002B08BF0B4619
:1055A40018441060184670476003002078040020F7
:1055B400F8B500BFF8BC08BC9E467047F8B500BFFC
:0855C400F8BC08BC9E467047CC
:1055CC00000004050607080900000000000D00009B
:1055DC000102030405060708090A0B0C0D0E0F1037
:1055EC000000000000000000010203040607080987
:1055FC0000000000010203045372632F63616E2EDE
:10560C00630000009001000065756C65723A2028FB
:10561C0025752C2025752C202575290D0A000000D8
:10562C00746573740D00000049442062206220628E
:10563C0020203A2025642025642025640D0A0000D2
:10564C004944206174206F6E63653A2025642025DF
:10565C00642025640D0A00006C6962726561643A0D
:10566C002025640D0A000000616363656C3A2025F7
:10567C00642C2025642C2025640000006443000069
:10568C0008000020000000000000000000000000E6
:10569C0000000000000000000000000000000000FE
:1056AC0000000000000000000000000000000000EE
:1056BC0000000000000000000000000000000000DE
:1056CC0000000000000000000000000000000000CE
:1056DC0000000000000000000000000000000000BE
:1056EC0000000000232D302B2000686C4C006566F8
:1056FC006745464700303132333435363738394117
:10570C00424344454600303132333435363738392C
:08571C00616263646566000030
:045724005102000826
:04572800290200084A
:10572C0000A24A046400000000000000905600082B
:10573C00B0560008D0560008000000000000000021
:10574C000000000000000000895600080000000066
:10575C00000000000000000000000000000000003D
:10576C00000000000000000000000000000000002D
:10577C00000000000000000000000000000000001D
:0C578C00000000000000000008000020E9
:040000050800466940
:00000001FF
