:020000040800F2
:1000000000000120092B0008890200088D02000869
:100010009102000895020008990200080000000003
:100020000000000000000000000000009D02000829
:10003000A102000800000000A5020008A9020008B3
:100040004D2B00084D2B00084D2B00084D2B0008B0
:100050004D2B00084D2B00084D2B00084D2B0008A0
:10006000B50200084D2B00084D2B00084D2B000851
:100070004D2B00084D2B00084D2B00084D2B000880
:100080004D2B00084D2B0008C1020008D1020008CA
:10009000E1020008F1020008010300084D2B0008EE
:1000A0004D2B00084D2B00084D2B00084D2B000850
:1000B0004D2B00084D2B00084D2B00084D2B000840
:1000C0004D2B00084D2B00084D2B00084D2B000830
:1000D0004D2B00084D2B00084D2B00084D2B000820
:1000E0004D2B00084D2B00084D2B00080000000090
:1000F0000000000000000000000000000000000000
:1001000000000000000000004D2B00084D2B0008EF
:100110004D2B00084D2B00084D2B00084D2B0008DF
:100120004D2B00084D2B00084D2B00084D2B0008CF
:100130004D2B000800000000000000004D2B0008BF
:100140004D2B00084D2B00084D2B00084D2B0008AF
:10015000000000000000000000000000000000009F
:10016000000000000000000000000000000000008F
:10017000000000000000000000000000000000007F
:10018000000000000000000000000000000000006F
:10019000000000000000000000000000000000005F
:1001A000000000000000000000000000000000004F
:1001B000000000000000000000000000000000003F
:1001C000000000000000000000000000000000002F
:1001D000000000000000000000000000000000001F
:0401E0005FF8E0F1F3
:1001E400044B05481B1A062B02D9044B03B11847CC
:1001F400704700BF0B000020080000200000000032
:1002040005490648091A891001EBD171491002D039
:10021400034B03B118477047080000200800002072
:100224000000000010B5064C237843B9FFF7D8FF4F
:10023400044B13B10448AFF300800123237010BDB5
:100244000800002000000000502B000808B5084BEF
:100254001BB108480849AFF300800848036813B984
:10026400BDE80840CCE7064B002BF9D09847F7E7E8
:1002740000000000502B00080C00002008000020A3
:1002840000000000704700BFFEE700BFFEE700BFAC
:10029400FEE700BFFEE700BF704700BF704700BF26
:1002A400704700BF08B500F051FB00F0F3FB08BD38
:1002B40008B5042000F0EAFA08BD00BF08B50248FA
:1002C40000F026F808BD00BF4002002008B502482F
:1002D40001F044FF08BD00BFF002002008B5024849
:1002E40001F03CFF08BD00BFF002002008B5024841
:1002F40001F034FF08BD00BFF002002008B5024839
:1003040001F02CFF08BD00BFF0020020704700BFC1
:1003140010B5044603685A6812F0200F2AD01A68F0
:1003240012F0020F26D0826A12F0100F03D1826AF3
:1003340042F4007282629A6802F46022B2F5602F7D
:1003440011D1E2687AB95A6822F020025A60A36A8D
:1003540023F48073A362A36A13F4805F03D1A36AB6
:1003640043F00103A362204602F004F923686FF00E
:1003740012021A6023685A6812F0800F34D01A6887
:1003840012F0040F30D0A26A12F0100F03D1A26A47
:1003940042F40052A2629A6802F4E042B2F5E04FDD
:1003A4000BD05A6812F4806F17D19A6802F4602255
:1003B400B2F5602F11D1E2687AB95A6822F080024E
:1003C4005A60A36A23F48053A362A36A13F4807F60
:1003D40003D1A36A43F00103A362204600F062FA4A
:1003E40023686FF00C021A6023685A6812F0400FF9
:1003F4000ED01B6813F0010F0AD0A36A43F48033B4
:10040400A3622046FFF782FF23686FF001021A609F
:1004140010BD00BF70B483B00023019390F8243062
:10042400012B00F08380012380F824304B68062BD5
:100434000DD80668756B03EB8303053B1F229A40B6
:1004440025EA02040A689A40224372631CE00C2BDA
:100454000DD80668356B03EB8303233B1F229A40B8
:1004640025EA02040A689A40224332630CE00668D3
:10047400F56A03EB8303413B1F229A4025EA0204F9
:100484000A689A402243F2620B68092B0DD9066868
:10049400F56803EB43031E3B07229A4025EA020456
:1004A4008A689A402243F2600BE00668356903EBE0
:1004B400430307229A4025EA02048A689A402243A9
:1004C40032610B68103B012B26D80368194A93420A
:1004D4001CD19A6812F4000F20D19A6842F40002E9
:1004E4009A600B68102B1BD1134B1B68134AA2FB99
:1004F40003239B0C03EB83035B00019302E0019B4A
:10050400013B0193019B002BF9D10AE0836A43F07C
:1005140020038362012304E0002302E0002300E0BF
:100524000023002280F82420184600E0022003B0B3
:1005340070BC7047002401400400002083DE1B438C
:1005440038B503689A6812F0010F1ED004469A6801
:1005540022F001029A6000F001FA05460EE000F074
:10056400FDF9401B022809D9A36A43F01003A362D2
:10057400E36A43F00103E362012038BD23689B680A
:1005840013F0010FEBD1002038BD002038BD00BFAF
:1005940000287DD038B50446836A23B9C36280F845
:1005A400243001F0C3F92046FFF7CAFFA36A13F011
:1005B400100F67D1002865D1A36A23F4885323F070
:1005C400020343F00203A3626268E3691343E16830
:1005D40043EA4103A268B2F5807F04D0012A05D121
:1005E4004FF4807203E04FF4807200E000226569EA
:1005F400012D0FD131B9A169013942EA413242F4E6
:10060400006207E0A16A41F02001A162E16A41F0C1
:100614000101E1622568696821F469410A436A605D
:1006240021688D681B4A2A401A438A60A268B2F581
:10063400807F01D0012A03D12269013A110500E02B
:1006440000212568EA6A22F470020A43EA622268F9
:100654009168114A0A40934208D10023E362A36AD5
:1006640023F0030343F00103A36238BDA36A23F01C
:10067400120343F01003A362E36A43F00103E3624D
:10068400012038BDA36A43F01003A362012038BDE2
:1006940001207047FDF7E1FFFE0E1FFFF0B583B0A8
:1006A40000273C46DAE00122A2400B681340934243
:1006B40040F0D3804D68122D2DD00BD8022D27D0B9
:1006C40003D85DB3012D1ED035E0032D30D0112D9C
:1006D4001BD030E0644EB54220D008D8A6F5801671
:1006E400B5421BD006F58036B54224D116E05F4EE4
:1006F400B54213D006F58036B5420FD0A6F5801664
:10070400B54218D10AE0CF6815E0CF68043712E08B
:10071400CF6808370FE0CF680C370CE08D684DB117
:10072400012D02D10261082705E04261082702E099
:10073400002700E00427FF2B01D8844601E000F1E4
:10074400040CFF2B02D84FEA840E03E0A4F1080E38
:100754004FEA8E0EDCF800600F2202FA0EF226EA4F
:10076400020507FA0EF22A43CCF800204A6812F078
:10077400805F72D03E4A956945F0010595619269A2
:1007840002F001020192019A4FEA940E0EF1020561
:10079400384A52F8256004F0030C4FEA8C0C0F22FF
:1007A40002FA0CF226EA0205334A904213D002F50B
:1007B400806290420DD002F58062904207D002F52B
:1007C4008062904201D1032206E0042204E0022266
:1007D40002E0012200E0002202FA0CF22A430EF1A8
:1007E400020E244D45F82E204A6812F4803F05D0AD
:1007F40005F580652A681A432A6004E01F4D2A68BB
:1008040022EA03022A604A6812F4003F04D01B4D16
:100814006A681A436A6004E0184D6A6822EA0302AF
:100824006A604A6812F4801F04D0144DAA681A43FF
:10083400AA6004E0114DAA6822EA0302AA604A6889
:1008440012F4001F04D00D4DEA681343EB6004E07A
:100854000A4DEA6822EA0303EB6001340F2C7FF6A9
:1008640022AF03B0F0BD00BF000021100000311022
:100874000010024000000140000801400004014053
:100884000AB10161704709040161704708B5044B5E
:100894005B69034203D0024B586100F04BF908BD79
:1008A40000040140704700BF90F83C30012B21D078
:1008B40030B4012280F83C20022380F83D300468E3
:1008C400636823F070036360046865680B682B43F6
:1008D40063600468A36823F08003A3600468A568C8
:1008E4004B682B43A36080F83D20002380F83C3004
:1008F400184601E00220704730BC704710B504462A
:10090400074B1B680748A0FB0330800900F09AF8E6
:100914004FF0FF302146002200F04AF8002010BDBD
:1009240004000020D34D621008B5074A136843F051
:1009340010031360032000F029F80020FFF7DEFF06
:1009440000F0AAFF002008BD00200240024A1368FC
:1009540001331360704700BF3C020020014B18684C
:10096400704700BF3C02002030B583B00190FFF710
:10097400F5FF0546019CB4F1FF3F00D00134FFF7B9
:10098400EDFF401BA042FAD303B030BD00F00700D6
:10099400064AD36823F4E0631B041B0C43EA0020DB
:1009A40040F0BF6040F40030D060704700ED00E0DC
:1009B40030B4164BDC68C4F30224C4F10705042DDB
:1009C40028BF0425231D062B01D9033C00E0002485
:1009D400012303FA05F5013D2940A140A340013B51
:1009E4001A400A43002806DA00F00F001201D2B2BE
:1009F400074B1A5407E01201D2B200F1604000F52F
:100A0400614080F8002330BC704700BF00ED00E077
:100A140014ED00E0410900F01F0001238340024A65
:100A240042F82130704700BF00E100E0430900F0C4
:100A34001F00012282402033014941F823207047DE
:100A440000E100E00138B0F1807F0AD2064B586023
:100A5400F021064A82F823100020986007221A60C9
:100A640070470120704700BF10E000E000ED00E097
:100A7400042805D1054A136843F004031360704742
:100A8400024A136823F004031360704710E000E087
:100A9400704700BF08B5FFF7FBFF08BD30B589B04C
:100AA400204B9A6942F020029A619A6902F020026E
:100AB4000192019A9A6942F010029A619A6902F0CD
:100AC40010020292029A9A6942F004029A619B69A6
:100AD40003F004030393039B134D28464FF4E07182
:100AE4000022FFF7CDFE04230493104B059300244A
:100AF40006940F4804A9FFF7D1FD4FF4E073049363
:100B04000123059302230793284604A9FFF7C6FD92
:100B1400082005212246FFF74BFF0820FFF77AFF44
:100B240009B030BD00100240001001400000111057
:100B34000008014008B501F029FD08BDFEE700BF2B
:100B440008B50E480E4B03600923436000238360FD
:100B5400C3604FF4402202614FF48012426183610A
:100B6400C361036243628362C36201F025F818B172
:100B74000448F721FFF7E2FF08BD00BFF0020020A0
:100B840000640040882B000808B50B480B4B036039
:100B94004FF4E133436000238360C36003610C229C
:100BA40042618361C36101F0B3FC20B104484FF496
:100BB4009771FFF7C3FF08BD7002002000380140A1
:100BC400882B000800B585B01248134B036000233E
:100BD4008360C36043614FF46022C26143600123B8
:100BE4000361FFF7D5FC18B10C48D621FFF7A6FF27
:100BF4000A2301930123029300230393054801A9C7
:100C0400FFF708FC18B10548E021FFF797FF05B08E
:100C14005DF804FB4002002000240140882B0008FA
:100C240000B58DB017484FF0804303600023436044
:100C3400836049F63F42C2600361836103220392E9
:100C440004930122059206930793089309920A9349
:100C54000B9303A900F0D8F820B10B484FF48A7124
:100C6400FFF76CFF002301930293064801A9FFF7E5
:100C74001BFE20B1044840F21B11FFF75FFF0DB0CB
:100C84005DF804FBB0020020882B000800B59DB07D
:100C940001210E914FF4803210920023119313918D
:100CA4000F930221169117924FF4E01218921993A0
:100CB4000EA800F03FF918B11C489D21FFF73EFF34
:100CC4000F23099302210A9100230B934FF48062AE
:100CD4000C920D9309A800F005FC18B11348AB2140
:100CE400FFF72CFF022301934FF40043039301A861
:100CF40000F0E0FC18B10D48B221FFF71FFF00F02F
:100D0400B3FC0B4BA3FB00308009FFF79BFE0420D0
:100D1400FFF7AEFE0122074B1A604FF0FF300021AF
:100D24000A46FFF745FE1DB05DF804FB882B00085A
:100D3400D34D62107000424208B5FFF7F5FDFFF78E
:100D4400A5FFFFF7ABFEFFF7FBFEFFF71DFFFFF765
:100D540039FFFFF765FF064A064B1A60064A074B40
:100D64001A60074A074B1A6001F01CFCFEE700BF3B
:100D74004002002038030020F0020020400300203D
:100D8400B00200203403002003681E4A90420ED0B3
:100D9400B0F1804F0BD0A2F59432904207D002F507
:100DA4008062904203D002F58062904203D123F026
:100DB40070034A681343134A90420ED0B0F1804F37
:100DC4000BD0A2F59432904207D002F58062904293
:100DD40003D002F58062904203D123F44073CA68C1
:100DE400134323F080034A69134303608B68C3628F
:100DF4000B688362034B984201D10B69036301239F
:100E040043617047002C0140002848D0F8B50546DE
:100E14000C4690F83D3013F0FF0F04D1002380F806
:100E24003C3000F0FBFD022385F83D302A689368CE
:100E340023F007039360294651F8040BFFF7A4FF3E
:100E4400286883688269016A26681E4322F4407216
:100E540022F00302A368A76943EA0723134323F498
:100E64007C4323F0FC03E268E76942EA0722134368
:100E74002769226A120342EA0712134321F0AA01E6
:100E84006268646942EA04120A43866029688B61D5
:100E94002B681A62012385F83D300020F8BD01203B
:100EA400704700BF10B401238B40046A24EA030393
:100EB4000362036A8A401A4302625DF8044B704776
:100EC40010B5044611B1042906D00BE000680021D6
:100ED4000122FFF7E7FF0FE0006804210122FFF77A
:100EE400E1FF09E0006800210122FFF7DBFF206831
:100EF40004210122FFF7D6FF2268136843F001039F
:100F04001360002010BD00BF82B0084B1B68084A64
:100F1400A2FB03235B0A00FB03F0019000BF019BCB
:100F24005A1E0192002BF9D102B070470400002030
:100F3400D34D621070B582B00446036813F0010FFC
:100F44006BD0A84B5B6803F00C03042B0AD0A54BB1
:100F54005B6803F00C03082B0DD1A24B5B6813F400
:100F6400803F08D09F4B1B6813F4003F55D0A36803
:100F7400002B52D12BE2A368B3F5803F05D1994AE7
:100F8400136843F48033136026E063B903F18043AC
:100F940003F504331A6822F480321A601A6822F4C2
:100FA40080221A6018E0B3F5A02F0CD103F180431E
:100FB400A3F53C331A6842F480221A601A6842F49A
:100FC40080321A6008E0874B1A6822F480321A6073
:100FD4001A6822F480221A60A3687BB1FFF7BEFC72
:100FE400054605E0FFF7BAFC401B642800F2F181D6
:100FF4007C4B1B6813F4003FF4D00EE0FFF7AEFC0B
:10100400054605E0FFF7AAFC401B642800F2E381D3
:10101400744B1B6813F4003FF4D1236813F0020FE0
:1010240050D0704B5B6813F00C0F0AD06D4B5B68AB
:1010340003F00C03082B16D16A4B5B6813F4803F52
:1010440011D1684B1B6813F0020F03D06369012BA5
:1010540040F0C381634A136823F0F803A16943EAAB
:10106400C10313602EE06369D3B101225E4B1A60A1
:10107400FFF774FC054605E0FFF770FC401B0228EF
:1010840000F2AD81574B1B6813F0020FF4D0554AA0
:10109400136823F0F803A16943EAC103136011E064
:1010A4000022514B1A60FFF759FC054605E0FFF793
:1010B40055FC401B022800F294814A4B1B6813F034
:1010C400020FF4D1236813F0080F29D0E369ABB100
:1010D4000122464B1A60FFF741FC054605E0FFF785
:1010E4003DFC401B022800F27E813E4B5B6A13F0FC
:1010F400020FF4D00120FFF707FF11E000223B4B61
:101104001A60FFF72BFC054605E0FFF727FC401BA0
:10111400022800F26A81334B5B6A13F0020FF4D1A8
:10112400236813F0040F00F08A802E4BDB6913F060
:10113400805F0BD12B4BDA6942F08052DA61DB69B4
:1011440003F080530193019B012500E00025284B07
:101154001B6813F4807F13D1254A136843F480730A
:101164001360FFF7FBFB064605E0FFF7F7FB801B68
:10117400642800F23C811E4B1B6813F4807FF4D07A
:101184002369012B05D1174A136A43F00103136243
:1011940022E063B903F1804303F504331A6A22F0B1
:1011A40001021A621A6A22F004021A6214E0052B80
:1011B40009D10C4B1A6A42F004021A621A6A42F00C
:1011C40001021A6208E0074B1A6A22F001021A624D
:1011D4001A6A22F004021A622369CBB1FFF7BEFB3C
:1011E40006460FE0001002400000424280044242E2
:1011F40000700040FFF7B2FB801B41F28833984235
:1012040000F2F780874B1B6A13F0020FF2D010E054
:10121400FFF7A4FB064607E0FFF7A0FB801B41F2A3
:101224008833984200F2E7807E4B1B6A13F0020F6A
:10123400F2D125B17B4AD36923F08053D361E36AA9
:10124400002B67D0774A526812F4803F0BD0754A5E
:10125400526802F00C02082A05D1724AD26A12F4CA
:10126400803F40F0CA80022B3ED16E4B1B6813F0C6
:10127400805F07D06B4BDB6A03F0F003626B934231
:1012840040F0BD800022684B1A60FFF767FB0546FB
:1012940005E0FFF763FB401B642800F2B280614B5A
:1012A4001B6813F0006FF4D15E4BDA6A22F0F00190
:1012B400626B0A43DA62DA6A22F47061226B0A43CF
:1012C400DA620122584B1A60FFF748FB054605E035
:1012D400FFF744FB401B642800F29580514B1B68C8
:1012E40013F0006FF4D015E04E4AD36A23F4803330
:1012F400D36200224C4B1A60FFF730FB054604E032
:10130400FFF72CFB401B64287FD8464B1B6813F067
:10131400006FF5D1236A002B79D0424A526802F05B
:101324000C02082A75D0022B3ED100223F4B1A60D2
:10133400FFF714FB054604E0FFF710FB401B0228EF
:1013440069D8384B1B6813F0007FF5D1636AB3F595
:10135400803F0DD103F1804303F58833D96A626875
:101364000A43DA62DA6A22F00F01E2680A43DA62B7
:101374002C48436823F47411636AA26A13430B4331
:1013840043600122294B1A60FFF7E8FA044604E09F
:10139400FFF7E4FA001B02283FD8224B1B6813F026
:1013A400007FF5D000203BE00022204B1A60FFF7BD
:1013B400D5FA044604E0FFF7D1FA001B02282ED820
:1013C400184B1B6813F0007FF5D1002028E00120A2
:1013D40026E0032024E0032022E0012020E0032073
:1013E4001EE003201CE003201AE0032018E0032081
:1013F40016E0032014E0032012E0012010E0012095
:101404000EE003200CE003200AE0032008E00020A3
:1014140006E0012004E0032002E0032000E00320B2
:1014240002B070BD001002406800424260004242B7
:1014340010B489B0274B04AC186859689A6807C47B
:101444009A8922806C4653F8100F59689A68DB68B1
:101454000FC4214B5B6803F00C02082A35D1C3F397
:10146400834208A90A4412F8101C13F4803F28D0C0
:10147400194AD36A03F00F0308A8034413F8200C95
:10148400D36A13F4803F11D0D46AC4F30314013433
:10149400D36AC3F303239A1C104BB3FBF4F302FB8C
:1014A40003F3B3FBF0F001FB00F004E00B4BB3FBE0
:1014B400F0F001FB00F09DF81D308B4206D140088E
:1014C40004E0074800FB01F000E0044809B05DF8BF
:1014D400044B7047682B00080010024000127A0089
:1014E40000093D0070B55C4B1B6803F007038B4299
:1014F4000BD2594A136823F007030B431360136894
:1015040003F007038B4240F09780036813F0020F47
:1015140006D0524C636823F0F0028368134363607F
:101524000D460446036813F0010F4DD04268012AAA
:1015340005D14A4B1B6813F4003F0DD17EE0022A0B
:1015440005D1464B1B6813F0007F05D178E0434B6F
:101554001B6813F0020F75D040494B6823F0030356
:1015640013434B60FFF7FAF906466368012B0ED16B
:1015740006E0FFF7F3F9801B41F28833984263D801
:10158400364B5B6803F00C03042BF2D11CE0022BF6
:1015940015D106E0FFF7E2F9801B41F28833984247
:1015A40054D82E4B5B6803F00C03082BF2D10BE0EC
:1015B400FFF7D4F9801B41F28833984248D8274B6F
:1015C4005B6813F00C0FF3D1234B1B6803F0070384
:1015D400AB420AD9204A136823F007032B43136054
:1015E400136803F00703AB4234D1236813F0040FEC
:1015F40006D01A494B6823F4E062E36813434B6056
:10160400236813F0080F07D0144A536823F4605377
:10161400216943EAC1035360FFF70AFF0F4B5B687C
:10162400C3F303130E4AD35CD8400E4B186000205A
:10163400FFF764F9002070BD012070BD012070BD6A
:10164400012070BD012070BD032070BD032070BD5A
:10165400032070BD012070BD002002400010024034
:10166400B42B000804000020014B1868704700BF29
:101674000400002008B5FFF7F7FF044B5B68C3F3D1
:101684000223034AD35CD84008BD00BF00100240C7
:10169400C42B000808B5FFF7E7FF044B5B68C3F3EE
:1016A400C223034AD35CD84008BD00BF00100240E7
:1016B400C42B000870B582B00446036813F0010F10
:1016C4005ED0714BDB6913F0805F0BD16E4BDA692E
:1016D40042F08052DA61DB6903F080530193019B8D
:1016E400012600E00026694B1B6813F4807F13D1A8
:1016F400664A136843F480731360FFF72FF90546B5
:1017040005E0FFF72BF9401B642800F2AF805F4B24
:101714001B6813F4807FF4D05B4B1B6A13F4407393
:1017240022D0626802F440729A421DD0564A136A6B
:1017340023F44070564901250D6000250D601062A8
:1017440013F0010F10D0FFF709F9054607E0FFF782
:1017540005F9401B41F28833984200F289804A4BD4
:101764001B6A13F0020FF2D047490B6A23F440724C
:10177400636813430B621EB1CB6923F08053CB61C2
:10178400236813F0020F06D03F494B6823F440420C
:10179400A36813434B60236813F0040F06D03A493F
:1017A400CB6A23F40032E3681343CB62236813F05B
:1017B400080F06D03449CB6A23F4802223691343EB
:1017C400CB62314BDB6A13F4003F06D12E4BDB6A4C
:1017D40013F4802F03D1002302E0012300E001234E
:1017E400002B36D0284B1B6813F0805F2AD1264B80
:1017F4001B6813F0806F06D0234BDB6A03F0F00301
:10180400A269934236D1204BDA6A22F0F001A26930
:101814000A43DA62DA6A22F4704162690A43DA62DC
:1018240001221C4B1A60FFF799F8054604E0FFF704
:1018340095F8401B64281FD8134B1B6813F0005FF6
:10184400F5D006E0104BDB6A03F4704362699342FF
:1018540014D1236813F0100F12D00B494B6823F4F2
:101864008002E36913434B6000200AE0032008E090
:10187400032006E0012004E0032002E0012000E050
:10188400002002B070BD00BF001002400070004094
:10189400400442427000424200B583B0214B9A6931
:1018A40042F001029A619B6903F001030193019BD9
:1018B4000320FFF76BF86FF00B0000210A46FFF7D7
:1018C40077F86FF00A0000210A46FFF771F86FF00D
:1018D400090000210A46FFF76BF86FF004000021AD
:1018E4000A46FFF765F86FF0030000210A46FFF788
:1018F4005FF86FF0010000210A46FFF759F84FF036
:10190400FF3000210A46FFF753F8074B5A6822F0CC
:10191400E0625A605A6842F000725A6003B05DF89F
:1019240004FB00BF00100240000001400268124B9B
:101934009A421FD100B587B003F56C439A6942F40B
:1019440000729A619B6903F400730193019B012364
:10195400029303230393094802A9FEF79FFE122072
:1019640000210A46FFF724F81220FFF753F807B0C6
:101974005DF804FB704700BF0024014000100140E3
:101984000268244B9A4244D130B587B003F5D6336C
:10199400DA6942F00072DA61DB6903F000730193E3
:1019A400019B4FF4006302930024039404941A4DA2
:1019B400284602A9FEF772FE4FF4805302930223D5
:1019C400039303230593284602A9FEF767FE132019
:1019D40021462246FEF7ECFF1320FFF71BF81420E4
:1019E40021462246FEF7E4FF1420FFF713F81520E2
:1019F40021462246FEF7DCFF1520FFF70BF81620E0
:101A040021462246FEF7D4FF1620FFF703F807B05D
:101A140030BD704700640040000801400368B3F122
:101A2400804F18D100B587B003F50433DA6942F06A
:101A34000102DA61DB6903F001030193019B0323D3
:101A44000293002303930493034802A9FEF726FE9E
:101A540007B05DF804FB7047000801400268144BAE
:101A64009A4224D110B586B003F558439A6942F4DA
:101A740080429A619B6903F480430193019B4FF474
:101A8400007302930223039303230593094C204616
:101A940002A9FEF703FE4FF480630293002303932D
:101AA4000493204602A9FEF7F9FD06B010BD704765
:101AB4000038014000080140F0B44B6901229A400B
:101AC4000468D4F8003223F47C534D6A43EA0523B6
:101AD40043F00103C4F800320568D5F81C32D4433E
:101AE4002340C5F81C32CB69C3B90568D5F80C325C
:101AF4002340C5F80C3206684B69CF688D8845EAE7
:101B04000745483346F8335003684E698F680D889B
:101B140045EA0745483603EBC6035D60CB69012BF4
:101B240018D10568D5F80C321343C5F80C32066891
:101B34004B690F688D8845EA0745483346F83350AA
:101B440003684E698F688D8945EA0745483603EB7B
:101B5400C6035D608B6933B90568D5F80432234048
:101B6400C5F8043205E00568D5F804321343C5F816
:101B740004320B6933B90568D5F814321C40C5F832
:101B8400144205E00468D4F814321343C4F8143240
:101B94000B6A012B05D10368D3F81C120A43C3F85E
:101BA4001C220268D2F8003223F00103C2F800328A
:101BB4000020F0BC704700BF002800F0A08038B5BA
:101BC400044690F83C3013F0FF0F04D1002380F852
:101BD4003D30FFF7D5FE022384F83C3022681368B9
:101BE40023F0020313602268136843F001031360B7
:101BF400FEF7B4FE05460BE0FEF7B0FE401B0A28D4
:101C040006D9032084F83C00002384F83D3038BD15
:101C140023685A6812F0010FEED05A6812F0010FCF
:101C24005ED0A269012A01D1802200E00022E1698C
:101C3400012902D142F0400201E022F04002216A6F
:101C4400012902D142F0200201E022F02002616A5F
:101C5400012902D142F0100201E022F01002A16A2F
:101C6400012902D142F0080201E022F00802E16AEF
:101C7400012902D142F0040101E022F004011A68B2
:101C840022F0FC020A431A602168A268E3681A433E
:101C940023691A4363691A436368013B1343CB61A5
:101CA4002268136823F001031360FEF757FE05460C
:101CB4000BE0FEF753FE401B0A2806D9032084F8E4
:101CC4003C00002384F83D3038BD23685A6812F084
:101CD400010FEED15B6813F0010F03D0002302E083
:101CE400002300E001232BB100202064012384F8A9
:101CF4003C3038BD042384F83C30012038BD012039
:101D0400704700BF0268936813F0806F08D193682E
:101D140013F0006F04D1936813F0805F00F0988093
:101D240090F83D30012B00F09880F0B4012380F846
:101D34003D30936813F0806F05D1936813F0006F02
:101D440003D0012302E0002300E0022303F1180181
:101D54000901545804F001045450026B916859B9B4
:101D6400056803F1180424012E591768D16841EA63
:101D7400475232432A510BE0056803F11804240149
:101D84002E59576841EAC701D2681143314329519A
:101D9400016B0A6902F00F020A61016803F118027B
:101DA400120111444C6824F00F044C6001680A4489
:101DB4005468016B0969214351600468016BCD7D4E
:101DC4008A7D120442EA05624D7D42EA0522097DBC
:101DD4000A4319010C44C4F888210468056BEE7E9B
:101DE400AA7E120442EA06626E7E42EA06222D7E32
:101DF4002A432144C1F88C2190F83C20D2B2322AE3
:101E040007D0622A09D0222A0BD1422280F83C2032
:101E14000AE0522280F83C2006E0722280F83C203E
:101E240002E0122280F83C200022026480F83D2067
:101E3400046818331B01E15841F00101E1500168C5
:101E44004B6943F40F4343F001034B61104606E032
:101E5400042380F83C300120704702207047F0BC16
:101E6400704700BF0B4699B990F83C20D2B2222AA1
:101E740078D090F83C20D2B2422A75D090F83C2019
:101E8400D2B2622A72D090F83C20D2B2722A6FD0B9
:101E9400012B13D190F83C20D2B2322A6AD090F8A8
:101EA4003C20D2B2522A67D090F83C20D2B2622AA7
:101EB40064D090F83C20D2B2722A61D090F83D20D0
:101EC400012A5FD010B4012280F83D20C3B990F8F4
:101ED4003C20D2B2322A07D0522A09D0122A0BD17E
:101EE400422280F83C2023E0622280F83C201FE05C
:101EF400722280F83C201BE0222280F83C2017E06C
:101F040090F83C20D2B2222A07D0422A09D0122AC1
:101F14000BD1522280F83C200AE0622280F83C2057
:101F240006E0722280F83C2002E0322280F83C2055
:101F3400002101640468626942F40F4242F0010224
:101F4400626180F83D1033B90268536943F00A03B3
:101F54005361084618E00268536943F05003536123
:101F6400002011E0022070470220704702207047D1
:101F740002207047022070470220704702207047F9
:101F840002207047022070475DF8044B704700BF81
:101F940008B50268536923F00103536190F83C309B
:101FA400DBB2122B04D10268536923F40F4353614B
:101FB40090F83C30DBB2522B07D0722B09D0422B65
:101FC4000BD1222380F83C300AE0322380F83C30E5
:101FD40006E0622380F83C3002E0012380F83C30C4
:101FE40000F020FC002008BD10B50C4609B9436B75
:101FF40000E0836B016804F11B0212018A5802F0AD
:1020040004029A603AB9016804F11B0212018A5869
:10201400520D1A6006E0016804F11B0212018A588D
:10202400D2085A60016804F11B021201895801F0B8
:102034000201D96001681144496801F00F01196176
:102044001C6201680A445268C2F30722DA6101681B
:1020540022011144D1F8B811197501681144D1F85D
:10206400B811090A597501681144D1F8B811090C5D
:10207400997501681144D1F8B811090ED975016830
:10208400114401F5DC71496819760168114401F5C0
:10209400DC714968090A59760168114401F5DC715B
:1020A4004968090C997601680A4402F5DC725268A1
:1020B400120EDA7644B903682022DA6002685369A2
:1020C40023F00A03536107E0036820221A610268BF
:1020D400536923F05003536190F83C30DBB2222B58
:1020E40001D0322B04D10268536923F40F435361A6
:1020F400C4B990F83C30DBB2622B07D0722B09D004
:10210400422B0BD1122380F83C3023E0322380F899
:102114003C301FE0522380F83C301BE0012380F860
:102124003C3017E090F83C30DBB2622B07D0722BC6
:1021340009D0522B0BD1122380F83C300AE0222321
:1021440080F83C3006E0422380F83C3002E0012372
:1021540080F83C3000F068FB002010BD70B50446E8
:102164000268D168536903F0080311F0100F05D019
:1021740033B11023D3604FF4007502E0002500E072
:10218400002522681169536903F0400311F0100F10
:1021940004D01BB145F480651023136123685A6988
:1021A40012F0010F2BD09A68664E32409868664947
:1021B4000140986820F06F4020F47E00000C000479
:1021C400B24205D0604A914202D0604A904216D190
:1021D40099689A6802F400729B6803F0010311F095
:1021E400020F01D102B91BB12046FFF7D1FE01E075
:1021F40045F4006522689168554B0B43936023684E
:10220400DA685B6903F0020312F0030F04D01BB118
:1022140020460021FFF7E8FE23681A695B6903F092
:10222400100312F0030F04D01BB120460121FFF765
:10223400DBFE236C1D432564236898695A6902F404
:102244008072596901F4004110F0010F05D022B1E8
:1022540019B1226C42F00102226498695A6902F4AD
:102264000072596901F4004110F0020F05D022B147
:1022740019B1226C42F00202226498695A6902F48C
:102284008062596901F4004110F0040F05D022B1B5
:1022940019B1226C42F00402226498695A6902F46A
:1022A4000062596901F4004110F0700F36D0002A21
:1022B40034D0002932D09A6902F07002302A16D044
:1022C40004D8102A09D0202A0CD023E0502A18D090
:1022D400602A1BD0402A1DD10EE0226C42F0080275
:1022E400226417E0226C42F01002226412E0226C95
:1022F40042F0200222640DE0226C42F0400222648B
:1023040008E0226C42F08002226403E0226C42F472
:10231400807222649A6922F070029A61236C7BB104
:10232400236804225A60012384F83C3022685369EC
:1023340023F40F4323F05B035361204600F0B4FA07
:1023440070BD00BF0100000400010008000001107E
:10235400090501002DE9F843814601680B6923F45E
:102364004052C36813430B6181680369194343698D
:1023740019430068C26822F4B05323F00C030B43E2
:10238400C360D9F800104B6923F44072D9F81830AF
:1023940013434B61D9F800505B4B9D4259D1FFF771
:1023A40079F900EB800000EB8000D9F80440A40028
:1023B400B0FBF4F4554EA6FB043464092401FFF782
:1023C40069F900EB800000EB8000D9F804309B0031
:1023D400B0FBF3F7FFF75EF900EB800000EB800041
:1023E400D9F804309B00B0FBF3F3A6FB03235B098D
:1023F4004FF0640808FB13731B013233A6FB03235D
:102404005B0903F0F0031C44FFF744F900EB800080
:1024140000EB8000D9F804309B00B0FBF3F7FFF722
:1024240039F900EB800000EB8000D9F804309B0000
:10243400B0FBF3F3A6FB03235B0908FB13731B0137
:102444003233A6FB0323C3F343131C44AC60BDE83F
:10245400F883FFF70FF900EB800000EB8000D9F858
:102464000440A400B0FBF4F4284EA6FB0434640931
:102474002401FFF7FFF800EB800000EB8000D9F89F
:1024840004309B00B0FBF3F7FFF7F4F800EB800097
:1024940000EB8000D9F804309B00B0FBF3F3A6FBFB
:1024A40003235B094FF0640808FB13731B013233E9
:1024B400A6FB03235B0903F0F0031C44FFF7DAF8DF
:1024C40000EB800000EB8000D9F804309B00B0FBE7
:1024D400F3F7FFF7CFF800EB800000EB8000D9F8AA
:1024E40004309B00B0FBF3F3A6FB03235B0908FB5A
:1024F40013731B013233A6FB0323C3F343131C449E
:10250400AC60BDE8F88300BF003801401F85EB5183
:1025140068B310B5044690F8393013F0FF0F04D1B6
:10252400002380F83830FFF799FA242384F83930EF
:102534002268D36823F40053D3602046FFF70AFFD0
:102544002268136923F4904313612268536923F0CA
:102554002A0353612268D36843F40053D3600020F4
:10256400E063202384F8393084F83A3010BD012028
:10257400704700BF034B1B68834202D10122024B08
:102584001A7070473803002024000020034B1B6896
:102594001B685B6A9BB2024A1380704734030020B5
:1025A4000000002030B587B0012404E0E0B200212F
:1025B40000F058FA0134032CF8DD4FF4FA70FEF7FA
:1025C400D3F9012407E0E0B2012100F04BFA6420C2
:1025D400FEF7CAF90134032CF5DD032407E0E0B269
:1025E400002100F03FFA6420FEF7BEF9013C002C04
:1025F400F5DC0120002100F067F9364B186818213A
:10260400FEF75EFC6423ADF80C3004238DF80E3025
:10261400FEF7A4F90446304B186800F0D3F9F0B182
:102624002D4B1868694600F0E9F9BDF803202B4BDF
:102634001B889BB21344274909680868406A1B1A1F
:102644005D1E49F63E40854203D89BB22348038071
:1026540003E04FF6FF70214B18800B685A621D4B44
:102664001B681B685B6A1E4AA2FB032313F0400F1E
:1026740004D00120014600F0F5F903E00120002117
:1026840000F0F0F9154B1B889BB24FF6FF72934292
:1026940004D00220012100F0E5F903E0022000212A
:1026A40000F0E0F9FEF75AF90546031B012BB2D9F5
:1026B400084B1B681B685B6AADF80F30074B1B881F
:1026C400ADF81130044B186803A900F057F92C46F3
:1026D400A1E700BF340300204003002000000020D5
:1026E4001F85EB5100B58BB01C4B1B78042B03D911
:1026F4001B484321FEF722FA184B1A78002A2AD0E5
:1027040000230593012106910793049308910E2356
:102714000993144B19680B885B019BB20093012A3F
:1027240002D94B885B019BB20193022A02D98B88A0
:102734005B019BB20293032A02D9CB885B019BB253
:102744000393094B18686946FFF7B6F918B10448B2
:102754006021FEF7F3F90BB05DF804FB6C00002078
:10276400942B0008680000204003002000B58BB0C3
:102774000023059306930122079200930193029389
:102784000393049308920E230993064B1868694631
:10279400FFF792F918B104487121FEF7CFF90BB095
:1027A4005DF804FB40030020942B000800B58BB0B7
:1027B4000E220592002306930121079100930193B1
:1027C40002930393049308910992064B186869468F
:1027D400FFF772F918B104488421FEF7AFF90BB082
:1027E4005DF804FB40030020942B000808B5054B5A
:1027F4001B68834201D1142000E04020FEF716F943
:1028040000BF08BD4003002008B5054B1B68834288
:1028140001D1142000E04020FEF7FCF808BD00BF01
:1028240040030020704700BF38B51C4B1B6898421A
:1028340001D11B4C00E01B4C6378426B128803EB04
:1028440043039B0023445A80436B1D69EAB26378B7
:1028540003EB43039B0023441A7100220AE06378CC
:10286400416B1144097D03EB43039B001344234450
:1028740059710132EBB29342F1DC63780133DBB27C
:102884006370637803F00F0363700021FFF7EAFAC3
:1028940018B10220012100F0E5F838BD4003002002
:1028A400B40000207801002008B5026C054B1A60C2
:1028B4000021FFF7D7FA18B10320012100F0D2F864
:1028C40008BD00BFB000002038B50D46214A0023E2
:1028D40013705370204A13705370044628B11F4B71
:1028E4001B681F4A1A631F4A5A632DB11E4B1B688B
:1028F4001E4A1A631E4A5A63022C06D11D4B1B68DA
:102904001BB91D48A121FEF719F9022C02D1FFF7CA
:10291400E9FE03E0012C01D1FFF728FF012D01D1CD
:10292400FFF744FF4CB10D4B18680021FFF79AFAEA
:1029340018B11148AB21FEF701F94DB10A4B1868E3
:102944000021FFF78FFA18B10B48AE21FEF7F6F815
:10295400002038BDB400002078010020400300208E
:1029640094000020440000203C03002028000020A4
:102974007000002068000020942B000838B504463D
:10298400036B0A881A60026B0023D360026B9360A6
:10299400026B8878106105E0226BC818C0781A446D
:1029A400107501338A789A42F6DC2046FFF71EFF41
:1029B4002046FFF7A7F905462046FFF725FF2846DE
:1029C40038BD00BF094B1B68834201D1084B00E0AE
:1029D400084B587810301B78C01A074B184003D5A1
:1029E400013860F00F000130704700BF4003002041
:1029F400B4000020780100200F00008070B5054667
:102A04000E46FFF7DFFF002822DD134B1B689D42B3
:102A140001D1124C00E0124C2846FFF7E7FE237860
:102A240003EB43039B00234453F8021F5A689B683B
:102A340031607260B3602846FFF7E6FE2378013305
:102A4400DBB22370237803F00F032370002070BDE2
:102A54004FF0FF3070BD00BF40030020B4000020E1
:102A64007801002008B50A46012807D10E48402104
:102A7400B2FA82F25209FDF703FF08BD022807D11A
:102A840009488021B2FA82F25209FDF7F9FE08BD25
:102A9400032807D104484FF48071B2FA82F2520934
:102AA400FDF7EEFE08BD00BF00100140124B1A688E
:102AB40042F001021A605968104A0A405A601A68C2
:102AC40022F0847222F480321A601A6822F480227E
:102AD4001A605A6822F4FE025A601A6822F0A05260
:102AE4001A604FF47F029A600022DA624FF00062AB
:102AF400034B9A60704700BF001002400000FFF0D3
:102B040000ED00E0002103E00A4B5B584350043120
:102B140009480A4B42189A42F6D3094A02E00023B4
:102B240042F8043B074B9A42F9D3FFF7BFFFFEF785
:102B340003F97047D42B000800000020080000208F
:102B44000800002044030020FEE70000F8B500BFA1
:102B5400F8BC08BC9E467047F8B500BFF8BC08BC7A
:042B64009E467047D2
:102B6800000004050607080900000000000D000029
:102B78000102030405060708090A0B0C0D0E0F10C5
:102B88005372632F6D61696E2E6300002E2E2F2EF7
:102B98002E2F7368617265642F6669726D77617232
:102BA800652F5372632F63616E2E6300000000006F
:102BB80000000000010203040607080900000000E5
:042BC80001020304FF
:042BCC0051020008AA
:042BD00029020008CE
:082BD400FFFF000000A24A040B
:0400000508002B09BB
:00000001FF
