:020000040800F2
:1000000000000120953700088515000889150008B3
:100010008D150008911500089515000800000000D6
:10002000000000000000000000000000991500081A
:100030009D15000800000000A1150008A515000886
:10004000D9370008D9370008D9370008D937000850
:10005000D9370008D9370008D9370008D937000840
:10006000D9370008D9370008D9370008D937000830
:10007000D9370008D9370008D9370008D937000820
:10008000D9370008D9370008D9370008B11500085A
:10009000C1150008D1150008E1150008D93700087E
:1000A000D9370008D9370008D9370008D9370008F0
:1000B000D9370008D9370008D9370008D9370008E0
:1000C000D9370008D9370008D9370008D9370008D0
:1000D000D9370008D9370008D9370008D9370008C0
:1000E000D9370008D9370008D937000800000000C8
:1000F0000000000000000000000000000000000000
:100100000000000000000000D9370008D9370008BF
:10011000F1150008D9370008D9370008D937000889
:10012000D9370008D9370008D9370008D93700086F
:10013000D937000800000000000000000116000888
:10014000111600082116000831160008D9370008DA
:10015000000000000000000000000000000000009F
:10016000000000000000000000000000000000008F
:10017000000000000000000000000000000000007F
:10018000000000000000000000000000000000006F
:10019000000000000000000000000000000000005F
:1001A000000000000000000000000000000000004F
:1001B000000000000000000000000000000000003F
:1001C000000000000000000000000000000000002F
:1001D000000000000000000000000000000000001F
:0401E0005FF8E0F1F3
:1001E400044B05481B1A062B02D9044B03B11847CC
:1001F400704700BF0B000020080000200000000032
:1002040005490648091A891001EBD171491002D039
:10021400034B03B118477047080000200800002072
:100224000000000010B5064C237843B9FFF7D8FF4F
:10023400044B13B10448AFF300800123237010BDB5
:100244000800002000000000DC37000808B5084B57
:100254001BB108480849AFF300800848036813B984
:10026400BDE80840CCE7064B002BF9D09847F7E7E8
:1002740000000000DC3700080C000020080000200B
:100284000000000080F0004002E000BF81F0004167
:1002940042001FBF5FEA410392EA030F7FEA226C28
:1002A4007FEA236C6AD04FEA1262D2EB1363C1BFB8
:1002B400D218414048404140B8BF5B42192B88BF27
:1002C400704710F0004F40F4000020F07F4018BF4A
:1002D400404211F0004F41F4000121F07F4118BF6A
:1002E400494292EA030F3FD0A2F1010241FA03FC12
:1002F40010EB0C00C3F1200301FA03F100F00043FA
:1003040002D5494260EB4000B0F5000F13D3B0F1C1
:10031400807F06D340084FEA310102F10102FE2A30
:1003240051D2B1F1004F40EBC25008BF20F00100A0
:1003340040EA03007047490040EB000010F4000F4E
:10034400A2F10102EDD1B0FA80FCACF1080CB2EBE1
:100354000C0200FA0CF0AABF00EBC2505242184340
:10036400BCBFD0401843704792F0000F81F40001E5
:1003740006BF80F400000132013BB5E74FEA4103B8
:100384007FEA226C18BF7FEA236C21D092EA030F24
:1003940004D092F0000F08BF0846704790EA010F9E
:1003A4001CBF0020704712F07F4F04D1400028BFCB
:1003B40040F00040704712F100723CBF00F50000AD
:1003C400704700F0004343F0FE4040F400007047E3
:1003D4007FEA226216BF08467FEA2363014642028F
:1003E40006BF5FEA412390EA010F40F480007047A2
:1003F4004FF0000304E000BF10F0004348BF404248
:100404005FEA000C08BF704743F0964301464FF083
:1004140000001CE050EA010208BF70474FF00003DF
:100424000AE000BF50EA010208BF704711F0004320
:1004340002D5404261EB41015FEA010C02BF8446F0
:100444000146002043F0B64308BFA3F18053A3F54F
:100454000003BCFA8CF2083AA3EBC25310DB01FA96
:1004640002FC634400FA02FCC2F12002BCF1004F1A
:1004740020FA02F243EB020008BF20F001007047AB
:1004840002F1200201FA02FCC2F1200250EA4C00FF
:1004940021FA02F243EB020008BF20EADC70704745
:1004A4004FF0FF0C1CEAD0521EBF1CEAD15392EA53
:1004B4000C0F93EA0C0F6FD01A4480EA010C40022F
:1004C40018BF5FEA41211ED04FF0006343EA501089
:1004D40043EA5111A0FB01310CF00040B1F5000FCB
:1004E4003EBF490041EAD3715B0040EA010062F17A
:1004F4007F02FD2A1DD8B3F1004F40EBC25008BF64
:1005040020F00100704790F0000F0CF0004C08BF81
:1005140049024CEA502040EA51207F3AC2BFD2F14E
:10052400FF0340EAC250704740F400004FF000035C
:10053400013A5DDC12F1190FDCBF00F00040704796
:10054400C2F10002410021FA02F1C2F1200200FAD4
:1005540002FC5FEA310040F1000053EA4C0308BF9B
:1005640020EADC70704792F0000F00F0004C02BFEC
:10057400400010F4000F013AF9D040EA0C0093F067
:10058400000F01F0004C02BF490011F4000F013BC1
:10059400F9D041EA0C018FE70CEAD15392EA0C0F2F
:1005A40018BF93EA0C0F0AD030F0004C18BF31F09A
:1005B400004CD8D180EA010000F00040704790F070
:1005C400000F17BF90F0004F084691F0000F91F014
:1005D400004F14D092EA0C0F01D142020FD193EADA
:1005E4000C0F03D14B0218BF084608D180EA010062
:1005F40000F0004040F0FE4040F40000704740F03E
:10060400FE4040F4400070474FF0FF0C1CEAD0520B
:100614001EBF1CEAD15392EA0C0F93EA0C0F69D067
:10062400A2EB030280EA010C49024FEA402037D0D2
:100634004FF0805343EA111143EA10130CF00040C9
:100644008B4238BF5B0042F17D024FF4000C8B42B9
:1006540024BF5B1A40EA0C00B3EB510F24BFA3EB99
:10066400510340EA5C00B3EB910F24BFA3EB910369
:1006740040EA9C00B3EBD10F24BFA3EBD10340EAC3
:10068400DC001B0118BF5FEA1C1CE0D1FD2A3FF609
:1006940050AF8B4240EBC25008BF20F001007047BE
:1006A4000CF0004C4CEA50207F32C2BFD2F1FF0361
:1006B40040EAC250704740F400004FF00003013A92
:1006C40037E792F0000F00F0004C02BF400010F436
:1006D400000F013AF9D040EA0C0093F0000F01F04A
:1006E400004C02BF490011F4000F013BF9D041EA6C
:1006F4000C0195E70CEAD15392EA0C0F08D142029F
:100704007FF47DAF93EA0C0F7FF470AF084676E771
:1007140093EA0C0F04D14B023FF44CAF08466EE74A
:1007240030F0004C18BF31F0004CCAD130F0004218
:100734007FF45CAF31F000437FF43CAF5FE700BF70
:100744004FF0FF3C06E000BF4FF0010C02E000BF99
:100754004FF0010C4DF804CD4FEA40024FEA41033B
:100764007FEA226C18BF7FEA236C11D001B052EAF1
:10077400530C18BF90EA010F58BFB2EB030088BFB7
:10078400C81738BF6FEAE17018BF40F00100704726
:100794007FEA226C02D15FEA402C05D17FEA236C08
:1007A400E4D15FEA412CE1D05DF8040B704700BF4F
:1007B400844608466146FFE70FB5FFF7C9FF0028E6
:1007C40048BF10F1000F0FBD4DF808EDFFF7F4FF1F
:1007D4000CBF012000205DF808FB00BF4DF808EDB8
:1007E400FFF7EAFF34BF012000205DF808FB00BFDB
:1007F4004DF808EDFFF7E0FF94BF012000205DF8FD
:1008040008FB00BF4DF808EDFFF7D2FF94BF0120AD
:1008140000205DF808FB00BF4DF808EDFFF7C8FFA6
:1008240034BF012000205DF808FB00BF4FEA4002FE
:10083400B2F1FE4F0FD34FF09E03B3EB12620DD90A
:100844004FEA002343F0004310F0004F23FA02F074
:1008540018BF404270474FF00000704712F1610F1B
:1008640001D1420205D110F0004008BF6FF00040F2
:1008740070474FF00000704710B588B01C4B9A6960
:1008840042F020029A619A6902F020020092009AD2
:100894009A6942F008029A619A6902F00802019288
:1008A400019A9A6942F010029A619A6902F0100260
:1008B4000292029A9A6942F004029A619B6903F0D7
:1008C40004030393039B0B4C20464FF4E071002276
:1008D40000F002FA4FF4E07304930123059302231A
:1008E4000793204604A900F005F908B010BD00BF25
:1008F4000010024000100140FEE700BF08B50E489A
:100904000E4B03600923436000238360C3604FF4EC
:10091400402202614FF4801242618361C361036229
:1009240043628362C36200F05DFA18B10448CC21CB
:10093400FFF7E2FF08BD00BFE804002000640040A8
:100944001438000808B50B480B4B03604FF4E1332F
:10095400436000238360C36003610C2242618361AE
:10096400C36101F013F820B1044840F20911FFF704
:10097400C3FF08BD68040020003801401438000893
:1009840008B50B480B4B03604FF4E133436000237D
:100994008360C36003610C2242618361C36100F020
:1009A400F5FF18B10448F621FFF7A6FF08BD00BF04
:1009B400A8040020004C00401438000808B50E4874
:1009C4000E4B03600923436000238360C3604FF42C
:1009D400402202614FF4801242618361C361036269
:1009E40043628362C36200F0FDF918B10448E32155
:1009F400FFF782FF08BD00BF240400200068004008
:100A04001438000800B595B0012106914FF48032E6
:100A14000892002309930B91079302210E910F92E0
:100A24004FF4E0121092119306A801F087F918B15F
:100A340016489921FFF760FF0F23019302210291C9
:100A4400002303934FF480620492059301A801F0FC
:100A54004DFC18B10D48A721FFF74EFF01F008FD2A
:100A64000B4BA3FB0030800900F044FE042000F08F
:100A740057FE0122074B1A604FF0FF3000210A464F
:100A840000F0EEFD15B05DF804FB00BF143800085B
:100A9400D34D62107000424208B501F007F9FFF728
:100AA400B1FFFFF7E9FEFFF729FFFFF74BFFFFF761
:100AB40067FFFFF783FF074A074B1A60074A084B93
:100AC4001A60084A084B1A60084A094B1A6002F077
:100AD400A3F8FEE7E8040020880500202404002091
:100AE400840500206804002030050020A8040020AC
:100AF40034050020F0B583B000273C46DAE001223B
:100B0400A2400B681340934240F0D3804D68122DED
:100B14002DD00BD8022D27D003D85DB3012D1ED0C4
:100B240035E0032D30D0112D1BD030E0644EB5429A
:100B340020D008D8A6F58016B5421BD006F580361D
:100B4400B54224D116E05F4EB54213D006F5803687
:100B5400B5420FD0A6F58016B54218D10AE0CF6889
:100B640015E0CF68043712E0CF6808370FE0CF688C
:100B74000C370CE08D684DB1012D02D102610827BC
:100B840005E04261082702E0002700E00427FF2B6C
:100B940001D8844601E000F1040CFF2B02D84FEA8F
:100BA400840E03E0A4F1080E4FEA8E0EDCF8006018
:100BB4000F2202FA0EF226EA020507FA0EF22A437F
:100BC400CCF800204A6812F0805F72D03E4A9569E2
:100BD40045F001059561926902F001020192019AC2
:100BE4004FEA940E0EF10205384A52F8256004F0DB
:100BF400030C4FEA8C0C0F2202FA0CF226EA0205CF
:100C0400334A904213D002F5806290420DD002F52F
:100C14008062904207D002F58062904201D10322A3
:100C240006E0042204E0022202E0012200E00022A5
:100C340002FA0CF22A430EF1020E244D45F82E203E
:100C44004A6812F4803F05D005F580652A681A4386
:100C54002A6004E01F4D2A6822EA03022A604A68D7
:100C640012F4003F04D01B4D6A681A436A6004E022
:100C7400184D6A6822EA03026A604A6812F4801F07
:100C840004D0144DAA681A43AA6004E0114DAA685E
:100C940022EA0302AA604A6812F4001F04D00D4D30
:100CA400EA681343EB6004E00A4DEA6822EA0303AE
:100CB400EB6001340F2C7FF622AF03B0F0BD00BF10
:100CC400000021100000311000100240000001401B
:100CD40000080140000401400AB1016170470904A1
:100CE40001617047F0B44B6901229A400468D4F85A
:100CF400003223F47C534D6A43EA052343F0010395
:100D0400C4F800320568D5F81C32D4432340C5F832
:100D14001C32CB69C3B90568D5F80C322340C5F839
:100D24000C3206684B69CF688D8845EA074548331D
:100D340046F8335003684E698F680D8845EA0745C5
:100D4400483603EBC6035D60CB69012B18D10568F7
:100D5400D5F80C321343C5F80C3206684B690F689A
:100D64008D8845EA0745483346F8335003684E6991
:100D74008F688D8945EA0745483603EBC6035D60F5
:100D84008B6933B90568D5F804322340C5F80432B9
:100D940005E00568D5F804321343C5F804320B693D
:100DA40033B90568D5F814321C40C5F8144205E07F
:100DB4000468D4F814321343C4F814320B6A012BB8
:100DC40005D10368D3F81C120A43C3F81C22026835
:100DD400D2F8003223F00103C2F800320020F0BC44
:100DE400704700BF002800F0A08038B5044690F892
:100DF4003C3013F0FF0F04D1002380F83D3001F0A4
:100E0400A7FB022384F83C302268136823F0020312
:100E140013602268136843F00103136000F060FF5D
:100E240005460BE000F05CFF401B0A2806D90320AE
:100E340084F83C00002384F83D3038BD23685A68A8
:100E440012F0010FEED05A6812F0010F5ED0A269C1
:100E5400012A01D1802200E00022E169012902D1A6
:100E640042F0400201E022F04002216A012902D14D
:100E740042F0200201E022F02002616A012902D13D
:100E840042F0100201E022F01002A16A012902D10D
:100E940042F0080201E022F00802E16A012902D1CD
:100EA40042F0040101E022F004011A6822F0FC027D
:100EB4000A431A602168A268E3681A4323691A4343
:100EC40063691A436368013B1343CB612268136867
:100ED40023F00103136000F003FF05460BE000F06C
:100EE400FFFE401B0A2806D9032084F83C00002397
:100EF40084F83D3038BD23685A6812F0010FEED1F2
:100F04005B6813F0010F03D0002302E0002300E02C
:100F140001232BB100202064012384F83C3038BD28
:100F2400042384F83C30012038BD0120704700BF01
:100F34000268936813F0806F08D1936813F0006F10
:100F440004D1936813F0805F00F0988090F83D30EE
:100F5400012B00F09880F0B4012380F83D309368B1
:100F640013F0806F05D1936813F0006F03D0012351
:100F740002E0002300E0022303F1180109015458A0
:100F840004F001045450026B916859B9056803F1E7
:100F9400180424012E591768D16841EA4752324394
:100FA4002A510BE0056803F1180424012E595768EF
:100FB40041EAC701D268114331432951016B0A69DF
:100FC40002F00F020A61016803F1180212011144D0
:100FD4004C6824F00F044C6001680A445468016BA7
:100FE4000969214351600468016BCD7D8A7D120437
:100FF40042EA05624D7D42EA0522097D0A43190150
:101004000C44C4F888210468056BEE7EAA7E1204A1
:1010140042EA06626E7E42EA06222D7E2A4321447B
:10102400C1F88C2190F83C20D2B2322A07D0622A2F
:1010340009D0222A0BD1422280F83C200AE0522215
:1010440080F83C2006E0722280F83C2002E0122264
:1010540080F83C200022026480F83D2004681833A4
:101064001B01E15841F00101E15001684B6943F46F
:101074000F4343F001034B61104606E0042380F85C
:101084003C300120704702207047F0BC704700BF1D
:101094000B4699B990F83C20D2B2222A78D090F825
:1010A4003C20D2B2422A75D090F83C20D2B2622AB7
:1010B40072D090F83C20D2B2722A6FD0012B13D197
:1010C40090F83C20D2B2322A6AD090F83C20D2B2B6
:1010D400522A67D090F83C20D2B2622A64D090F8A9
:1010E4003C20D2B2722A61D090F83D20012A5FD010
:1010F40010B4012280F83D20C3B990F83C20D2B24C
:10110400322A07D0522A09D0122A0BD1422280F85F
:101114003C2023E0622280F83C201FE0722280F809
:101124003C201BE0222280F83C2017E090F83C2071
:10113400D2B2222A07D0422A09D0122A0BD1522233
:1011440080F83C200AE0622280F83C2006E072220B
:1011540080F83C2002E0322280F83C200021016427
:101164000468626942F40F4242F00102626180F84D
:101174003D1033B90268536943F00A0353610846CA
:1011840018E00268536943F050035361002011E0F2
:1011940002207047022070470220704702207047E7
:1011A40002207047022070470220704702207047D7
:1011B400022070475DF8044B704700BF08B5026811
:1011C400536923F00103536190F83C30DBB2122BD6
:1011D40004D10268536923F40F43536190F83C30FF
:1011E400DBB2522B07D0722B09D0422B0BD1222316
:1011F40080F83C300AE0322380F83C3006E0622379
:1012040080F83C3002E0012380F83C3001F094FF88
:10121400002008BD10B50C4609B9436B00E0836B90
:10122400016804F11B0212018A5802F004029A6058
:101234003AB9016804F11B0212018A58520D1A606E
:1012440006E0016804F11B0212018A58D2085A60B0
:10125400016804F11B021201895801F00201D960EE
:1012640001681144496801F00F0119611C620168A9
:101274000A445268C2F30722DA6101682201114468
:10128400D1F8B811197501681144D1F8B811090AD7
:10129400597501681144D1F8B811090C99750168A0
:1012A4001144D1F8B811090ED9750168114401F53A
:1012B400DC71496819760168114401F5DC714968EB
:1012C400090A59760168114401F5DC714968090C71
:1012D400997601680A4402F5DC725268120EDA76D5
:1012E40044B903682022DA600268536923F00A03D0
:1012F400536107E0036820221A610268536923F0EE
:101304005003536190F83C30DBB2222B01D0322BD6
:1013140004D10268536923F40F435361C4B990F8AC
:101324003C30DBB2622B07D0722B09D0422B0BD19D
:10133400122380F83C3023E0322380F83C301FE055
:10134400522380F83C301BE0012380F83C3017E046
:1013540090F83C30DBB2622B07D0722B09D0522BB1
:101364000BD1122380F83C300AE0222380F83C3071
:1013740006E0422380F83C3002E0012380F83C3050
:1013840001F0DCFE002010BD70B504460268D1688F
:10139400536903F0080311F0100F05D033B1102383
:1013A400D3604FF4007502E0002500E000252268B8
:1013B4001169536903F0400311F0100F04D01BB1FD
:1013C40045F480651023136123685A6912F0010FF4
:1013D4002BD09A68664E32409868664901409868F6
:1013E40020F06F4020F47E00000C0004B24205D0CF
:1013F400604A914202D0604A904216D199689A6834
:1014040002F400729B6803F0010311F0020F01D192
:1014140002B91BB12046FFF7D1FE01E045F4006597
:1014240022689168554B0B4393602368DA685B69C3
:1014340003F0020312F0030F04D01BB12046002175
:10144400FFF7E8FE23681A695B6903F0100312F0E2
:10145400030F04D01BB120460121FFF7DBFE236CF0
:101464001D432564236898695A6902F48072596996
:1014740001F4004110F0010F05D022B119B1226C22
:1014840042F00102226498695A6902F400725969AF
:1014940001F4004110F0020F05D022B119B1226C01
:1014A40042F00202226498695A6902F4806259691E
:1014B40001F4004110F0040F05D022B119B1226CDF
:1014C40042F00402226498695A6902F4006259697C
:1014D40001F4004110F0700F36D0002A34D00029F6
:1014E40032D09A6902F07002302A16D004D8102A39
:1014F40009D0202A0CD023E0502A18D0602A1BD00F
:10150400402A1DD10EE0226C42F00802226417E04A
:10151400226C42F01002226412E0226C42F020029B
:1015240022640DE0226C42F04002226408E0226C46
:1015340042F08002226403E0226C42F4807222644E
:101544009A6922F070029A61236C7BB123680422A9
:101554005A60012384F83C302268536923F40F4312
:1015640023F05B035361204601F028FE70BD00BFE9
:101574000100000400010008000001100905010039
:10158400704700BFFEE700BFFEE700BFFEE700BFF5
:10159400FEE700BF704700BF704700BF704700BF41
:1015A40008B500F095FB00F0CDF808BD08B5024879
:1015B400FFF7EAFE08BD00BFE804002008B50248B2
:1015C400FFF7E2FE08BD00BFE804002008B50248AA
:1015D400FFF7DAFE08BD00BFE804002008B50248A2
:1015E400FFF7D2FE08BD00BFE804002008B502489A
:1015F40000F0B0FA08BD00BFA804002008B50248F6
:10160400FFF7C2FE08BD00BF2404002008B502484D
:10161400FFF7BAFE08BD00BF2404002008B5024845
:10162400FFF7B2FE08BD00BF2404002008B502483D
:10163400FFF7AAFE08BD00BF2404002000F0070045
:10164400064AD36823F4E0631B041B0C43EA00201E
:1016540040F0BF6040F40030D060704700ED00E01F
:1016640030B4164BDC68C4F30224C4F10705042D1E
:1016740028BF0425231D062B01D9033C00E00024C8
:10168400012303FA05F5013D2940A140A340013B94
:101694001A400A43002806DA00F00F001201D2B201
:1016A400074B1A5407E01201D2B200F1604000F572
:1016B400614080F8002330BC704700BF00ED00E0BB
:1016C40014ED00E0410900F01F0001238340024AA9
:1016D40042F82130704700BF00E100E0430900F008
:1016E4001F00012282402033014941F82320704722
:1016F40000E100E00138B0F1807F0AD2064B586067
:10170400F021064A82F823100020986007221A600C
:1017140070470120704700BF10E000E000ED00E0DA
:10172400042805D1054A136843F004031360704785
:10173400024A136823F004031360704710E000E0CA
:10174400704700BF08B5FFF7FBFF08BD0268D36808
:1017540023F49073D3600268536923F00103536147
:10176400202380F83A30704790F83930DBB2212BCF
:101774002AD18368B3F5805F0FD1036A02681B889E
:10178400C3F30803536003691BB9036A023303629A
:1017940009E0036A0133036205E00268036A591C25
:1017A40001621B785360C38C013B9BB2C3846BB949
:1017B4000268D36823F08003D3600268D36843F0DF
:1017C4004003D36000207047022070470020704718
:1017D4002DE9F843814601680B6923F44052C3683C
:1017E40013430B6181680369194343691943006812
:1017F400C26822F4B05323F00C030B43C360D9F83E
:1018040000104B6923F44072D9F8183013434B612C
:10181400D9F800505B4B9D4259D100F03FFE00EBDC
:10182400800000EB8000D9F80440A400B0FBF4F47D
:10183400554EA6FB04346409240100F02FFE00EB8E
:10184400800000EB8000D9F804309B00B0FBF3F774
:1018540000F024FE00EB800000EB8000D9F8043097
:101864009B00B0FBF3F3A6FB03235B094FF0640872
:1018740008FB13731B013233A6FB03235B0903F03C
:10188400F0031C4400F00AFE00EB800000EB800033
:10189400D9F804309B00B0FBF3F700F0FFFD00EB38
:1018A400800000EB8000D9F804309B00B0FBF3F318
:1018B400A6FB03235B0908FB13731B013233A6FB4E
:1018C4000323C3F343131C44AC60BDE8F88300F066
:1018D400D5FD00EB800000EB8000D9F80440A400A3
:1018E400B0FBF4F4284EA6FB04346409240100F090
:1018F400C5FD00EB800000EB8000D9F804309B00AC
:10190400B0FBF3F700F0BAFD00EB800000EB8000C1
:10191400D9F804309B00B0FBF3F3A6FB03235B0967
:101924004FF0640808FB13731B013233A6FB032337
:101934005B0903F0F0031C4400F0A0FD00EB800001
:1019440000EB8000D9F804309B00B0FBF3F700F003
:1019540095FD00EB800000EB8000D9F804309B007B
:10196400B0FBF3F3A6FB03235B0908FB13731B0112
:101974003233A6FB0323C3F343131C44AC60BDE81A
:10198400F88300BF003801401F85EB5168B310B5E0
:10199400044690F8393013F0FF0F04D1002380F887
:1019A400383000F083FE242384F839302268D36869
:1019B40023F40053D3602046FFF70AFF226813691B
:1019C40023F4904313612268536923F02A0353617B
:1019D4002268D36843F40053D3600020E0632023DB
:1019E40084F8393084F83A3010BD0120704700BFC4
:1019F40090F83930DBB2202B16D1B9B1C2B190F8CE
:101A04003830012B16D001628284C2840023C36360
:101A1400212280F8392080F838300168CA6842F001
:101A24008002CA6018467047022070470120704740
:101A3400012070470220704790F83A30DBB2202B27
:101A440020D109B312B390F83830012B20D0816231
:101A54008285C2850023C363222280F83A2080F85D
:101A640038300168CA6842F48072CA6001684A6901
:101A740042F001024A610168CA6842F02002CA6069
:101A840018467047022070470120704701207047B4
:101A940002207047704700BF08B50168CB6823F087
:101AA4004003CB60202380F83930FFF7F3FF002098
:101AB40008BD00BF08B590F83A30DBB2222B43D101
:101AC4008368B3F5805F13D1826A036943B90368FD
:101AD4005B68C3F308031380836A0233836218E0EC
:101AE40003685B68DBB21380836A0133836210E0AE
:101AF400036933B9836A5A1C8262026852681A7095
:101B040007E0826A531C836203685B6803F07F0307
:101B14001370C38D013B9BB2C385BBB90268D36804
:101B240023F02003D3600268D36823F48073D36066
:101B34000268536923F001035361202380F83A308B
:101B440001F050F8002008BD022008BD002008BDA7
:101B5400704700BF10B5044602681368D168526923
:101B640013F00F0009D113F0200F06D011F0200F4D
:101B740003D02046FFF79EFF10BD002862D012F06C
:101B8400010202D111F4907F5CD013F0010F06D052
:101B940011F4807F03D0E06B40F00100E06313F0A8
:101BA400040F04D01AB1E06B40F00200E06313F0BC
:101BB400020F04D01AB1E06B40F00400E06313F0AC
:101BC400080F04D01AB1E26B42F00802E263E26B40
:101BD400002A4AD013F0200F05D011F0200F02D0B4
:101BE4002046FFF767FF23685B6903F04003E26B5D
:101BF40012F0080F00D1FBB12046FFF7A7FD2368C0
:101C04005A6912F0400F13D05A6922F040025A6107
:101C1400636B4BB1154A5A63606B00F0A5FD20B3AA
:101C2400606B436B984710BD2046FFF791FF10BDD2
:101C34002046FFF78DFF10BD2046FFF789FF0023E4
:101C4400E36310BD13F0800F06D011F0800F03D0B2
:101C54002046FFF789FD10BD13F0400F05D011F0A9
:101C6400400F02D02046FFF717FF10BD751C000877
:101C740008B5406A0023C385C384FFF769FF08BD24
:101C840010B50446074B1B680748A0FB03308009C6
:101C9400FFF730FD4FF0FF3021460022FFF7E0FC54
:101CA400002010BD04000020D34D621008B5074A7F
:101CB400136843F0100313600320FFF7BFFC0020F8
:101CC400FFF7DEFF00F0FAFB002008BD0020024011
:101CD400024A136801331360704700BF2C050020CB
:101CE400014B1868704700BF2C05002030B583B045
:101CF4000190FFF7F5FF0546019CB4F1FF3F00D0CA
:101D04000134FFF7EDFF401BA042FAD303B030BD0E
:101D140082B0084B1B68084AA2FB03235B0A00FB42
:101D240003F0019000BF019B5A1E0192002BF9D1D0
:101D340002B0704704000020D34D621070B582B029
:101D44000446036813F0010F6BD0A84B5B6803F0E3
:101D54000C03042B0AD0A54B5B6803F00C03082B7F
:101D64000DD1A24B5B6813F4803F08D09F4B1B68D6
:101D740013F4003F55D0A368002B52D12BE2A36883
:101D8400B3F5803F05D1994A136843F48033136057
:101D940026E063B903F1804303F504331A6822F49F
:101DA40080321A601A6822F480221A6018E0B3F5AF
:101DB400A02F0CD103F18043A3F53C331A6842F4FD
:101DC40080221A601A6842F480321A6008E0874B55
:101DD4001A6822F480321A601A6822F480221A6087
:101DE400A3687BB1FFF77CFF054605E0FFF778FFAA
:101DF400401B642800F2F1817C4B1B6813F4003F04
:101E0400F4D00EE0FFF76CFF054605E0FFF768FF2E
:101E1400401B642800F2E381744B1B6813F4003FF9
:101E2400F4D1236813F0020F50D0704B5B6813F0A9
:101E34000C0F0AD06D4B5B6803F00C03082B16D112
:101E44006A4B5B6813F4803F11D1684B1B6813F035
:101E5400020F03D06369012B40F0C381634A136806
:101E640023F0F803A16943EAC10313602EE0636918
:101E7400D3B101225E4B1A60FFF732FF054605E03D
:101E8400FFF72EFF401B022800F2AD81574B1B6861
:101E940013F0020FF4D0554A136823F0F803A16934
:101EA40043EAC103136011E00022514B1A60FFF7AB
:101EB40017FF054605E0FFF713FF401B022800F259
:101EC40094814A4B1B6813F0020FF4D1236813F07A
:101ED400080F29D0E369ABB10122464B1A60FFF722
:101EE400FFFE054605E0FFF7FBFE401B022800F25B
:101EF4007E813E4B5B6A13F0020FF4D00120FFF7A2
:101F040007FF11E000223B4B1A60FFF7E9FE05468C
:101F140005E0FFF7E5FE401B022800F26A81334B1F
:101F24005B6A13F0020FF4D1236813F0040F00F07E
:101F34008A802E4BDB6913F0805F0BD12B4BDA695F
:101F440042F08052DA61DB6903F080530193019B14
:101F5400012500E00025284B1B6813F4807F13D172
:101F6400254A136843F480731360FFF7B9FE0646ED
:101F740005E0FFF7B5FE801B642800F23C811E4B90
:101F84001B6813F4807FF4D02369012B05D1174A11
:101F9400136A43F00103136222E063B903F180433F
:101FA40003F504331A6A22F001021A621A6A22F053
:101FB40004021A6214E0052B09D10C4B1A6A42F090
:101FC40004021A621A6A42F001021A6208E0074B1C
:101FD4001A6A22F001021A621A6A22F004021A62D0
:101FE4002369CBB1FFF77CFE06460FE000100240E8
:101FF400000042428004424200700040FFF770FE3D
:10200400801B41F28833984200F2F780874B1B6AA9
:1020140013F0020FF2D010E0FFF762FE064607E06D
:10202400FFF75EFE801B41F28833984200F2E7809E
:102034007E4B1B6A13F0020FF2D125B17B4AD369A0
:1020440023F08053D361E36A002B67D0774A526848
:1020540012F4803F0BD0754A526802F00C02082A31
:1020640005D1724AD26A12F4803F40F0CA80022B32
:102074003ED16E4B1B6813F0805F07D06B4BDB6A5D
:1020840003F0F003626B934240F0BD800022684B82
:102094001A60FFF725FE054605E0FFF721FE401B09
:1020A400642800F2B280614B1B6813F0006FF4D116
:1020B4005E4BDA6A22F0F001626B0A43DA62DA6A92
:1020C40022F47061226B0A43DA620122584B1A60CF
:1020D400FFF706FE054605E0FFF702FE401B6428F5
:1020E40000F29580514B1B6813F0006FF4D015E09B
:1020F4004E4AD36A23F48033D36200224C4B1A60D5
:10210400FFF7EEFD054604E0FFF7EAFD401B6428F7
:102114007FD8464B1B6813F0006FF5D1236A002B60
:1021240079D0424A526802F00C02082A75D0022B78
:102134003ED100223F4B1A60FFF7D2FD054604E072
:10214400FFF7CEFD401B022869D8384B1B6813F0FB
:10215400007FF5D1636AB3F5803F0DD103F180436D
:1021640003F58833D96A62680A43DA62DA6A22F0CC
:102174000F01E2680A43DA622C48436823F47411BD
:10218400636AA26A13430B4343600122294B1A601A
:10219400FFF7A6FD044604E0FFF7A2FD001B02289A
:1021A4003FD8224B1B6813F0007FF5D000203BE0A2
:1021B4000022204B1A60FFF793FD044604E0FFF76A
:1021C4008FFD001B02282ED8184B1B6813F0007FCC
:1021D400F5D1002028E0012026E0032024E003209C
:1021E40022E0012020E003201EE003201CE0032065
:1021F4001AE0032018E0032016E0032014E0032073
:1022040012E0012010E001200EE003200CE0032086
:102214000AE0032008E0002006E0012004E0032097
:1022240002E0032000E0032002B070BD0010024071
:10223400680042426000424210B489B0274B04ACAB
:10224400186859689A6807C49A8922806C4653F8BA
:10225400100F59689A68DB680FC4214B5B6803F060
:102264000C02082A35D1C3F3834208A90A4412F8A0
:10227400101C13F4803F28D0194AD36A03F00F03CB
:1022840008A8034413F8200CD36A13F4803F11D038
:10229400D46AC4F303140134D36AC3F303239A1C2A
:1022A400104BB3FBF4F302FB03F3B3FBF0F001FBBD
:1022B40000F004E00B4BB3FBF0F001FB00F09DF8E1
:1022C4001D308B4206D1400804E0074800FB01F0B2
:1022D40000E0044809B05DF8044B7047F437000887
:1022E4000010024000127A0000093D0070B55C4BFA
:1022F4001B6803F007038B420BD2594A136823F07F
:1023040007030B431360136803F007038B4240F089
:102314009780036813F0020F06D0524C636823F0D1
:10232400F0028368134363600D460446036813F0A8
:10233400010F4DD04268012A05D14A4B1B6813F4A2
:10234400003F0DD17EE0022A05D1464B1B6813F0F5
:10235400007F05D178E0434B1B6813F0020F75D062
:1023640040494B6823F0030313434B60FFF7B8FC69
:1023740006466368012B0ED106E0FFF7B1FC801B13
:1023840041F28833984263D8364B5B6803F00C0300
:10239400042BF2D11CE0022B15D106E0FFF7A0FCC0
:1023A400801B41F28833984254D82E4B5B6803F06B
:1023B4000C03082BF2D10BE0FFF792FC801B41F2D7
:1023C4008833984248D8274B5B6813F00C0FF3D13D
:1023D400234B1B6803F00703AB420AD9204A136856
:1023E40023F007032B431360136803F00703AB4286
:1023F40034D1236813F0040F06D01A494B6823F430
:10240400E062E36813434B60236813F0080F07D0BE
:10241400144A536823F46053216943EAC1035360A7
:10242400FFF70AFF0F4B5B68C3F303130E4AD35C39
:10243400D8400E4B18600020FFF722FC002070BD2E
:10244400012070BD012070BD012070BD012070BD50
:10245400032070BD032070BD032070BD012070BD3A
:102464000020024000100240583A000804000020F6
:10247400014B1868704700BF0400002008B5FFF73F
:10248400F7FF044B5B68C3F30223034AD35CD840D1
:1024940008BD00BF00100240683A000808B5FFF705
:1024A400E7FF044B5B68C3F3C223034AD35CD84001
:1024B40008BD00BF00100240683A000800B583B0B0
:1024C400214B9A6942F001029A619B6903F001036E
:1024D4000193019B0320FFF7B1F86FF00B0000217B
:1024E4000A46FFF7BDF86FF00A0000210A46FFF71D
:1024F400B7F86FF0090000210A46FFF7B1F86FF052
:10250400040000210A46FFF7ABF86FF00300002136
:102514000A46FFF7A5F86FF0010000210A46FFF70D
:102524009FF84FF0FF3000210A46FFF799F8074B58
:102534005A6822F0E0625A605A6842F000725A60A7
:1025440003B05DF804FB00BF00100240000001402E
:1025540030B589B003684F4A934246D14E4A136856
:1025640001331360012B09D14C4BDA6942F000723C
:10257400DA61DB6903F000730193019B4FF400639C
:102584000493002405940694454D284604A9FEF7B7
:10259400B1FA4FF480530493022305930323079362
:1025A400284604A9FEF7A6FA132021462246FFF77F
:1025B40057F81320FFF786F8142021462246FFF728
:1025C4004FF81420FFF77EF8152021462246FFF726
:1025D40047F81520FFF776F8162021462246FFF724
:1025E4003FF81620FFF76EF852E02E4A93424FD17F
:1025F4002A4BDA6942F08062DA61DB6903F08063B6
:102604000293029B244A136801331360012B09D1FE
:10261400224BDA6942F00072DA61DB6903F000737D
:102624000393039B4FF4805304930024059406946E
:102634001D4D284604A9FEF75DFA4FF40053049398
:102644000223059303230793284604A9FEF752FAAD
:102654003F2021462246FFF703F83F20FFF732F8D8
:10266400402021462246FEF7FBFF4020FFF72AF8D0
:10267400412021462246FEF7F3FF4120FFF722F8CE
:10268400422021462246FEF7EBFF4220FFF71AF8CC
:1026940009B030BD00640040240000200010024056
:1026A4000008014000680040000C014030B587B0CC
:1026B4000368284A934228D1274BDA6942F400225E
:1026C400DA61DB6903F400230093009B4FF4806319
:1026D40002930223039303230593204D284602A962
:1026E400FEF708FA4FF40063029300240394049461
:1026F400284602A9FEF7FEF9342021462246FEF7B9
:10270400AFFF3420FEF7DEFF22E0154A93421FD1CB
:10271400114B9A6942F480429A619B6903F48043A5
:102724000193019B4FF40073029302230393032349
:1027340005930C4C204602A9FEF7DCF94FF48063A4
:102744000293002303930493204602A9FEF7D2F9CF
:1027540007B030BD004C00400010024000100140A2
:10276400003801400008014008B590F82130022BE0
:1027740003D004238363012008BD0268136823F097
:102784000E0313600268136823F0010313600368E7
:102794004B4A934243D9783A93423CD01432934201
:1027A40037D01432934231D0143293422BD01432A6
:1027B400934225D0143293421FD01432934219D03D
:1027C40002F56272934213D0143293420ED0143243
:1027D400934208D01432934202D14FF480521BE04A
:1027E4004FF4803218E04FF4807215E0102213E0A9
:1027F400012211E04FF080720EE04FF480120BE0E2
:102804004FF4803208E04FF4805205E04FF48072B8
:1028140002E0102200E001222A4B5A6042E02A4AD8
:1028240093423CD01432934237D01432934231D085
:10283400143293422BD01432934225D01432934253
:102844001FD01432934219D002F56272934213D00E
:10285400143293420ED01432934208D0143293426D
:1028640002D14FF480521BE04FF4803218E04FF451
:10287400807215E0102213E0012211E04FF0807203
:102884000EE04FF480120BE04FF4803208E04FF476
:10289400805205E04FF4807202E0102200E0012231
:1028A4000A4B5A60012380F82130002380F820303D
:1028B400436B13B19847002008BD002008BD00BF3A
:1028C4008000024000040240080002400000024070
:1028D40010B400230AE0027882EA1322074931F88F
:1028E400122082EA03239BB2214601304C1E0029A8
:1028F400F1D118465DF8044B704700BF2C3800082E
:1029040030B404460022104606E0236813F8015B45
:1029140045EA0020236001328A42F6DB30BC70476E
:1029240000290EDD38B504461546012903DD0139B9
:10293400120AFFF7F5FF23681D7023680133236033
:1029440038BD7047314B1B78042B5DD110B582B074
:102954002F4B0193002407E001A80221FFF7D0FFC9
:102964002C4B23F814000134052CF5DD01A80221B9
:10297400FFF7C6FF274CA08101A80421FFF7C0FF81
:1029840000EB80004000206101A80421FFF7B8FF9C
:1029940000EB80004000606101A80221FFF7B0FF56
:1029A400208301A80421FFF7ABFFE06101A8022105
:1029B400FFF7A6FF208401A80421FFF7A1FF6062AE
:1029C40001A80421FFF79CFFA06201A80421FFF7DE
:1029D40097FFE06201A80421FFF792FF206301A89A
:1029E4000421FFF78DFF606301A80421FFF788FF2E
:1029F400A06301A80121FFF783FF84F83C000122B2
:102A0400054B1A7002B010BD704700BF2C000020A7
:102A14002D0000203C0500203805002038B5014673
:102A2400134C0223237060700023023404E0114A23
:102A3400D25C2270013301349942F8DC0D48FFF76F
:102A440047FF030A23706070E51C0323A37034203E
:102A5400FEF744FE00BF06496A1A074B186892B293
:102A6400FEF7C6FF04463420FEF72CFE204638BD90
:102A7400B4000020F40000203405002008B5034B06
:102A8400186803490122FEF7D7FF08BD340500206A
:102A9400AE00002008B50022044B1A700422044B37
:102AA4001A700120FFF7BAFF08BD00BF38050020E7
:102AB400F400002070B582B0044610F57A7F00DA85
:102AC4000E4CB4F57A7F01DD4FF47A740C4E02ADEE
:102AD40045F8046D284601210522FFF721FF284609
:102AE4000421642202FB04F2FFF71AFF0198801B01
:102AF400C0B2FFF793FF02B070BD00BF18FCFFFF28
:102B0400F400002070B582B006460A4D02AC44F8C9
:102B1400045D204601210622FFF702FF204604211E
:102B24003246FFF7FDFE0198401BC0B2FFF776FF67
:102B340002B070BDF400002010B5254B1B782BB9F2
:102B4400022844D10133224A137010BD012B08D14D
:102B54000021204A1170204A107001331C4A13705E
:102B640010BD022B0ED11B490A781C4CA054013213
:102B7400D2B20A70184909788A4228D10133144A1A
:102B8400137010BD032B06D10002154A10800133C7
:102B94000F4A137010BD042B07D111490A88104342
:102BA400088001330A4A137010BD052B0FD1032886
:102BB4000AD10A48084B1978FFF78AFE084B1B888C
:102BC400984201D1FFF7BEFE0022014B1A7010BDDE
:102BD400AF000020B0000020280000202C000020BE
:102BE400AC00002010B5094B1B68834203D0084891
:102BF400D021FDF781FE074C2078FFF79DFF034BA2
:102C0400186821460122FEF717FF10BD3405002085
:102C140020380008AE0000202DE9F04188B0854935
:102C240000224A6001F10C0343F8042B43F8042BFF
:102C340043F8042B43F8042B43F8042B43F8042BE8
:102C440043F8042B43F8042B43F8042B1A604FF089
:102C54007C530B60784B8B60784B8B61784BCB61EA
:102C64000A238B62012404E0E0B2002100F040FD5D
:102C74000134032CF8DD6420FFF738F8012407E061
:102C8400E0B2012100F034FD6420FFF72FF8013495
:102C9400032CF5DD032407E0E0B2002100F028FD59
:102CA4006420FFF723F8013C002CF5DC654B00930E
:102CB400C8200121644A082300F094FB022001216A
:102CC40000F096FA00F0AAFBFFF7D8FE6420FFF7A5
:102CD4000DF85E4B00221A715A719A71DA71FEF77F
:102CE400FFFF0646FEF7FCFF0546FEF7F9FF074621
:102CF400FEF7F6FF804600F0C7FB00F04FFC00280B
:102D040000F0B880FEF7ECFF054602A800F058FC7E
:102D14009DF80A30072B20D101224D4B1A704548EB
:102D240000F0E2FC9DF80C409DF80D3043EA0424C9
:102D340020B24FF47A7303FB00F0002802DA00F5A6
:102D4400FF407F30C013FFF7B5FE21B201200031F0
:102D540018BF012100F0CCFC8CE0082B2CD19DF88D
:102D64000C209DF80D3043EA022340F6AC52934206
:102D740004D8642B38BF6423184601E040F6AC50F5
:102D840049F63F4303FB00F3324880FB0320184419
:102D9400DB17284CC3EBE020FDF72EFB2061022259
:102DA4002B4B1A7094F83030002B63D1204600234B
:102DB400636100F081FC5DE0122B0DD19DF80C30B5
:102DC4001BB90022244B1A8054E04FF47A7292FB10
:102DD400F3F3214A13804DE0262B22D19DF80C20D9
:102DE4009DF80D3043EA022249F63F4303FB02F308
:102DF400184A82FB03121A44DB17C3EBE2239BB28B
:102E0400164A13800123ADF8143002238DF81630CE
:102E14001388ADF81730124B186805A900F042FA70
:102E240028E0142B26D19DF80C30EBB900220D4B71
:102E34001A801FE0180100200000A0400000FA439F
:102E44000000FAC3303A00082C3A00087C05002040
:102E540014010020C5B3A2914C0100204E010020B2
:102E640084050020500100204FF47A7292FBF3F3A2
:102E7400584A1380584B186800F038FA60B1564B22
:102E8400186805A900F04EFABDF81720534B1A80B4
:102E9400BDF81920524B1A80524B1B78022B16D1C5
:102EA4004E4B1888504C80B2FDF7A2FAE0602046E1
:102EB40000F0A4FB38B1606900F10040FDF7B6FCF6
:102EC40000B2FFF7F7FD0120014600F011FCFEF708
:102ED40007FF0446431BB3F5FA7F0CD90020FFF724
:102EE40011FE0120002100F003FC00223D4B1A706A
:102EF4003D4800F0F9FB3D4B1B88BBB3C8EB040213
:102F04009A4233D91C238DF8163004238DF81730D8
:102F1400324B198889B24FF4616202FB01F13448E3
:102F240080FB01E30B44C917C1EBE3312C4B1B8835
:102F34009BB202FB03F380FB03201844DB17C3EBB3
:102F4400E033C1F307228DF818208DF81910C3F36C
:102F540007228DF81A208DF81B3005A800F066FAB8
:102F640018B10220012100F0C3FBA046A31B632B70
:102F740002D9FFF78FFD2646164B1B88002B3FF422
:102F8400BAAEE21B9A427FF6B6AE1E238DF8163017
:102F940007238DF81730174A536B19168DF818103C
:102FA40019148DF8191019128DF81A108DF81B3098
:102FB400138C43F307228DF81C208DF81D3005A8CF
:102FC40000F034FA18B10220012100F091FB2746E9
:102FD40091E600BF50010020840500204E0100202E
:102FE4000000002014010020180100204C010020E2
:102FF400F56EB8D13C05002000B58BB01C4B1B7896
:10300400042B03D91B484321FDF776FC184B1A788F
:10301400002A2AD0002305930121069107930493E3
:1030240008910E230993144B19680B885B019BB21A
:103034000093012A02D94B885B019BB20193022AB7
:1030440002D98B885B019BB20293032A02D9CB88F5
:103054005B019BB20393094B18686946FDF742FE76
:1030640018B104486021FDF747FC0BB05DF804FB80
:10307400A0010020383A00089C01002088050020A7
:1030840000B58BB0002305930693012207920093A9
:10309400019302930393049308920E230993064B1E
:1030A40018686946FDF71EFE18B104487121FDF742
:1030B40023FC0BB05DF804FB88050020383A0008B7
:1030C40000B58BB00E2205920023069301210791CF
:1030D4000093019302930393049308910992064B7E
:1030E40018686946FDF7FEFD18B104488421FDF710
:1030F40003FC0BB05DF804FB88050020383A000897
:1031040008B5054B1B68834201D1142000E0402020
:10311400FEF7E4FA00BF08BD8805002008B5054B9A
:103124001B68834201D1142000E04020FEF7CAFA54
:1031340008BD00BF88050020704700BF38B51C4B90
:103144001B68984201D11B4C00E01B4C6378426B16
:10315400128803EB43039B0023445A80436B1D698D
:10316400EAB2637803EB43039B0023441A71002201
:103174000AE06378416B1144097D03EB43039B0030
:103184001344234459710132EBB29342F1DC637866
:103194000133DBB26370637803F00F0363700021C3
:1031A400FDF776FF18B10220012100F0A1FA38BD25
:1031B40088050020C40100208802002008B5026CA4
:1031C400054B1A600021FDF763FF18B103200121AC
:1031D40000F08EFA08BD00BFC0010020024B187039
:1031E400024B1960704700BFA00100209C01002021
:1031F40038B50D46214A002313705370204A1370CA
:103204005370044628B11F4B1B681F4A1A631F4A98
:103214005A632DB11E4B1B681E4A1A631E4A5A6319
:10322400022C06D11D4B1B681BB91D48A121FDF7BB
:1032340063FB022C02D1FFF7DFFE03E0012C01D176
:10324400FFF71EFF012D01D1FFF73AFF4CB10D4BE3
:1032540018680021FDF71CFF18B11148AB21FDF7D8
:103264004BFB4DB10A4B18680021FDF711FF18B153
:103274000B48AE21FDF740FB002038BDC4010020FF
:1032840088020020880500204C03002054010020FF
:1032940084050020A4010020780100209C01002066
:1032A400383A000838B50446036B0A881A60026B82
:1032B4000023D360026B9360026B8878106105E091
:1032C400226BC818C0781A44107501338A789A4260
:1032D400F6DC2046FFF714FF2046FDF729FE0546DD
:1032E4002046FFF71BFF284638BD00BF094B1B686B
:1032F400834201D1084B00E0084B587810301B780A
:10330400C01A074B184003D5013860F00F00013094
:10331400704700BF88050020C401002088020020F7
:103324000F00008070B505460E46FFF7DFFF00284A
:1033340022DD134B1B689D4201D1124C00E0124C5C
:103344002846FFF7DDFE237803EB43039B00234469
:1033540053F8021F5A689B6831607260B360284654
:10336400FFF7DCFE23780133DBB22370237803F00C
:103374000F032370002070BD4FF0FF3070BD00BFFD
:1033840088050020C40100208802002010B4002316
:103394001C4607E00F4A126832F81320824200D11B
:1033A400012401330C4A12789A42F3DC4CB9002010
:1033B4000DE00A4A1268D25C8A4200D120460133E9
:1033C40001E000231846064A12789A42F1DC5DF8BF
:1033D400044B70471404002018040020100400203B
:1033E4002004002010B5084C2080084801700848CB
:1033F400026008480370084B02981860084611469A
:10340400FFF7ECFE10BD00BF680300201804002085
:10341400140400202004002010040020024B00208B
:1034240018705870704700BF6C030020C378072BD6
:1034340020D800B585B0124A128842F48062ADF8F3
:10344400042001338DF8063083788DF8073000238B
:1034540007E05A1C0344197904AB134403F8091C0C
:103464001346C2789A42F4DC064B186801A9FFF7A8
:1034740019FF01E00120704705B05DF804FB00BFAF
:103484006803002088050020F0B585B0FEF728FC0D
:103494003C4B1B68C31AB3F57A7F32D9394B186099
:1034A400394BA3FB00308009384B18600E228DF88D
:1034B400062007228DF80720354A1288D1088DF896
:1034C400081052018DF80920020C8DF80A20C0F36F
:1034D40007228DF80B208DF80C001A795979C90050
:1034E400987941EA821202438DF80D20DB798DF838
:1034F4000E3001A8FFF79AFF18B10220012100F055
:10350400F7F8002634E0234B186801A9FFF70AFFF7
:1035140070BB9DF806405CB3BDF804709DF807507D
:1035240038462946FFF732FF10B31B4B5E7831460D
:1035340006EB860203EB42035F801D71013CE4B29B
:103544005C7100230CE05A1C04A8104410F8090C08
:1035540001EB810503EB45030F4D2B449871134692
:103564009C42F0DC013606F00F060B4B5E70012620
:10357400084B1868FFF7BAFE0028C4D1304605B0DE
:10358400F0BD00BF1C040020D34D62107C05002058
:1035940068030020880500206C030020064B58783F
:1035A40010301B78C01A054B184003D5013860F061
:1035B4000F000130704700BF6C0300200F00008033
:1035C40038B50446FFF7EAFF002812DD0A490B78F4
:1035D40003EB830201EB420252F8025F506825605C
:1035E400606012892281013303F00F030B70002005
:1035F40038BD4FF0FF3038BD6C0300202DE9F04793
:1036040090F83050002D53D00446FEF769FB626AEF
:10361400A36A134483424AD86062D4F80C802069B8
:103624004146FCF733FE814660684946FCF738FFA3
:10363400216AFCF72DFE06462062A7693946FDF78C
:10364400EBF840B9D4F81CA030465146FDF7C6F853
:1036540010B1564600E03E46266220684946FCF713
:103664001FFF01463046FCF713FE0646D4F80890C7
:103674004046E16AFCF70AFE01464846FCF710FFA3
:1036840001463046FCF702FE064660613846314684
:10369400FDF7A4F838B9E76930463946FDF79EF8D6
:1036A40000B13E4637466761C4F82C8000E000252F
:1036B4002846BDE8F08700BF70B504464669066237
:1036C400856930462946FDF7A7F830B9E5693046E3
:1036D4002946FDF783F800B935462562E368E362BD
:1036E400012384F8303070BD002380F830307047F7
:1036F40008B50A46012807D10E484021B2FA82F2E1
:103704005209FDF7E9FA08BD022807D109488021CA
:10371400B2FA82F25209FDF7DFFA08BD032807D195
:1037240004484FF48071B2FA82F25209FDF7D4FAD8
:1037340008BD00BF00100140124B1A6842F001029C
:103744001A605968104A0A405A601A6822F0847252
:1037540022F480321A601A6822F480221A605A68AD
:1037640022F4FE025A601A6822F0A0521A604FF442
:103774007F029A600022DA624FF00062034B9A6083
:10378400704700BF001002400000FFF000ED00E0B1
:10379400002103E00A4B5B584350043109480A4BAB
:1037A40042189A42F6D3094A02E0002342F8043B45
:1037B400074B9A42F9D3FFF7BFFFFDF76DF9704746
:1037C400783A0008000000200800002008000020CB
:1037D4008C050020FEE70000F8B500BFF8BC08BC6B
:1037E4009E467047F8B500BFF8BC08BC9E467047BB
:1037F400000004050607080900000000000D000091
:103804000102030405060708090A0B0C0D0E0F102C
:103814005372632F6D61696E2E6300005372632FC0
:10382400766573632E63000000002110422063302C
:103834008440A550C660E770088129914AA16BB104
:103844008CC1ADD1CEE1EFF13112100273325222AC
:10385400B5529442F772D662399318837BB35AA354
:10386400BDD39CC3FFF3DEE362244334200401147C
:10387400E664C774A44485546AA54BB528850995A4
:10388400EEE5CFF5ACC58DD553367226111630064C
:10389400D776F6669556B4465BB77AA719973887F4
:1038A400DFF7FEE79DD7BCC7C448E5588668A7780C
:1038B4004008611802282338CCC9EDD98EE9AFF944
:1038C400488969990AA92BB9F55AD44AB77A966AEC
:1038D400711A500A333A122AFDDBDCCBBFFB9EEB94
:1038E400799B588B3BBB1AABA66C877CE44CC55CBC
:1038F400222C033C600C411CAEED8FFDECCDCDDDE4
:103904002AAD0BBD688D499D977EB66ED55EF44E8B
:10391400133E322E511E700E9FFFBEEFDDDFFCCF33
:103924001BBF3AAF599F788F8891A981CAB1EBA187
:103934000CD12DC14EF16FE18010A100C230E32003
:103944000450254046706760B9839893FBA3DAB3AB
:103954003DC31CD37FE35EF3B1029012F322D23253
:103964003542145277625672EAB5CBA5A89589857B
:103974006EF54FE52CD50DC5E234C324A0148104A3
:103984006674476424540544DBA7FAB79987B8974B
:103994005FE77EF71DC73CD7D326F2369106B016F3
:1039A40057667676154634564CD96DC90EF92FE90B
:1039B400C899E9898AB9ABA9445865480678276843
:1039C400C018E1088238A3287DCB5CDB3FEB1EFBEB
:1039D400F98BD89BBBAB9ABB754A545A376A167A93
:1039E400F10AD01AB32A923A2EFD0FED6CDD4DCDBB
:1039F400AABD8BADE89DC98D267C076C645C454CE3
:103A0400A23C832CE01CC10C1FEF3EFF5DCF7CDF8A
:103A14009BAFBABFD98FF89F176E367E554E745E32
:103A2400932EB23ED10EF01EC800000007110812FA
:103A3400260913142E2E2F2E2E2F7368617265649F
:103A44002F6669726D776172652F5372632F63619C
:103A54006E2E630000000000000000000102030459
:0C3A64000607080900000000010203042E
:043A700051020008F7
:043A7400290200081B
:083A7800FFFF000000A24A0458
:040000050800379523
:00000001FF
