:020000040800F2
:1000000000000120913D0008412600084526000817
:10001000492600084D26000851260008000000006F
:10002000000000000000000000000000552600084D
:1000300059260008000000005D260008612600081F
:10004000D53D0008D53D0008D53D0008D53D000848
:10005000D53D0008D53D0008D53D0008D53D000838
:10006000D53D0008D53D0008D53D0008D53D000828
:10007000D53D0008D53D0008D53D0008D53D000818
:10008000D53D0008D53D00086D26000885260008EE
:1000900095260008A5260008B5260008D53D0008CD
:1000A000D53D0008D53D0008D53D0008D53D0008E8
:1000B000D53D0008D53D0008D53D0008D53D0008D8
:1000C000D53D0008D53D0008D53D0008D53D0008C8
:1000D000D53D0008D53D0008D53D0008D53D0008B8
:1000E000D53D0008D53D0008D53D000800000000C2
:1000F0000000000000000000000000000000000000
:100100000000000000000000D53D0008D53D0008BB
:10011000D53D0008D53D0008D53D0008D53D000877
:10012000D53D0008D53D0008D53D0008D53D000867
:10013000D53D00080000000000000000C5260008B2
:10014000D5260008E5260008F5260008D53D00085C
:10015000000000000000000000000000000000009F
:10016000000000000000000000000000000000008F
:10017000000000000000000000000000000000007F
:10018000000000000000000000000000000000006F
:10019000000000000000000000000000000000005F
:1001A000000000000000000000000000000000004F
:1001B000000000000000000000000000000000003F
:1001C000000000000000000000000000000000002F
:1001D000000000000000000000000000000000001F
:0401E0005FF8E0F1F3
:1001E400044B05481B1A062B02D9044B03B11847CC
:1001F400704700BF0B000020080000200000000032
:1002040005490648091A891001EBD171491002D039
:10021400034B03B118477047080000200800002072
:100224000000000010B5064C237843B9FFF7D8FF4F
:10023400044B13B10448AFF300800123237010BDB5
:100244000800002000000000D83D000808B5084B55
:100254001BB108480849AFF300800848036813B984
:10026400BDE80840CCE7064B002BF9D09847F7E7E8
:1002740000000000D83D00080C0000200800002009
:100284000000000080F0004002E000BF81F0004167
:1002940042001FBF5FEA410392EA030F7FEA226C28
:1002A4007FEA236C6AD04FEA1262D2EB1363C1BFB8
:1002B400D218414048404140B8BF5B42192B88BF27
:1002C400704710F0004F40F4000020F07F4018BF4A
:1002D400404211F0004F41F4000121F07F4118BF6A
:1002E400494292EA030F3FD0A2F1010241FA03FC12
:1002F40010EB0C00C3F1200301FA03F100F00043FA
:1003040002D5494260EB4000B0F5000F13D3B0F1C1
:10031400807F06D340084FEA310102F10102FE2A30
:1003240051D2B1F1004F40EBC25008BF20F00100A0
:1003340040EA03007047490040EB000010F4000F4E
:10034400A2F10102EDD1B0FA80FCACF1080CB2EBE1
:100354000C0200FA0CF0AABF00EBC2505242184340
:10036400BCBFD0401843704792F0000F81F40001E5
:1003740006BF80F400000132013BB5E74FEA4103B8
:100384007FEA226C18BF7FEA236C21D092EA030F24
:1003940004D092F0000F08BF0846704790EA010F9E
:1003A4001CBF0020704712F07F4F04D1400028BFCB
:1003B40040F00040704712F100723CBF00F50000AD
:1003C400704700F0004343F0FE4040F400007047E3
:1003D4007FEA226216BF08467FEA2363014642028F
:1003E40006BF5FEA412390EA010F40F480007047A2
:1003F4004FF0000304E000BF10F0004348BF404248
:100404005FEA000C08BF704743F0964301464FF083
:1004140000001CE050EA010208BF70474FF00003DF
:100424000AE000BF50EA010208BF704711F0004320
:1004340002D5404261EB41015FEA010C02BF8446F0
:100444000146002043F0B64308BFA3F18053A3F54F
:100454000003BCFA8CF2083AA3EBC25310DB01FA96
:1004640002FC634400FA02FCC2F12002BCF1004F1A
:1004740020FA02F243EB020008BF20F001007047AB
:1004840002F1200201FA02FCC2F1200250EA4C00FF
:1004940021FA02F243EB020008BF20EADC70704745
:1004A4004FF0FF0C1CEAD0521EBF1CEAD15392EA53
:1004B4000C0F93EA0C0F6FD01A4480EA010C40022F
:1004C40018BF5FEA41211ED04FF0006343EA501089
:1004D40043EA5111A0FB01310CF00040B1F5000FCB
:1004E4003EBF490041EAD3715B0040EA010062F17A
:1004F4007F02FD2A1DD8B3F1004F40EBC25008BF64
:1005040020F00100704790F0000F0CF0004C08BF81
:1005140049024CEA502040EA51207F3AC2BFD2F14E
:10052400FF0340EAC250704740F400004FF000035C
:10053400013A5DDC12F1190FDCBF00F00040704796
:10054400C2F10002410021FA02F1C2F1200200FAD4
:1005540002FC5FEA310040F1000053EA4C0308BF9B
:1005640020EADC70704792F0000F00F0004C02BFEC
:10057400400010F4000F013AF9D040EA0C0093F067
:10058400000F01F0004C02BF490011F4000F013BC1
:10059400F9D041EA0C018FE70CEAD15392EA0C0F2F
:1005A40018BF93EA0C0F0AD030F0004C18BF31F09A
:1005B400004CD8D180EA010000F00040704790F070
:1005C400000F17BF90F0004F084691F0000F91F014
:1005D400004F14D092EA0C0F01D142020FD193EADA
:1005E4000C0F03D14B0218BF084608D180EA010062
:1005F40000F0004040F0FE4040F40000704740F03E
:10060400FE4040F4400070474FF0FF0C1CEAD0520B
:100614001EBF1CEAD15392EA0C0F93EA0C0F69D067
:10062400A2EB030280EA010C49024FEA402037D0D2
:100634004FF0805343EA111143EA10130CF00040C9
:100644008B4238BF5B0042F17D024FF4000C8B42B9
:1006540024BF5B1A40EA0C00B3EB510F24BFA3EB99
:10066400510340EA5C00B3EB910F24BFA3EB910369
:1006740040EA9C00B3EBD10F24BFA3EBD10340EAC3
:10068400DC001B0118BF5FEA1C1CE0D1FD2A3FF609
:1006940050AF8B4240EBC25008BF20F001007047BE
:1006A4000CF0004C4CEA50207F32C2BFD2F1FF0361
:1006B40040EAC250704740F400004FF00003013A92
:1006C40037E792F0000F00F0004C02BF400010F436
:1006D400000F013AF9D040EA0C0093F0000F01F04A
:1006E400004C02BF490011F4000F013BF9D041EA6C
:1006F4000C0195E70CEAD15392EA0C0F08D142029F
:100704007FF47DAF93EA0C0F7FF470AF084676E771
:1007140093EA0C0F04D14B023FF44CAF08466EE74A
:1007240030F0004C18BF31F0004CCAD130F0004218
:100734007FF45CAF31F000437FF43CAF5FE700BF70
:100744004FF0FF3C06E000BF4FF0010C02E000BF99
:100754004FF0010C4DF804CD4FEA40024FEA41033B
:100764007FEA226C18BF7FEA236C11D001B052EAF1
:10077400530C18BF90EA010F58BFB2EB030088BFB7
:10078400C81738BF6FEAE17018BF40F00100704726
:100794007FEA226C02D15FEA402C05D17FEA236C08
:1007A400E4D15FEA412CE1D05DF8040B704700BF4F
:1007B400844608466146FFE70FB5FFF7C9FF0028E6
:1007C40048BF10F1000F0FBD4DF808EDFFF7F4FF1F
:1007D4000CBF012000205DF808FB00BF4DF808EDB8
:1007E400FFF7EAFF34BF012000205DF808FB00BFDB
:1007F4004DF808EDFFF7E0FF94BF012000205DF8FD
:1008040008FB00BF4DF808EDFFF7D2FF94BF0120AD
:1008140000205DF808FB00BF4DF808EDFFF7C8FFA6
:1008240034BF012000205DF808FB00BF4FEA4002FE
:10083400B2F1FE4F0FD34FF09E03B3EB12620DD90A
:100844004FEA002343F0004310F0004F23FA02F074
:1008540018BF404270474FF00000704712F1610F1B
:1008640001D1420205D110F0004008BF6FF00040F2
:1008740070474FF000007047F0B44B6901229A4072
:100884000468D4F8003223F47C534D6A43EA052308
:1008940043F00103C4F800320568D5F81C32D44390
:1008A4002340C5F81C32CB69C3B90568D5F80C32AE
:1008B4002340C5F80C3206684B69CF688D8845EA39
:1008C4000745483346F8335003684E698F680D88EE
:1008D40045EA0745483603EBC6035D60CB69012B47
:1008E40018D10568D5F80C321343C5F80C320668E4
:1008F4004B690F688D8845EA0745483346F83350FD
:1009040003684E698F688D8945EA0745483603EBCD
:10091400C6035D608B6933B90568D5F8043223409A
:10092400C5F8043205E00568D5F804321343C5F868
:1009340004320B6933B90568D5F814321C40C5F884
:10094400144205E00468D4F814321343C4F8143292
:100954000B6A012B05D10368D3F81C120A43C3F8B0
:100964001C220268D2F8003223F00103C2F80032DC
:100974000020F0BC704700BF002800F0A08038B50C
:10098400044690F83C3013F0FF0F04D1002380F8A4
:100994003D3000F0D3FD022384F83C302268136814
:1009A40023F0020313602268136843F00103136009
:1009B40001F064F905460BE001F060F9401B0A28D8
:1009C40006D9032084F83C00002384F83D3038BD68
:1009D40023685A6812F0010FEED05A6812F0010F22
:1009E4005ED0A269012A01D1802200E00022E169DF
:1009F400012902D142F0400201E022F04002216AC2
:100A0400012902D142F0200201E022F02002616AB1
:100A1400012902D142F0100201E022F01002A16A81
:100A2400012902D142F0080201E022F00802E16A41
:100A3400012902D142F0040101E022F004011A6804
:100A440022F0FC020A431A602168A268E3681A4390
:100A540023691A4363691A436368013B1343CB61F7
:100A64002268136823F00103136001F007F90546B7
:100A74000BE001F003F9401B0A2806D9032084F88F
:100A84003C00002384F83D3038BD23685A6812F0D6
:100A9400010FEED15B6813F0010F03D0002302E0D5
:100AA400002300E001232BB100202064012384F8FB
:100AB4003C3038BD042384F83C30012038BD01208B
:100AC400704700BF0268936813F0806F08D1936881
:100AD40013F0006F04D1936813F0805F00F09880E6
:100AE40090F83D30012B00F09880F0B4012380F899
:100AF4003D30936813F0806F05D1936813F0006F55
:100B040003D0012302E0002300E0022303F11801D3
:100B14000901545804F001045450026B916859B906
:100B2400056803F1180424012E591768D16841EAB5
:100B3400475232432A510BE0056803F1180424019B
:100B44002E59576841EAC701D268114331432951EC
:100B5400016B0A6902F00F020A61016803F11802CD
:100B6400120111444C6824F00F044C6001680A44DB
:100B74005468016B0969214351600468016BCD7DA0
:100B84008A7D120442EA05624D7D42EA0522097D0E
:100B94000A4319010C44C4F888210468056BEE7EED
:100BA400AA7E120442EA06626E7E42EA06222D7E84
:100BB4002A432144C1F88C2190F83C20D2B2322A35
:100BC40007D0622A09D0222A0BD1422280F83C2085
:100BD4000AE0522280F83C2006E0722280F83C2091
:100BE40002E0122280F83C200022026480F83D20BA
:100BF400046818331B01E15841F00101E150016818
:100C04004B6943F40F4343F001034B61104606E084
:100C1400042380F83C300120704702207047F0BC68
:100C2400704700BF0B4699B990F83C20D2B2222AF3
:100C340078D090F83C20D2B2422A75D090F83C206B
:100C4400D2B2622A72D090F83C20D2B2722A6FD00B
:100C5400012B13D190F83C20D2B2322A6AD090F8FA
:100C64003C20D2B2522A67D090F83C20D2B2622AF9
:100C740064D090F83C20D2B2722A61D090F83D2022
:100C8400012A5FD010B4012280F83D20C3B990F846
:100C94003C20D2B2322A07D0522A09D0122A0BD1D0
:100CA400422280F83C2023E0622280F83C201FE0AE
:100CB400722280F83C201BE0222280F83C2017E0BE
:100CC40090F83C20D2B2222A07D0422A09D0122A14
:100CD4000BD1522280F83C200AE0622280F83C20AA
:100CE40006E0722280F83C2002E0322280F83C20A8
:100CF400002101640468626942F40F4242F0010277
:100D0400626180F83D1033B90268536943F00A0305
:100D14005361084618E00268536943F05003536175
:100D2400002011E002207047022070470220704723
:100D3400022070470220704702207047022070474B
:100D440002207047022070475DF8044B704700BFD3
:100D540008B50268536923F00103536190F83C30ED
:100D6400DBB2122B04D10268536923F40F4353619D
:100D740090F83C30DBB2522B07D0722B09D0422BB7
:100D84000BD1222380F83C300AE0322380F83C3037
:100D940006E0622380F83C3002E0012380F83C3016
:100DA40002F0C8FC002008BD10B50C4609B9436B1D
:100DB40000E0836B016804F11B0212018A5802F0FF
:100DC40004029A603AB9016804F11B0212018A58BC
:100DD400520D1A6006E0016804F11B0212018A58E0
:100DE400D2085A60016804F11B021201895801F00B
:100DF4000201D96001681144496801F00F011961C9
:100E04001C6201680A445268C2F30722DA6101686D
:100E140022011144D1F8B811197501681144D1F8AF
:100E2400B811090A597501681144D1F8B811090CAF
:100E3400997501681144D1F8B811090ED975016882
:100E4400114401F5DC71496819760168114401F512
:100E5400DC714968090A59760168114401F5DC71AD
:100E64004968090C997601680A4402F5DC725268F3
:100E7400120EDA7644B903682022DA6002685369F4
:100E840023F00A03536107E0036820221A61026811
:100E9400536923F05003536190F83C30DBB2222BAA
:100EA40001D0322B04D10268536923F40F435361F8
:100EB400C4B990F83C30DBB2622B07D0722B09D056
:100EC400422B0BD1122380F83C3023E0322380F8EC
:100ED4003C301FE0522380F83C301BE0012380F8B3
:100EE4003C3017E090F83C30DBB2622B07D0722B19
:100EF40009D0522B0BD1122380F83C300AE0222374
:100F040080F83C3006E0422380F83C3002E00123C4
:100F140080F83C3002F010FC002010BD70B504468F
:100F24000268D168536903F0080311F0100F05D06B
:100F340033B11023D3604FF4007502E0002500E0C4
:100F4400002522681169536903F0400311F0100F62
:100F540004D01BB145F480651023136123685A69DA
:100F640012F0010F2BD09A68664E32409868664999
:100F74000140986820F06F4020F47E00000C0004CB
:100F8400B24205D0604A914202D0604A904216D1E2
:100F940099689A6802F400729B6803F0010311F0E7
:100FA400020F01D102B91BB12046FFF7D1FE01E0C7
:100FB40045F4006522689168554B0B4393602368A0
:100FC400DA685B6903F0020312F0030F04D01BB16B
:100FD40020460021FFF7E8FE23681A695B6903F0E5
:100FE400100312F0030F04D01BB120460121FFF7B8
:100FF400DBFE236C1D432564236898695A6902F457
:101004008072596901F4004110F0010F05D022B13A
:1010140019B1226C42F00102226498695A6902F4FF
:101024000072596901F4004110F0020F05D022B199
:1010340019B1226C42F00202226498695A6902F4DE
:101044008062596901F4004110F0040F05D022B107
:1010540019B1226C42F00402226498695A6902F4BC
:101064000062596901F4004110F0700F36D0002A73
:1010740034D0002932D09A6902F07002302A16D096
:1010840004D8102A09D0202A0CD023E0502A18D0E2
:10109400602A1BD0402A1DD10EE0226C42F00802C7
:1010A400226417E0226C42F01002226412E0226CE7
:1010B40042F0200222640DE0226C42F040022264DD
:1010C40008E0226C42F08002226403E0226C42F4C5
:1010D400807222649A6922F070029A61236C7BB157
:1010E400236804225A60012384F83C30226853693F
:1010F40023F40F4323F05B035361204602F05CFBAF
:1011040070BD00BF010000040001000800000110D0
:101114000905010000F00700064AD36823F4E063E0
:101124001B041B0C43EA002040F0BF6040F4003075
:10113400D060704700ED00E030B4164BDC68C4F3B7
:101144000224C4F10705042D28BF0425231D062B02
:1011540001D9033C00E00024012303FA05F5013D15
:101164002940A140A340013B1A400A43002806DA63
:1011740000F00F001201D2B2074B1A5407E012011B
:10118400D2B200F1604000F5614080F8002330BC29
:10119400704700BF00ED00E014ED00E0410900F0ED
:1011A4001F0001238340024A42F82130704700BFE8
:1011B40000E100E0430900F01F00012282402033D7
:1011C400014941F82320704700E100E00138B0F103
:1011D400807F0AD2064B5860F021064A82F8231019
:1011E4000020986007221A6070470120704700BFF2
:1011F40010E000E000ED00E0042805D1054A136882
:1012040043F0040313607047024A136823F0040395
:101214001360704710E000E0704700BF08B5FFF7A7
:10122400FBFF08BDF0B583B000273C46DAE001229D
:10123400A2400B681340934240F0D3804D68122DB6
:101244002DD00BD8022D27D003D85DB3012D1ED08D
:1012540035E0032D30D0112D1BD030E0644EB54263
:1012640020D008D8A6F58016B5421BD006F58036E6
:10127400B54224D116E05F4EB54213D006F5803650
:10128400B5420FD0A6F58016B54218D10AE0CF6852
:1012940015E0CF68043712E0CF6808370FE0CF6855
:1012A4000C370CE08D684DB1012D02D10261082785
:1012B40005E04261082702E0002700E00427FF2B35
:1012C40001D8844601E000F1040CFF2B02D84FEA58
:1012D400840E03E0A4F1080E4FEA8E0EDCF80060E1
:1012E4000F2202FA0EF226EA020507FA0EF22A4348
:1012F400CCF800204A6812F0805F72D03E4A9569AB
:1013040045F001059561926902F001020192019A8A
:101314004FEA940E0EF10205384A52F8256004F0A3
:10132400030C4FEA8C0C0F2202FA0CF226EA020597
:10133400334A904213D002F5806290420DD002F5F8
:101344008062904207D002F58062904201D103226C
:1013540006E0042204E0022202E0012200E000226E
:1013640002FA0CF22A430EF1020E244D45F82E2007
:101374004A6812F4803F05D005F580652A681A434F
:101384002A6004E01F4D2A6822EA03022A604A68A0
:1013940012F4003F04D01B4D6A681A436A6004E0EB
:1013A400184D6A6822EA03026A604A6812F4801FD0
:1013B40004D0144DAA681A43AA6004E0114DAA6827
:1013C40022EA0302AA604A6812F4001F04D00D4DF9
:1013D400EA681343EB6004E00A4DEA6822EA030377
:1013E400EB6001340F2C7FF622AF03B0F0BD00BFD9
:1013F40000002110000031100010024000000140E4
:1014040000080140000401400AB101617047090469
:101414000161704700B583B0214B9A6942F0010223
:101424009A619B6903F001030193019B0320FFF779
:1014340071FE6FF00B0000210A46FFF77DFE6FF08E
:101444000A0000210A46FFF777FE6FF00900002129
:101454000A46FFF771FE6FF0040000210A46FFF709
:101464006BFE6FF0030000210A46FFF765FE6FF084
:10147400010000210A46FFF75FFE4FF0FF30002114
:101484000A46FFF759FE074B5A6822F0E0625A6099
:101494005A6842F000725A6003B05DF804FB00BF62
:1014A400001002400000014000B587B003681F4AE5
:1014B40093421AD11E4B9A6942F400729A619B6955
:1014C40003F400730093009B01230293032303930B
:1014D400184802A9FFF7A6FE122000210A46FFF7CA
:1014E4002BFE1220FFF75AFE1CE0134A934219D137
:1014F4000F4B9A6942F480629A619B6903F480639A
:101504000193019B0223029303230393094802A935
:10151400FFF788FE122000210A46FFF70DFE122075
:10152400FFF73CFE07B05DF804FB00BF0024014058
:1015340000100240001001400028014030B589B07D
:1015440003684F4A934246D14E4A136801331360ED
:10155400012B09D14C4BDA6942F00072DA61DB6984
:1015640003F000730193019B4FF400630493002480
:1015740005940694454D284604A9FFF753FE4FF4FD
:10158400805304930223059303230793284604A955
:10159400FFF748FE132021462246FFF7CDFD132016
:1015A400FFF7FCFD142021462246FFF7C5FD142059
:1015B400FFF7F4FD152021462246FFF7BDFD152057
:1015C400FFF7ECFD162021462246FFF7B5FD162055
:1015D400FFF7E4FD52E02E4A93424FD12A4BDA69D9
:1015E40042F08062DA61DB6903F080630293029B5C
:1015F400244A136801331360012B09D1224BDA69A1
:1016040042F00072DA61DB6903F000730393039B19
:101614004FF4805304930024059406941D4D2846EA
:1016240004A9FFF7FFFD4FF400530493022305932D
:1016340003230793284604A9FFF7F4FD3F2021461E
:101644002246FFF779FD3F20FFF7A8FD4020214601
:101654002246FFF771FD4020FFF7A0FD41202146FF
:101664002246FFF769FD4120FFF798FD42202146FD
:101674002246FFF761FD4220FFF790FD09B030BD1F
:1016840000640040240000200010024000080140D3
:1016940000680040000C01400268084B9A420CD1DB
:1016A40082B003F50333DA6942F00202DA61DB69DE
:1016B40003F002030193019B02B070470004004051
:1016C40002680D4B9A4216D100B585B010230093E1
:1016D40002230193039309486946FFF7A3FD084BCE
:1016E4005A6822F440625A605A6842F400625A60AE
:1016F40005B05DF804FB704700040040000C014095
:101704000000014010B586B00368244A934220D1FA
:10171400234BDA6942F40022DA61DB6903F4002323
:101724000093009B4FF480630293022303930323EB
:1017340005931C4C204602A9FFF774FD4FF4006387
:101744000293002303930493204602A9FFF76AFD42
:1017540022E0154A93421FD1114B9A6942F4804208
:101764009A619B6903F480430193019B4FF40073D6
:10177400029302230393032305930C4C204602A9EE
:10178400FFF750FD4FF48063029300230393049307
:10179400204602A9FFF746FD06B010BD004C0040EC
:1017A40000100240001001400038014000080140D0
:1017B400F0B589B0274B9A6942F020029A619A6980
:1017C40002F020020092009A9A6942F010029A6193
:1017D4009A6902F010020192019A9A6942F0080291
:1017E4009A619A6902F008020292029A9A6942F096
:1017F40004029A619B6903F004030393039B164D4F
:10180400284621210022FFF7FFFD144E30464FF4F5
:10181400E0710022FFF7F8FD2123049301270597C7
:1018240002240794284604A9FFF7FCFC049400232F
:1018340005930693284604A9FFF7F4FC4FF4E073DC
:10184400049305970794304604A9FFF7EBFC09B00D
:10185400F0BD00BF00100240000C01400010014028
:10186400FEE700BF08B50E480E4B03600923436032
:1018740000238360C3604FF4402202614FF480125E
:1018840042618361C361036243628362C362FFF79F
:1018940073F820B1044840F22311FFF7E1FF08BDBB
:1018A4009804002000640040103E000808B50E486B
:1018B4000E4B03600923436000238360C3604FF42D
:1018C400402202614FF4801242618361C36103626A
:1018D40043628362C362FFF74FF820B104484FF4B8
:1018E4009D71FFF7BDFF08BDD403002000680040D0
:1018F400103E000808B50B480B4B03604FF4E1336E
:10190400436000238360C36003610C2242618361EE
:10191400C36101F073F920B104484FF4C371FFF7B8
:101924009FFF08BD1804002000380140103E000845
:1019340008B50B480B4B03604FF4E13343600023BD
:101944008360C36003610C2242618361C36101F05F
:1019540055F920B1044840F27311FFF781FF08BD27
:1019640058040020004C0040103E000800B58BB025
:101974001A481B4B036000234360836040F2E73244
:10198400C2600361836100F07BFF20B115484FF40E
:10199400A771FFF765FF0023089309930F4808A96F
:1019A40000F012F920B10F4840F25511FFF758FF2B
:1019B400602301930022029203920592074801A931
:1019C40000F0AAFF20B107484FF4AF71FFF748FFBA
:1019D4000248FFF775FE0BB05DF804FB64030020BA
:1019E40000040040103E000800B585B01248134BB7
:1019F400036000238360C36043614FF46022C261CB
:101A040043600123036101F033FB18B10C48E22168
:101A1400FFF726FF0A230193012302930223039372
:101A2400054801A901F0A6F918B10548EC21FFF712
:101A340017FF05B05DF804FBA40300200024014057
:101A4400103E000800B585B01348144B0360002312
:101A54008360C36043614FF46022C2614360012329
:101A6400036101F005FB20B10D484FF48171FFF7CC
:101A7400F7FE0B23019301230293022303930648E9
:101A840001A901F077F920B105484FF48671FFF7F9
:101A9400E7FE05B05DF804FB340300200028014094
:101AA400103E000800B59DB001210E914FF4803224
:101AB40010920023119313910F9302211691179200
:101AC4004FF4E012189219930EA800F005F918B11A
:101AD4001C48A921FFF7C4FE0F23099302210A9190
:101AE40000230B934FF480620C920D9309A800F02D
:101AF400CBFB18B11348B721FFF7B2FE02230193C1
:101B04004FF40043039301A800F0A6FC18B10D485C
:101B1400BE21FFF7A5FE00F079FC0B4BA3FB0030C0
:101B24008009FFF753FB0420FFF766FB0122074BF4
:101B34001A604FF0FF3000210A46FFF7FDFA1DB08E
:101B44005DF804FB103E0008D34D62107000424261
:101B540008B500F079F8FFF7A5FFFFF729FEFFF7B6
:101B640081FEFFF7A3FEFFF7C5FEFFF7E1FEFFF7D7
:101B7400FDFEFFF739FFFFF765FF094A094B1A60BD
:101B8400094A0A4B1A600A4A0A4B1A600A4A0B4B62
:101B94001A600B4A0B4B1A6001F094FBFEE700BF7E
:101BA400A4030020E004002034030020E404002007
:101BB40098040020F8040020D4030020F40400203A
:101BC40064030020E804002090F83C30012B21D06D
:101BD40030B4012280F83C20022380F83D300468B0
:101BE400636823F070036360046865680B682B43C3
:101BF40063600468A36823F08003A3600468A56895
:101C04004B682B43A36080F83D20002380F83C30D0
:101C1400184601E00220704730BC704710B50446F6
:101C2400074B1B680748A0FB03308009FFF7CEFA77
:101C34004FF0FF3021460022FFF77EFA002010BD4E
:101C440004000020D34D621008B5074A136843F01E
:101C5400100313600320FFF75DFA0020FFF7DEFF97
:101C6400FFF7D8FB002008BD00200240024A136899
:101C740001331360704700BFDC040020014B186877
:101C8400704700BFDC04002030B583B00190FFF73B
:101C9400F5FF0546019CB4F1FF3F00D00134FFF786
:101CA400EDFF401BA042FAD303B030BD82B0084B15
:101CB4001B68084AA2FB03235B0A00FB03F00190A4
:101CC40000BF019B5A1E0192002BF9D102B070474C
:101CD40004000020D34D621070B582B0044603683E
:101CE40013F0010F6BD0A84B5B6803F00C03042BBB
:101CF4000AD0A54B5B6803F00C03082B0DD1A24B53
:101D04005B6813F4803F08D09F4B1B6813F4003FBB
:101D140055D0A368002B52D12BE2A368B3F5803FC2
:101D240005D1994A136843F48033136026E063B9FC
:101D340003F1804303F504331A6822F480321A60F5
:101D44001A6822F480221A6018E0B3F5A02F0CD18F
:101D540003F18043A3F53C331A6842F480221A60ED
:101D64001A6842F480321A6008E0874B1A6822F439
:101D740080321A601A6822F480221A60A3687BB148
:101D8400FFF77CFF054605E0FFF778FF401B64285A
:101D940000F2F1817C4B1B6813F4003FF4D00EE099
:101DA400FFF76CFF054605E0FFF768FF401B64285A
:101DB40000F2E381744B1B6813F4003FF4D12368F1
:101DC40013F0020F50D0704B5B6813F00C0F0AD065
:101DD4006D4B5B6803F00C03082B16D16A4B5B68F0
:101DE40013F4803F11D1684B1B6813F0020F03D02A
:101DF4006369012B40F0C381634A136823F0F8033D
:101E0400A16943EAC10313602EE06369D3B10122DF
:101E14005E4B1A60FFF732FF054605E0FFF72EFF21
:101E2400401B022800F2AD81574B1B6813F0020FD0
:101E3400F4D0554A136823F0F803A16943EAC103B7
:101E4400136011E00022514B1A60FFF717FF05469B
:101E540005E0FFF713FF401B022800F294814A4B70
:101E64001B6813F0020FF4D1236813F0080F29D074
:101E7400E369ABB10122464B1A60FFF7FFFE05464A
:101E840005E0FFF7FBFE401B022800F27E813E4B7B
:101E94005B6A13F0020FF4D00120FFF707FF11E093
:101EA40000223B4B1A60FFF7E9FE054605E0FFF709
:101EB400E5FE401B022800F26A81334B5B6A13F093
:101EC400020FF4D1236813F0040F00F08A802E4B24
:101ED400DB6913F0805F0BD12B4BDA6942F080523F
:101EE400DA61DB6903F080530193019B012500E073
:101EF4000025284B1B6813F4807F13D1254A1368EF
:101F040043F480731360FFF7B9FE064605E0FFF75C
:101F1400B5FE801B642800F23C811E4B1B6813F441
:101F2400807FF4D02369012B05D1174A136A43F04B
:101F34000103136222E063B903F1804303F5043320
:101F44001A6A22F001021A621A6A22F004021A6260
:101F540014E0052B09D10C4B1A6A42F004021A62F0
:101F64001A6A42F001021A6208E0074B1A6A22F068
:101F740001021A621A6A22F004021A622369CBB1BE
:101F8400FFF77CFE06460FE00010024000004242CC
:101F94008004424200700040FFF770FE801B41F253
:101FA4008833984200F2F780874B1B6A13F0020FC4
:101FB400F2D010E0FFF762FE064607E0FFF75EFE90
:101FC400801B41F28833984200F2E7807E4B1B6A03
:101FD40013F0020FF2D125B17B4AD36923F0805369
:101FE400D361E36A002B67D0774A526812F4803FCA
:101FF4000BD0754A526802F00C02082A05D1724AC5
:10200400D26A12F4803F40F0CA80022B3ED16E4B5C
:102014001B6813F0805F07D06B4BDB6A03F0F0039F
:10202400626B934240F0BD800022684B1A60FFF758
:1020340025FE054605E0FFF721FE401B642800F25B
:10204400B280614B1B6813F0006FF4D15E4BDA6A07
:1020540022F0F001626B0A43DA62DA6A22F47061F8
:10206400226B0A43DA620122584B1A60FFF706FE1C
:10207400054605E0FFF702FE401B642800F2958048
:10208400514B1B6813F0006FF4D015E04E4AD36A2D
:1020940023F48033D36200224C4B1A60FFF7EEFD29
:1020A400054604E0FFF7EAFD401B64287FD8464B51
:1020B4001B6813F0006FF5D1236A002B79D0424AD4
:1020C400526802F00C02082A75D0022B3ED100227D
:1020D4003F4B1A60FFF7D2FD054604E0FFF7CEFD43
:1020E400401B022869D8384B1B6813F0007FF5D1D8
:1020F400636AB3F5803F0DD103F1804303F5883360
:10210400D96A62680A43DA62DA6A22F00F01E26885
:102114000A43DA622C48436823F47411636AA26A9E
:1021240013430B4343600122294B1A60FFF7A6FDBA
:10213400044604E0FFF7A2FD001B02283FD8224B0F
:102144001B6813F0007FF5D000203BE00022204BF9
:102154001A60FFF793FD044604E0FFF78FFD001BB0
:1021640002282ED8184B1B6813F0007FF5D10020ED
:1021740028E0012026E0032024E0032022E00120BF
:1021840020E003201EE003201CE003201AE00320CB
:1021940018E0032016E0032014E0032012E00120DD
:1021A40010E001200EE003200CE003200AE00320ED
:1021B40008E0002006E0012004E0032002E0032000
:1021C40000E0032002B070BD0010024068004242EB
:1021D4006000424210B489B0274B04AC18685968B7
:1021E4009A6807C49A8922806C4653F8100F59687C
:1021F4009A68DB680FC4214B5B6803F00C02082A61
:1022040035D1C3F3834208A90A4412F8101C13F40D
:10221400803F28D0194AD36A03F00F0308A8034467
:1022240013F8200CD36A13F4803F11D0D46AC4F39A
:1022340003140134D36AC3F303239A1C104BB3FB76
:10224400F4F302FB03F3B3FBF0F001FB00F004E052
:102254000B4BB3FBF0F001FB00F09DF81D308B42FB
:1022640006D1400804E0074800FB01F000E0044800
:1022740009B05DF8044B7047F03D000800100240BF
:1022840000127A0000093D0070B55C4B1B6803F036
:1022940007038B420BD2594A136823F007030B43FD
:1022A4001360136803F007038B4240F097800368C0
:1022B40013F0020F06D0524C636823F0F0028368D7
:1022C400134363600D460446036813F0010F4DD0B9
:1022D4004268012A05D14A4B1B6813F4003F0DD113
:1022E4007EE0022A05D1464B1B6813F0007F05D11E
:1022F40078E0434B1B6813F0020F75D040494B68DC
:1023040023F0030313434B60FFF7B8FC06466368EE
:10231400012B0ED106E0FFF7B1FC801B41F288339C
:10232400984263D8364B5B6803F00C03042BF2D15C
:102334001CE0022B15D106E0FFF7A0FC801B41F244
:102344008833984254D82E4B5B6803F00C03082B57
:10235400F2D10BE0FFF792FC801B41F288339842E4
:1023640048D8274B5B6813F00C0FF3D1234B1B6841
:1023740003F00703AB420AD9204A136823F007038A
:102384002B431360136803F00703AB4234D1236873
:1023940013F0040F06D01A494B6823F4E062E36893
:1023A40013434B60236813F0080F07D0144A536893
:1023B40023F46053216943EAC1035360FFF70AFF22
:1023C4000F4B5B68C3F303130E4AD35CD8400E4B28
:1023D40018600020FFF722FC002070BD012070BDB2
:1023E400012070BD012070BD012070BD032070BDAF
:1023F400032070BD032070BD012070BD0020024089
:1024040000100240483E000804000020014B1868F8
:10241400704700BF0400002008B5FFF7F7FF044B26
:102424005B68C3F30223034AD35CD84008BD00BFF2
:1024340000100240583E000808B5FFF7E7FF044BC0
:102444005B68C3F3C223034AD35CD84008BD00BF12
:1024540000100240583E000870B582B0044603687C
:1024640013F0010F5ED0714BDB6913F0805F0BD169
:102474006E4BDA6942F08052DA61DB6903F0805313
:102484000193019B012600E00026694B1B6813F4AD
:10249400807F13D1664A136843F480731360FFF797
:1024A400EDFB054605E0FFF7E9FB401B642800F25D
:1024B400AF805F4B1B6813F4807FF4D05B4B1B6AC7
:1024C40013F4407322D0626802F440729A421DD021
:1024D400564A136A23F44070564901250D600025BD
:1024E4000D60106213F0010F10D0FFF7C7FB054613
:1024F40007E0FFF7C3FB401B41F28833984200F228
:1025040089804A4B1B6A13F0020FF2D047490B6AC9
:1025140023F44072636813430B621EB1CB6923F04A
:102524008053CB61236813F0020F06D03F494B68F8
:1025340023F44042A36813434B60236813F0040F51
:1025440006D03A49CB6A23F40032E3681343CB62E2
:10255400236813F0080F06D03449CB6A23F4802291
:1025640023691343CB62314BDB6A13F4003F06D17A
:102574002E4BDB6A13F4802F03D1002302E00123E6
:1025840000E00123002B36D0284B1B6813F0805F3A
:102594002AD1264B1B6813F0806F06D0234BDB6ACD
:1025A40003F0F003A269934236D1204BDA6A22F099
:1025B400F001A2690A43DA62DA6A22F470416269BC
:1025C4000A43DA6201221C4B1A60FFF757FB0546E7
:1025D40004E0FFF753FB401B64281FD8134B1B6810
:1025E40013F0005FF5D006E0104BDB6A03F4704390
:1025F4006269934214D1236813F0100F12D00B496F
:102604004B6823F48002E36913434B6000200AE023
:10261400032008E0032006E0012004E0032002E098
:10262400012000E0002002B070BD00BF0010024095
:10263400007000404004424270004242704700BFB4
:10264400FEE700BFFEE700BFFEE700BFFEE700BFF6
:10265400704700BF704700BF704700BF08B5FFF761
:1026640005FBFEF7DBFD08BD08B5034800F000FBE1
:10267400024800F0FDFA08BDA40300203403002042
:1026840008B50248FEF74AFC08BD00BF98040020C4
:1026940008B50248FEF742FC08BD00BF98040020BC
:1026A40008B50248FEF73AFC08BD00BF98040020B4
:1026B40008B50248FEF732FC08BD00BF98040020AC
:1026C40008B50248FEF72AFC08BD00BFD403002069
:1026D40008B50248FEF722FC08BD00BFD403002061
:1026E40008B50248FEF71AFC08BD00BFD403002059
:1026F40008B50248FEF712FC08BD00BFD403002051
:1027040030B4036A23F001030362036A44688269F4
:1027140022F073020D682A4323F002038D682B43D1
:102724000C4DA84205D123F00803CD682B4323F0B8
:102734000403084DA84205D124F440744D692C4388
:102744008D692C43446082614A684263036230BCF1
:10275400704700BF002C014030B4036A23F4807337
:102764000362036A4468C26922F073020D682A4353
:1027740023F400738D6843EA05230E4DA84206D165
:1027840023F40063CD6843EA052323F48063094DF1
:10279400A84207D124F440544D6944EA05148D69D4
:1027A40044EA05144460C2614A68C263036230BCEF
:1027B400704700BF002C014030B4036A23F48053F7
:1027C4000362036A4468C26922F4E6420D6842EA7D
:1027D400052223F400538D6843EA0533074DA842CC
:1027E40004D124F480444D6944EA85144460C261F0
:1027F4004A680264036230BC704700BF002C014089
:1028040003681E4A90420ED0B0F1804F0BD0A2F55F
:102814009432904207D002F58062904203D002F5D0
:102824008062904203D123F070034A681343134A31
:1028340090420ED0B0F1804F0BD0A2F5943290426A
:1028440007D002F58062904203D002F58062904284
:1028540003D123F44073CA68134323F080034A6905
:10286400134303608B68C3620B688362034B984213
:1028740001D10B690363012343617047002C0140BC
:10288400C0B110B5044690F83D3013F0FF0F04D1E9
:10289400002380F83C30FEF7FFFE022384F83D302D
:1028A400214651F8040BFFF7ABFF012384F83D30B8
:1028B400002010BD0120704730B4036A23F01003D8
:1028C4000362036A4468826922F4E6420D6842EABC
:1028D400052223F020038D6843EA05130D4DA84219
:1028E40006D123F08003CD6843EA051323F04003A7
:1028F400084DA84207D124F440644D6944EA850494
:102904008D6944EA8504446082614A688263036293
:1029140030BC7047002C014038B590F83C30012B96
:1029240066D00D460446012380F83C30022380F82B
:102934003D300C2A55D8DFE802F0075454541A5499
:1029440054542E54545441000068FFF7D9FE2268B1
:10295400936943F0080393612268936923F00403A5
:102964009361226891692B690B43936139E0006894
:10297400FFF7A2FF2268936943F40063936122681E
:10298400936923F48063936122689369296943EA14
:102994000123936125E00068FFF7DEFE2268D36916
:1029A40043F00803D3612268D36923F00403D3619D
:1029B4002268D1692B690B43D36112E00068FFF7E9
:1029C400FBFE2268D36943F40063D3612268D369B0
:1029D40023F48063D3612268D369296943EA01231C
:1029E400D361012384F83D30002084F83C0038BDD5
:1029F400022038BD10B401238B40046A24EA030387
:102A04000362036A8A401A4302625DF8044B70470A
:102A140010B5044600680122FFF7ECFF2368074A5B
:102A2400934203D15A6C42F400425A6422681368F8
:102A340043F001031360002010BD00BF002C0140CF
:102A44002DE9F843814601680B6923F44052C368B9
:102A540013430B618168036919434369194300688F
:102A6400C26822F4B05323F00C030B43C360D9F8BB
:102A740000104B6923F44072D9F8183013434B61AA
:102A8400D9F800505B4B9D4259D1FFF7D5FC00EBC0
:102A9400800000EB8000D9F80440A400B0FBF4F4FB
:102AA400554EA6FB043464092401FFF7C5FC00EB72
:102AB400800000EB8000D9F804309B00B0FBF3F7F2
:102AC400FFF7BAFC00EB800000EB8000D9F804307B
:102AD4009B00B0FBF3F3A6FB03235B094FF06408F0
:102AE40008FB13731B013233A6FB03235B0903F0BA
:102AF400F0031C44FFF7A0FC00EB800000EB800017
:102B0400D9F804309B00B0FBF3F7FFF795FC00EB1A
:102B1400800000EB8000D9F804309B00B0FBF3F395
:102B2400A6FB03235B0908FB13731B013233A6FBCB
:102B34000323C3F343131C44AC60BDE8F883FFF7DD
:102B44006BFC00EB800000EB8000D9F80440A4008B
:102B5400B0FBF4F4284EA6FB043464092401FFF707
:102B64005BFC00EB800000EB8000D9F804309B0094
:102B7400B0FBF3F7FFF750FC00EB800000EB8000A4
:102B8400D9F804309B00B0FBF3F3A6FB03235B09E5
:102B94004FF0640808FB13731B013233A6FB0323B5
:102BA4005B0903F0F0031C44FFF736FC00EB8000E4
:102BB40000EB8000D9F804309B00B0FBF3F7FFF77B
:102BC4002BFC00EB800000EB8000D9F804309B0064
:102BD400B0FBF3F3A6FB03235B0908FB13731B0190
:102BE4003233A6FB0323C3F343131C44AC60BDE898
:102BF400F88300BF003801401F85EB5168B310B55E
:102C0400044690F8393013F0FF0F04D1002380F804
:102C14003830FEF777FD242384F839302268D368EE
:102C240023F40053D3602046FFF70AFF2268136998
:102C340023F4904313612268536923F02A035361F8
:102C44002268D36843F40053D3600020E063202358
:102C540084F8393084F83A3010BD0120704700BF41
:102C6400704700BF0368D86C704700BF704700BF4F
:102C740010B5044603685A6812F0200F2AD01A6867
:102C840012F0020F26D0826A12F0100F03D1826A6A
:102C940042F4007282629A6802F46022B2F5602FF4
:102CA40011D1E2687AB95A6822F020025A60A36A04
:102CB40023F48073A362A36A13F4805F03D1A36A2D
:102CC40043F00103A362204600F058FA23686FF032
:102CD40012021A6023685A6812F0800F34D01A68FE
:102CE40012F0040F30D0A26A12F0100F03D1A26ABE
:102CF40042F40052A2629A6802F4E042B2F5E04F54
:102D04000BD05A6812F4806F17D19A6802F46022CB
:102D1400B2F5602F11D1E2687AB95A6822F08002C4
:102D24005A60A36A23F48053A362A36A13F4807FD6
:102D340003D1A36A43F00103A3622046FFF790FF87
:102D440023686FF00C021A6023685A6812F0400F6F
:102D54000ED01B6813F0010F0AD0A36A43F480332A
:102D6400A3622046FFF782FF23686FF001021A6016
:102D740010BD00BF70B483B00023019390F82430D9
:102D8400012B00F08380012380F824304B68062B4C
:102D94000DD80668756B03EB8303053B1F229A402D
:102DA40025EA02040A689A40224372631CE00C2B51
:102DB4000DD80668356B03EB8303233B1F229A402F
:102DC40025EA02040A689A40224332630CE006684A
:102DD400F56A03EB8303413B1F229A4025EA020470
:102DE4000A689A402243F2620B68092B0DD90668DF
:102DF400F56803EB43031E3B07229A4025EA0204CD
:102E04008A689A402243F2600BE00668356903EB56
:102E1400430307229A4025EA02048A689A4022431F
:102E240032610B68103B012B26D80368194A934280
:102E34001CD19A6812F4000F20D19A6842F400025F
:102E44009A600B68102B1BD1134B1B68134AA2FB0F
:102E540003239B0C03EB83035B00019302E0019BC0
:102E6400013B0193019B002BF9D10AE0836A43F0F3
:102E740020038362012304E0002302E0002300E036
:102E84000023002280F82420184600E0022003B02A
:102E940070BC7047002401400400002083DE1B4303
:102EA40030B583B00023019303689A6812F0010FD0
:102EB4002FD19A6842F001029A60174B1B68174A97
:102EC400A2FB03239B0C019302E0019B013B0193B2
:102ED400019B002BF9D10446FEF7D0FE054611E014
:102EE400FEF7CCFE401B02280CD9A36A43F0100362
:102EF400A362E36A43F00103E362002384F824300D
:102F0400012007E023689B6813F0010FE8D000203C
:102F140000E0002003B030BD0400002083DE1B432A
:102F240090F82430012B75D010B50446012380F8A5
:102F34002430FFF7B5FF0346002866D1A26A22F4C5
:102F4400706222F0010242F48072A2622268324965
:102F54008A4205D1A1F58061496811F4702F0ED120
:102F6400A16A21F48011A162516811F4806F1CD010
:102F7400A16A21F4405141F48051A16215E0A16A93
:102F840041F48011A16225498A4203D001F5806190
:102F94008A420AD12149496811F4806F05D0A16A97
:102FA40021F4405141F48051A162A16A11F4805F7F
:102FB40004D0E16A21F00601E16201E00021E1624E
:102FC400002184F824106FF00201116021684A681E
:102FD40042F020024A602268916801F46021B1F550
:102FE400602F0DD10C498A4205D1A1F58061496851
:102FF40011F4702F04D1916841F4A001916007E0AD
:10300400916841F48011916002E0002284F8242048
:10301400184610BD022070470028014000240140DA
:1030240038B503689A6812F0010F1ED004469A68F6
:1030340022F001029A60FEF721FE05460EE0FEF73B
:103044001DFE401B022809D9A36A43F01003A362A2
:10305400E36A43F00103E362012038BD23689B68FF
:1030640013F0010FEBD1002038BD002038BD00BFA4
:1030740000287DD038B50446836A23B9C36280F83A
:103084002430FEF711FA2046FFF7CAFFA36A13F0B3
:10309400100F67D1002865D1A36A23F4885323F065
:1030A400020343F00203A3626268E3691343E16825
:1030B40043EA4103A268B2F5807F04D0012A05D116
:1030C4004FF4807203E04FF4807200E000226569DF
:1030D400012D0FD131B9A169013942EA413242F4DB
:1030E400006207E0A16A41F02001A162E16A41F0B7
:1030F4000101E1622568696821F469410A436A6053
:1031040021688D681B4A2A401A438A60A268B2F576
:10311400807F01D0012A03D12269013A110500E020
:1031240000212568EA6A22F470020A43EA622268EE
:103134009168114A0A40934208D10023E362A36ACA
:1031440023F0030343F00103A36238BDA36A23F011
:10315400120343F01003A362E36A43F00103E36242
:10316400012038BDA36A43F01003A362012038BDD7
:1031740001207047FDF7E1FFFE0E1FFF074B1B68A0
:10318400984203D10122064B1A707047054B1B6805
:10319400984202D10122044B1A707047E0040020C7
:1031A4002C000020E40400202D00002008B5044B6E
:1031B4001868FFF7B5FE034B1868FFF7B1FE08BDAA
:1031C400E0040020E404002038B5144B1B7813F00D
:1031D400FF0F0DD00022114B1A70114C2068FFF71D
:1031E40041FD104B18802068FFF79AFE012400E08F
:1031F40000240D4B1B7813F0FF0F0CD000220A4B58
:103204001A700A4D2868FFF72DFD094B18802868AD
:10321400FFF786FE0234204638BD00BF2C00002094
:10322400E0040020280000202D000020E4040020F9
:103234002A000020014B1888704700BF2800002096
:10324400014B1888704700BF2A000020024B1B68FE
:103254001B685863704700BFE804002008B50020CD
:10326400FFF7F4FF054B18680021FFF7D1FB044872
:1032740001210A46FEF7C8F808BD00BFE804002093
:10328400000C014010B5044600F57A73B3F5FA6FEB
:1032940012D8002806DA0A4820210122FEF7B4F8E1
:1032A400644204E0064820210022FEF7ADF8A0B2F3
:1032B400FFF7CCFF002010BD4FF0FF3010BD00BF62
:1032C400000C014070B588B0BC4900224A6001F18D
:1032D4000C0343F8042B43F8042B43F8042B43F862
:1032E400042B43F8042B43F8042B43F8042B43F832
:1032F400042B43F8042B1A60B14B0B60B14B8B6069
:10330400B14B8B61B14BCB6101248C6204E0E0B220
:10331400002100F0EBFC0134032CF8DD4FF4FA70CB
:10332400FEF7B2FC012407E0E0B2012100F0DEFC6C
:103334006420FEF7A9FC0134032CF5DD032407E027
:10334400E0B2002100F0D2FC6420FEF79DFC013CB9
:10335400002CF5DCFFF72AFFFFF780FF9C4B00935E
:10336400C42002219B4A082300F03AFB02200121D9
:1033740000F03CFA00F050FBFEF780FC0546FEF737
:103384007DFC0646FFF720FF044610F0010F01D034
:10339400FFF750FF14F0020F01D0FFF751FF00F0C8
:1033A40071FB00F0F9FB002800F08D80FEF766FC4D
:1033B400054602A800F002FC9DF80A30072B20D134
:1033C4000122854B1A707D4800F08CFC9DF80C405E
:1033D4009DF80D3043EA042420B24FF47A7303FBC2
:1033E40000F0002802DA00F5FF407F30C013FFF739
:1033F40049FF21B20120003118BF012100F076FC01
:1034040061E0082B2CD19DF80C209DF80D3043EA87
:10341400022340F6AC52934204D8642B38BF642391
:10342400184601E040F6AC5049F63F4303FB00F375
:103434006A4880FB03201844DB17604CC3EBE02090
:10344400FCF7DAFF20610222634B1A7094F83030E3
:10345400002B38D120460023636100F02BFC32E0BE
:10346400122B0DD19DF80C301BB900225C4B1A8035
:1034740029E04FF47A7292FBF3F3594A138022E065
:10348400262B20D19DF80C209DF80D3043EA022212
:1034940049F63F4303FB02F3504A82FB03121A44EA
:1034A400DB17C3EBE2239BB24E4A13800122ADF833
:1034B400142002228DF81620ADF817304A4B1868F4
:1034C40005A900F0EDF9484B186800F00DFA60B159
:1034D400454B186805A900F023FABDF81720414BA5
:1034E4001A80BDF81920414B1A803B4B1B78022BE4
:1034F40012D1324C3B4B1888FCF77AFFE06020462F
:1035040000F07AFB20B16069FDF790F9FFF7BAFE8D
:103514000120014600F0EAFBFEF7B0FB0446431B22
:10352400B3F5FA7F0CD90020FFF7ACFE012000218F
:1035340000F0DCFB0022284B1A70204800F0D2FB7C
:10354400274B1B88002B3FF41DAFA21B9A427FF62A
:1035540019AF1C238DF8163004238DF81730214B36
:1035640019884FF4616202FB01F1214880FB016379
:103574000B44C917C1EBE3311C4B1B889BB202FB04
:1035840003F380FB03201844DB17C3EBE033C1F3E0
:1035940007228DF818208DF81910C3F307228DF82F
:1035A4001A208DF81B3005A800F03EFA18B102204D
:1035B400012100F09BFB2646E4E600BF300000201A
:1035C4000000A0400AD7A33B00007A4400007AC45C
:1035D400203E00081C3E00082E000020C5B3A29126
:1035E4006400002066000020F40400200000002095
:1035F400F56EB8D100B58BB01C4B1B78042B03D9E6
:103604001B484321FEF72CF9184B1A78002A2AD0BC
:1036140000230593012106910793049308910E2337
:103624000993144B19680B885B019BB20093012A20
:1036340002D94B885B019BB20193022A02D98B8881
:103644005B019BB20293032A02D9CB885B019BB234
:103654000393094B18686946FDF70EF918B104483D
:103664006021FEF7FDF80BB05DF804FB900000202C
:10367400283E00088C000020F804002000B58BB020
:10368400002305930693012207920093019302936A
:103694000393049308920E230993064B1868694612
:1036A400FDF7EAF818B104487121FEF7D9F80BB018
:1036B4005DF804FBF8040020283E000800B58BB038
:1036C4000E22059200230693012107910093019392
:1036D40002930393049308910992064B1868694670
:1036E400FDF7CAF818B104488421FEF7B9F80BB005
:1036F4005DF804FBF8040020283E000808B5054BDB
:103704001B68834201D1142000E04020FDF752FDE4
:1037140000BF08BDF804002008B5054B1B688342B0
:1037240001D1142000E04020FDF738FD08BD00BFA2
:10373400F8040020704700BF38B51C4B1B68984242
:1037440001D11B4C00E01B4C6378426B128803EBE5
:1037540043039B0023445A80436B1D69EAB2637898
:1037640003EB43039B0023441A7100220AE06378AD
:10377400416B1144097D03EB43039B001344234431
:1037840059710132EBB29342F1DC63780133DBB25D
:103794006370637803F00F0363700021FDF742FA4E
:1037A40018B10220012100F0A1FA38BDF80400206C
:1037B400BC0000208001002008B5026C054B1A6093
:1037C4000021FDF72FFA18B10320012100F08EFA31
:1037D40008BD00BFB8000020024B1870024B1960EE
:1037E400704700BF900000208C00002038B50D46C3
:1037F400214A002313705370204A137053700446F7
:1038040028B11F4B1B681F4A1A631F4A5A632DB104
:103814001E4B1B681E4A1A631E4A5A63022C06D1A9
:103824001D4B1B681BB91D48A121FEF719F8022C7A
:1038340002D1FFF7DFFE03E0012C01D1FFF71EFFE9
:10384400012D01D1FFF73AFF4CB10D4B186800214F
:10385400FDF7E8F918B11148AB21FEF701F84DB1B5
:103864000A4B18680021FDF7DDF918B10B48AE21A9
:10387400FDF7F6FF002038BDBC00002080010020C9
:10388400F80400204402002094000020F4040020E6
:1038940060020020680000208C000020283E000800
:1038A40038B50446036B0A881A60026B0023D360A0
:1038B400026B9360026B8878106105E0226BC81874
:1038C400C0781A44107501338A789A42F6DC20468F
:1038D400FFF714FF2046FDF7F5F805462046FFF7ED
:1038E4001BFF284638BD00BF094B1B68834201D12A
:1038F400084B00E0084B587810301B78C01A074B6F
:10390400184003D5013860F00F000130704700BF44
:10391400F8040020BC000020800100200F0000807B
:1039240070B505460E46FFF7DFFF002822DD134B76
:103934001B689D4201D1124C00E0124C2846FFF74F
:10394400DDFE237803EB43039B00234453F8021F5B
:103954005A689B6831607260B3602846FFF7DCFEEA
:1039640023780133DBB22370237803F00F03237031
:10397400002070BD4FF0FF3070BD00BFF804002080
:10398400BC0000208001002010B400231C4607E086
:103994000F4A126832F81320824200D10124013305
:1039A4000C4A12789A42F3DC4CB900200DE00A4A22
:1039B4001268D25C8A4200D12046013301E0002320
:1039C4001846064A12789A42F1DC5DF8044B7047B7
:1039D4002C030020300300202803002031030020A2
:1039E40010B5084C20800848017008480260084857
:1039F4000370084B0298186008461146FFF7ECFE66
:103A040010BD00BF80020020300300202C030020E2
:103A14003103002028030020024B00201870587046
:103A2400704700BF84020020C378072B20D800B55C
:103A340085B0124A128842F48062ADF80420013342
:103A44008DF8063083788DF80730002307E05A1C80
:103A54000344197904AB134403F8091C1346C278D0
:103A64009A42F4DC064B186801A9FFF719FF01E03C
:103A74000120704705B05DF804FB00BF8002002000
:103A8400F8040020F0B585B0FEF7F8F83C4B1B684D
:103A9400C31AB3F57A7F32D9394B1860394BA3FB7B
:103AA40000308009384B18600E228DF8062007225A
:103AB4008DF80720354A1288D1088DF80810520174
:103AC4008DF80920020C8DF80A20C0F307228DF826
:103AD4000B208DF80C001A795979C900987941EABC
:103AE400821202438DF80D20DB798DF80E3001A887
:103AF400FFF79AFF18B10220012100F0F7F8002621
:103B040034E0234B186801A9FFF70AFF70BB9DF846
:103B140006405CB3BDF804709DF80750384629464A
:103B2400FFF732FF10B31B4B5E78314606EB86027B
:103B340003EB42035F801D71013CE4B25C7100231E
:103B44000CE05A1C04A8104410F8090C01EB810580
:103B540003EB45030F4D2B44987113469C42F0DC54
:103B6400013606F00F060B4B5E700126084B1868F1
:103B7400FFF7BAFE0028C4D1304605B0F0BD00BF3F
:103B84007C020020D34D6210EC040020800200204F
:103B9400F804002084020020064B587810301B786B
:103BA400C01A054B184003D5013860F00F000130EE
:103BB400704700BF840200200F00008038B504461F
:103BC400FFF7EAFF002812DD0A490B7803EB8302B2
:103BD40001EB420252F8025F50682560606012896E
:103BE4002281013303F00F030B70002038BD4FF026
:103BF400FF3038BD840200202DE9F04790F83050A2
:103C0400002D53D00446FEF739F8626AA36A1344C0
:103C140083424AD86062D4F80C8020694146FCF79C
:103C240035FB814660684946FCF73AFC216AFCF79B
:103C34002FFB06462062A7693946FCF7EDFD40B923
:103C4400D4F81CA030465146FCF7C8FD10B15646C6
:103C540000E03E46266220684946FCF721FC014606
:103C64003046FCF715FB0646D4F808904046E16A56
:103C7400FCF70CFB01464846FCF712FC01463046B3
:103C8400FCF704FB0646606138463146FCF7A6FDA6
:103C940038B9E76930463946FCF7A0FD00B13E4625
:103CA40037466761C4F82C8000E000252846BDE84B
:103CB400F08700BF70B504464669066285693046E0
:103CC4002946FCF7A9FD30B9E56930462946FCF7D9
:103CD40085FD00B935462562E368E362012384F873
:103CE400303070BD002380F83030704708B50A4684
:103CF400012807D10E484021B2FA82F25209FDF799
:103D040083FB08BD022807D109488021B2FA82F258
:103D14005209FDF779FB08BD032807D104484FF485
:103D24008071B2FA82F25209FDF76EFB08BD00BF42
:103D340000100140124B1A6842F001021A605968DF
:103D4400104A0A405A601A6822F0847222F48032BF
:103D54001A601A6822F480221A605A6822F4FE0259
:103D64005A601A6822F0A0521A604FF47F029A60D7
:103D74000022DA624FF00062034B9A60704700BF82
:103D8400001002400000FFF000ED00E0002103E01D
:103D94000A4B5B584350043109480A4B42189A4273
:103DA400F6D3094A02E0002342F8043B074B9A4247
:103DB400F9D3FFF7BFFFFDF7CBFE7047683E00085D
:103DC400000000200800002008000020FC0400205F
:103DD400FEE70000F8B500BFF8BC08BC9E4670477B
:0C3DE400F8B500BFF8BC08BC9E46704754
:103DF000000004050607080900000000000D00008F
:103E00000102030405060708090A0B0C0D0E0F102A
:103E10005372632F6D61696E2E630000B400C4009D
:103E200007110812260913142E2E2F2E2E2F736819
:103E3000617265642F6669726D776172652F537266
:103E4000632F63616E2E630000000000000000001D
:103E50000102030406070809000000000102030430
:043E60005102000803
:043E64002902000827
:083E6800FFFF000000A24A0464
:0400000508003D9121
:00000001FF
